:100000000C9483020C94AB020C94AB020C94AB02E4
:100010000C94AB020C94AB020C94AB020C94AB02AC
:100020000C94AB020C94AB020C94A1160C94AB0292
:100030000C94AB020C94AB020C94D4160C94AB024F
:100040000C9457160C94AB020C9425160C94FF15C7
:100050000C94AB020C94AB020C94AB020C94AB026C
:100060000C94AB020C94AB0200407A10F35A00A03F
:10007000724E18090010A5D4E80000E87648170071
:1000800000E40B54020000CA9A3B000000E1F505B1
:10009000000080969800000040420F000000A086FB
:1000A00001000000102700000000E803000000002D
:1000B0006400000000000A000000000001000000D1
:1000C00000002C76D888DC674F0823DFC1DFAE59EB
:1000D000E1B1B796E5E3E453C63AE651997696E87E
:1000E000E6C28426EB898C9B62ED407C6FFCEFBC02
:1000F0009C9F40F2BAA56FA5F490055A2AF75C932D
:100100006B6CF9676DC11BFCE0E40D47FEF520E662
:10011000B500D0ED902E0300943577050080841E45
:10012000080000204E0A000000C80C333333330FA0
:10013000986E12831141EF8D2114893BE65516CF3D
:10014000FEE6DB18D1844B381BF77C1D901DA4BB49
:10015000E424203284725E228100C9F124ECA1E5FE
:100160003D2700000000240027002A0000000000B6
:10017000250028002B000000000023002600290095
:10018000040404040404040402020202020203033D
:100190000303030301020408102040800102040845
:1001A00010200102040810200000000800020100D5
:1001B0000003040700000000000000000000000031
:1001C0000000000000005F5F000000000007070063
:1001D00000070700147F7F14147F7F1400242E6B08
:1001E0006B3A1200006333180C66630000307E4FD8
:1001F00059377A48000000070700000000001C3E45
:1002000041410000000041413E1C0000082A3E1C04
:100210001C3E2A080008083E3E0808000000006056
:10022000E0000000000808080808080000006060FE
:100230000000000000406030180C0400003E7F41C8
:10024000417F3E000040427F7F40400000727B497A
:10025000494F460000226349497F360000181C16AA
:10026000137F7F1000276745457D3900003E7F4999
:10027000497B320000030101797F070000367F4986
:10028000497F360000266F49497F3E000000363620
:1002900000000000000036760000000000081C3658
:1002A0002200000000001414141400000000223684
:1002B0001C08000000020351590F0600003E415D7A
:1002C000555E0000007C7E0B0B7E7C00007F7F492A
:1002D000497F3600003E7F4141632200007F7F411D
:1002E000633E1C00007F7F4949414100007F7F0938
:1002F00009010100003E7F41497B3A00007F7F08F1
:10030000087F7F000000417F7F41000000206041A6
:100310007F3F0100007F7F1C36634100007F7F40EC
:1003200040404000007F7F060C067F7F007F7F0EED
:100330001C7F7F00003E7F41417F3E00007F7F09A0
:10034000090F0600001E3F21617F5E00007F7F19BC
:10035000396F460000266F49497B32000001017F5A
:100360007F010100003F7F40407F3F00001F3F6052
:10037000603F1F00007F7F3018307F7F0063771C55
:100380001C77630000070F78780F07000061715930
:100390004D47430000007F7F414100000002060CF2
:1003A00018302000000041417F7F00000008040257
:1003B00004080000004040404040400000000007AA
:1003C0000700000000207454547C7800007E7E48B2
:1003D0004878300000387C444444000000307848BD
:1003E000487E7E0000387C54545C18000000087C75
:1003F0007E0A0A000098BCA4A4FC7C00007E7E0853
:10040000087870000000007A7A0000000000C080C8
:10041000FA7A0000007E7E103C6C40000000027EF4
:100420007E400000007C7C047C047800007C7C041E
:10043000047C780000387C44447C380000FCFC24B8
:10044000243C180000183C2424FCFC00007C7C04A4
:10045000040C080000485C54547424000004043E5A
:100460007E444400003C7C40407C7C00001C3C609E
:10047000603C1C00003C7C407C403C0000446C38EC
:10048000386C4400009CBCA0E0FC7C000044647418
:100490005C4C440000083E7741410000000000F73A
:1004A000F700000000004141773E080000100808F6
:1004B0001010080000387C44447C38000000487C60
:1004C0007C400000004864745C4C400000286C4490
:1004D000547C2800001018107C7C1000005C5C54D8
:1004E0007424000000387C545470200000046474AC
:1004F0001C0C040000287C54547C280000085C5428
:10050000743C1800021711241FBECFEFD8E0DEBFE5
:10051000CDBF15E0A0E0B1E0EEEDF0E402C0059043
:100520000D92AC39B107D9F726E0ACE9B5E001C0CE
:100530001D92AC3BB207E1F712E0C3E8D2E004C081
:100540002197FE010E94DF1EC238D107C9F70E9421
:100550004C170C946D200C94000084E98093BC002F
:100560008091BC0084FDFCCF80E00895CF93809300
:10057000BB0084E88093BC008091BC0087FFFCCF67
:100580008091B900887FC0E0883251F0C091B900F5
:10059000C87F8091B900887F803329F40E94AD0222
:1005A0008C2FCF9108951092BC0084E48093BC00FE
:1005B000F7CFCF938093BB0084E88093BC008091F9
:1005C000BC0087FFFCCF8091B900887F8831E9F0BB
:1005D0008091B900887F8034C1F0C091B900C87F94
:1005E0008091B900887F803269F08091B900887F5E
:1005F000883441F01092BC0084E48093BC008C2FBE
:10060000CF9108950E94AD02FACFC0E0F8CF84EAFE
:100610008093BC008091BC0087FFFCCF8091B90023
:10062000887F8830B9F08091B900887F803191F05F
:100630008091B900887F883349F48091B900887F20
:100640001092BC0094E49093BC0008958091B9008E
:10065000887F089580E008951F93CF93DF93182F2C
:10066000D62FC42F0E940703812F880F0E94D90222
:100670008D2F0E94B6028C2F0E94B602DF91CF917F
:100680001F910C94AD02462F682F80E60C942C032A
:10069000CF93C82F0E94070380EC0E94D9028C2FB1
:1006A0000E94B6020E94070381EC0E94D90284E8EE
:1006B0008093BC008091BC0087FFFCCF8091B90083
:1006C000887F883369F48091B9001092BC0084E47B
:1006D0008093BC000E94AD028091BB00CF91089531
:1006E0008091B900F7CFCF93DF93D82FC62F83E047
:1006F0000E94480361E070E001C0660FDA95EAF7F6
:10070000C13039F46095682383E0DF91CF910C9478
:100710004303682BF9CFEBEEF5E0A089B18982E0C5
:100720008C93A485B5851C92A685B78580E18C93B2
:10073000108EA489B58986E08C93A289B3898C91A7
:1007400080618C93A289B3898C9188608C93A289F3
:10075000B3898C9180688C930288F389E02D808125
:100760008F7D80830895CF93DF93D82F0E94070356
:1007700088E70E94D90280E40E94B602C0E0DC173C
:1007800029F080E00E94B602CF5FF9CFDF91CF91D0
:100790000C94AD02EF92FF920F931F93CF93DF93D0
:1007A000D82FC62F142FE52E022F0E9407038D2F5E
:1007B000880F0E94D9028C2F0E94B602F12EC12F01
:1007C000DE2D89910E94B6028C2F8F198017C8F3F5
:1007D000DF91CF911F910F91FF90EF900C94AD029C
:1007E000CF93DF9300D01F92CDB7DEB7606B6983E4
:1007F000982F92959F7090619A838F708B8323E0DE
:10080000AE014F5F5F4F60E08CE30E94CA030F9020
:100810000F900F90DF91CF910895611164E0609384
:100820008A0680938B06880F880F880F809388062E
:10083000609389060C94F0035F926F927F928F927F
:100840009F92AF92BF92CF92DF92EF92FF920F935F
:100850001F93CF93DF93CDB7DEB728970FB6F894E9
:10086000DEBF0FBECDBF7C0138E0B32E8E010F5F1F
:100870001F4F6E0189E0C80ED11CF70181917F01E5
:1008800090918806882309F45CC08A30B1F39937C7
:10089000A0F790EE980F9A3608F080E2F8019B2DB1
:1008A00011929A95E9F78052990B23E0880F991FCE
:1008B0002A95E1F7D80130E020E084549E4FFC01F6
:1008C000E20FF31FE491ED932F5F3F4F2830310586
:1008D000B1F755245394A12C852C912C880C991C8C
:1008E0003801F30181913F01982F952140E009F0F3
:1008F0004FE090E088219921892B09F0406F60E456
:100900008CE30E942C03C614D70459F7F3E0AF160A
:1009100051F0550C550C609189066F5F6A0D8091FE
:1009200088060E94F003A39484E0A812D5CF80919A
:100930008B068F5F80938B0660918A060E940D0460
:100940009CCF80E8891B0E94B30311E000E860910E
:100950008906610F809188060E94F00380918806C5
:10096000902F981B892F0E94B3031F5F143079F7D3
:1009700028960FB6F894DEBF0FBECDBFDF91CF91A2
:100980001F910F91FF90EF90DF90CF90BF90AF90AD
:100990009F908F907F906F905F900895CF93DF939B
:1009A000EB01682F80E00E940D04CE01DF91CF9112
:1009B0000C941C04CF9360E080E00E940D0480E85A
:1009C0000E94B303C1E0609189066C0F8091880694
:1009D0000E94F00380E80E94B303CF5FC83099F70C
:1009E00060E080E0CF910C940D04CF93DF93C62F8D
:1009F000E82FF0E0EB5AFE4FD0818D2F0E94480384
:100A000090E1C99FB00111248378682B8D2FDF916D
:100A1000CF910C944303CF93C0E1C80F8C2F0E9459
:100A20004803682F6F7B8C2FCF910C9443032F9238
:100A30003F924F925F926F927F928F929F92AF926E
:100A4000BF92CF92DF92EF92FF920F931F93CF93BB
:100A5000DF93CDB7DEB76C970FB6F894DEBF0FBE4D
:100A6000CDBF322E3D87242E5E872B013C01A9820B
:100A7000BF86C88AD98AEA8AFB8A0C8B1D8B988E1E
:100A80008F8A211501EC30070AE140070DE350077A
:100A900005E0600771058105910509F0A0F52F3784
:100AA00010EF31071AEF410712E051076105710598
:100AB0008105910509F008F4B4C12F3F354D41413E
:100AC0005E47634071058105910509F008F48FC008
:100AD00029813F85488959896A897B898C899D89C3
:100AE000A0E0992493940E94522009F08EC011E056
:100AF0001E8B94E0892E912CA12CB12C89869A868C
:100B0000AB86BC862FC0312CB1ECBD872AE1222EEA
:100B1000EDE3EE8735E0432E512C612C712CD8CFBC
:100B2000A32CBD84C22CDE847201830120E034E05A
:100B30004BE654EF64E170E080E090E00E94A61F75
:100B4000122FB32FF42FE52FA7E00E94522021F49B
:100B500016E0B0E0F0E0E0E0CF011987BA879B87AC
:100B6000EC871E8A89849A84AB84BC84A501940195
:100B700060E070E0CB01A32CBD84C22CDE84720146
:100B8000830129833A834B835C836D837E838F83C8
:100B9000988760E070E080E090E00E94F01E29837A
:100BA0003F87488B598B6A8B7B8B8C8B9D8B0E89F7
:100BB000C12CD12C7601C39440E050E0BA01013041
:100BC00009F0A9C0AF89B88D1D921D921D921C928B
:100BD0001397FD01148215821682178281E090E03E
:100BE000A0E0B0E080879187A287B387DEC029812B
:100BF0003F85488959896A897B898C899D89A0E0CC
:100C00000E94522009F48CCF912CA32CBD84C22CBD
:100C1000DE847201830129813F85488959896A8967
:100C20007B898C899D890E94A61F29873A874B87DB
:100C30005C8729853A854B855C8506E0A02EB12C22
:100C4000263031054105510568F089859A85AB85C7
:100C5000BC8589309740A105B105D0F0B8E0AB2E36
:100C600017E0B12EC12CD12CE12CF12C00E010E0CA
:100C700029813F85488959896A897B898C899D8921
:100C80000E94A61F322E3D87242E5E872B013C0139
:100C9000A32CBD84C22CDE847201830129813F858F
:100CA000488959896A897B898C899D890E94A41FFA
:100CB000E0E4AE2EF2E4BF2EAFE0CA2ED12CE12C40
:100CC000F12C00E010E00E94F01EA32CBD84C22C89
:100CD000DE84720183010E94A61FA32FF42FE52F4B
:100CE000422F5A2F6F2F7E2FA0E4CA2EA2E4DA2EB5
:100CF000AFE0EA2EF12C411551056105710521F493
:100D0000C12CD12C7601C394AA24A3949A1409F47B
:100D10006DC001E00E8BCB01BA0117E0660F771FA3
:100D2000881F991F1A95D1F7A70196010E94BD1E31
:100D3000298F3A8F4B8F5C8F89849A84AB84BC84D3
:100D400007E0880C991CAA1CBB1C0A95D1F79501D9
:100D5000840112502109310948015901298D3A8D28
:100D60004B8D5C8D280D391D4A1D5B1DAF89B88DDB
:100D70002D933D934D935C931397FD01648375838D
:100D8000868397831896CD92DD92ED92FC921B9705
:100D90008E88882051F039829D849F86288AAE846F
:100DA000A98A4A8A5B8A6C8A7D8A29813F8548891B
:100DB00059896A897B898C899D896C960FB6F894CC
:100DC000DEBF0FBECDBFDF91CF911F910F91FF907E
:100DD000EF90DF90CF90BF90AF909F908F907F90DB
:100DE0006F905F904F903F902F900895AF89B88D8E
:100DF0001D921D921D921C921397FD011482158263
:100E00001682178281E090E0A0E0B0E080879187B1
:100E1000A287B3873982FD85FF87288A8E84898AD5
:100E2000C0CF29813F85488959896A897B898C8906
:100E30009D89A0E0E0E83E2EF0EFFD87FAEF2F2E2F
:100E400002E00E87412C512C612C712C0E94522003
:100E500009F0DACE18E0B7E07DCE2F923F924F92A4
:100E60005F926F927F928F929F92AF92BF92CF923A
:100E7000DF92EF92FF920F931F93CF93DF93CDB743
:100E8000DEB7A2970FB6F894DEBF0FBECDBF290123
:100E9000B42FA52F69A37AA31C01602E20583A41D4
:100EA0004640510961097109810991092F373A4179
:100EB00046405105610571058105910511F008F065
:100EC0008CC092014B2F5A2F69A17AA1C10107E072
:100ED0000E9413202901B42FA52F69A37AA31C0116
:100EE00067E0762E862D90E08B539A4FFC0180812F
:100EF00081116BC1A090C805B090C905C090CA050A
:100F0000D090CB05E090CC05F090CD050091CE05BA
:100F10001091CF05CE0145964C0192014B2F5A2FCF
:100F200069A17AA1C1010E9417053D882E880F8909
:100F3000598C4A8C1B8DCD8CDE8CEF8CF8A0D9821D
:100F4000CA82862D880F880F880F845D0E9448030F
:100F500003708C7F082B0B832C823D828CE0F694EF
:100F6000E794D794C7948A95D1F7FC2DF07FCF2EC4
:100F70001F70C12ACE824F82588611E0611609F493
:100F800038C182E028E0AE014F5F5F4F681609F478
:100F90003EC16AE280E60E94CA0380E00E940B051F
:100FA000672D80E00E94F504A2960FB6F894DEBF8C
:100FB0000FBECDBFDF91CF911F910F91FF90EF90AA
:100FC000DF90CF90BF90AF909F908F907F906F9069
:100FD0005F904F903F902F90089592014B2F5A2F82
:100FE00069A17AA1C10135534C40510961097109C8
:100FF000810991092F3F34434C405105610571052A
:101000008105910509F090F492014B2F5A2F69A1A7
:101010007AA1C10106E00E9413202901B42FA52F57
:1010200069A37AA31C0156E0752E5CCF92014B2F69
:101030005A2F69A17AA1C1013A5648415109610963
:101040007109810991092F3F3946484151056105D0
:1010500071058105910509F090F492014B2F5A2FEB
:1010600069A17AA1C10105E00E9413202901B42FD2
:10107000A52F69A37AA31C0145E0742E33CF9201FA
:101080004B2F5A2F69A17AA1C101345D4043510908
:1010900061097109810991092F3F334D4043510581
:1010A000610571058105910509F090F492014B2FBE
:1010B0005A2F69A17AA1C10104E00E9413202901DD
:1010C000B42FA52F69A37AA31C0134E0732E0ACF95
:1010D00092014B2F5A2F69A17AA1C101385A41467A
:1010E000510961097109810991092F3F374A414628
:1010F0005105610571058105910509F090F4920192
:101100004B2F5A2F69A17AA1C10103E00E9413203D
:101110002901B42FA52F69A37AA31C0123E0722E05
:10112000E1CE92014B2F5A2F69A17AA1C10130550E
:10113000434C510961097109810991092F3F3F44CD
:10114000434C5105610571058105910509F090F445
:1011500092014B2F5A2F69A17AA1C10102E00E948E
:1011600013202901B42FA52F69A37AA31C0192E0B3
:10117000792EB8CE92014B2F5A2F69A17AA1C101C5
:10118000305A464851406109710981099109712C11
:101190002F3F3F4946485140610571058105910542
:1011A00011F008F09FCE92014B2F5A2F69A17AA11E
:1011B000C10101E00E9413202901B42FA52F69A3CA
:1011C0007AA31C01772473948DCEA090D005B090A3
:1011D000D105C090D205D090D305E090D405F09011
:1011E000D5050091D6051091D705FE0175964F01E2
:1011F00094CE28E0AE014F5F5F4F62E380E60E942D
:10120000CA0381E00E940B05672D81E0CBCE6AE323
:1012100080E60E94CA0382E00E940B05672D82E0EF
:10122000C1CE24E0280FE42F31E0380F9FB3937034
:10123000E9F790E092BD81BDE0BDFA9AF99A452F99
:10124000562F672F7727832F2313EDCF08952F92E3
:101250003F924F925F926F927F928F929F92AF9246
:10126000BF92CF92DF92EF92FF920F931F93CF9393
:10127000DF93CDB7DEB7AA970FB6F894DEBF0FBEE7
:10128000CDBF0D871D8B298F3A8F4B8F5C8F6F8F52
:101290007BA3FE8EED8E8111C4C1E091D80524E0C0
:1012A000E29FF0011124EB53FA4F65897689878913
:1012B000908D24E630E040E050E00E94481F522E1E
:1012C000632E742E852E962E7A8B898B492E86015D
:1012D0007501110FEE08FE2C87019501A6016E2DF8
:1012E0007E2D8E2D9E2D0FE10E941320A12CEAEC65
:1012F000BE2EFAE9CF2EABE3DA2EE12CF12C00E082
:1013000010E00E94751FA52CB62CC72CD82CE92CF8
:10131000FA880989142D0E94F01E0FE10E942E20E8
:1013200029833A834B835C836D837E838F83988785
:1013300089819A81AB81BC81BB0F880B982FDC011E
:1013400089879A87AB87BC87252D362D472D582D49
:10135000692D7F2D8989942DA980BA80CB80DC806E
:10136000E984FE2C0E2D1E2D0E94492029833987E9
:10137000498B5A8B6B8B7C8B1C016D847D88898C8F
:101380009A8C9C8D9D8B4F8C5BA09301A4016B8DDF
:10139000792FC201211534404B46544F64417105E9
:1013A0008105910569F060F0612C24E0722E3BE626
:1013B000832E44EF942EB4E1BB8F1D8A412C512C17
:1013C000EB8DEF8F9301A4016E2F7D89C201211552
:1013D00038454744584F6D4071058105910560F4CB
:1013E000612C08E5702E87E4882E98EF992E2DE069
:1013F0002F8F1D8A412C512CA980B984C988DA8885
:10140000EB88FC8881019301A4016F8D7D89C20165
:101410000E94A61F298F3A8F4B8F5C8F2D873E87A6
:101420004F87588B8D859E85AF85B8891FE0A12E8B
:101430000F97A105B10558F02D853E854F85588938
:101440002B35310541055105B8F0BAE5AB2EB12C6D
:10145000C12CD12CE12CF12C00E010E02981398540
:1014600049895A896B897C89C1010E94F01E390122
:101470004A016F8F7D8B2C01A980B984C988DA88D5
:10148000EB88FC8881019301A4016F8D7D89C201E5
:101490000E94A41FE0E4AE2EF2E4BF2EAFE0CA2EFD
:1014A000D12CE12CF12C00E010E00E94F01EA9806C
:1014B000B984C988DA88EB88FC8881010E94A61F5C
:1014C00049014CA35BA3C901DA0121E030E040E00F
:1014D00050E00097A105B10521F020E432E44FE08F
:1014E00050E02D8B3E8B4F8B588FBC01CD0127E0F8
:1014F000660F771F881F991F2A95D1F72D893E897E
:101500004F89588D0E94BD1E29013A016F8F78A323
:1015100089A39AA3A980B984C988DA88EB88FC8852
:10152000810194014CA15BA160E070E080E090E05B
:101530000E94F01E2BA33CA34DA35EA36FA378A72C
:1015400089A79AA78D859E85AF85B88937E0880FD2
:10155000991FAA1FBB1F3A95D1F79250A109B10953
:10156000840D951DA61DB71DED8DFE8D8083918385
:10157000A283B3832F8D38A149A15AA12483358337
:10158000468357832D893E894F89588D208731871F
:1015900042875387298D3A8D4B8D5C8D60E070E0DA
:1015A00080E090E00E94F01E29013A014B018987FA
:1015B00099838D899E89AF89B88D5C016D01E12C7D
:1015C000F12C00E010E02BA13CA14DA15EA16FA188
:1015D00078A589A59AA50E94A61F59016A017B01D9
:1015E0008C019201A301B401898599810E9449204F
:1015F000AA960FB6F894DEBF0FBECDBFDF91CF9194
:101600001F910F91FF90EF90DF90CF90BF90AF9020
:101610009F908F907F906F905F904F903F902F9012
:101620000895E091D90534E0E39FF00111243BCE09
:101630002F923F924F925F926F927F928F929F92E2
:10164000AF92BF92CF92DF92EF92FF920F931F93D0
:10165000CF93DF93CDB7DEB7A1970FB6F894DEBF77
:101660000FBECDBF19012A013B014C0109A3011195
:1016700067C0E091D80584E0E89FF0011124EB53A6
:10168000FA4FA58CB68CC78CD0A0CE0145967C01B4
:1016900089019A01AB01B40180E00E9427098D8D78
:1016A0009E8DAF8DB8A199838A833D894E892F89FC
:1016B00023702B834C833D832CE0B695A79597959B
:1016C00087952A95D1F7807F298D3A8D9B8D9F70C4
:1016D000892B8E833F83288799A128E0AE014F5F35
:1016E0005F4F911142C06AE180E60E94CA032092D6
:1016F000C8053092C9054092CA055092CB05609248
:10170000CC057092CD058092CE059092CF05A19622
:101710000FB6F894DEBF0FBECDBFDF91CF911F9102
:101720000F91FF90EF90DF90CF90BF90AF909F9080
:101730008F907F906F905F904F903F902F90089583
:10174000E091D90594E0E99FF0011124EB53FA4FA1
:10175000A58CB68CC78CD0A0CE0145967C018901A2
:101760009A01AB01B40181E098CF62E280E60E9469
:10177000CA032092D0053092D1054092D2055092F2
:10178000D3056092D4057092D5058092D6059092CB
:10179000D705BDCF0F93CF93DF93C5ECD5E06D8F09
:1017A0007E8F8F8F98A32B813C814D815E816F81CD
:1017B000788500E089859A850E94180B2B853C85E9
:1017C0004D855E856F85788901E089899A890E94B7
:1017D000180BDF91CF910F910895CF93DF93D62F00
:1017E000C0E1C80F8C2F0E9448038C7F682F6D2B9F
:1017F0008C2FDF91CF910C944303E3E0E80F60E07E
:1018000070E0CB0120E04E2F421B3FB33370E9F76D
:1018100050E052BD41BDF89A30B5632B233021F022
:10182000982F872F762F66272F5F243061F7089532
:10183000AF92BF92CF92DF92EF92FF920F931F93DE
:10184000CF93DF936C017B018B01040F151FEB011C
:101850005E01AE18BF08C017D10759F06991D601D3
:10186000ED91FC910190F081E02DC6010995892B45
:1018700079F7C501DF91CF911F910F91FF90EF9004
:10188000DF90CF90BF90AF900895FC01538D448DB1
:10189000252F30E0842F90E0821B930B541710F01B
:1018A000CF96089501970895FC01918D828D981728
:1018B00061F0A28DAE0FBF2FB11D5D968C91928D00
:1018C0009F5F9F73928F90E008958FEF9FEF089531
:1018D000FC01918D828D981731F0828DE80FF11DFA
:1018E000858D90E008958FEF9FEF0895FC01918D15
:1018F000228D892F90E0805C9F4F821B91098F730E
:1019000099270895FC01A48DA80FB92FB11DA35AE2
:10191000BF4F2C91848D90E001968F739927848F0F
:10192000A689B7892C93A089B1898C918370806432
:101930008C93938D848D981306C00288F389E02DD3
:1019400080818F7D80830895EF92FF920F931F9384
:10195000CF93DF93EC0181E0888F9B8D8C8D981362
:101960001AC0E889F989808185FF15C09FB7F8946E
:10197000EE89FF896083E889F989808183708064BA
:1019800080839FBF81E090E0DF91CF911F910F9105
:10199000FF90EF900895F62E0B8D10E00F5F1F4F14
:1019A0000F731127E02E8C8D8E110CC00FB607FC23
:1019B000FACFE889F989808185FFF5CFCE010E94B1
:1019C000820CF1CFEB8DEC0FFD2FF11DE35AFF4F91
:1019D000F0829FB7F8940B8FEA89FB89808180623F
:1019E000CFCFCF93DF93EC01888D8823B9F0AA89FC
:1019F000BB89E889F9898C9185FD03C0808186FDCA
:101A00000DC00FB607FCF7CF8C9185FFF2CF808118
:101A100085FFEDCFCE010E94820CE9CFDF91CF91FF
:101A20000895833081F028F4813099F08230A9F054
:101A300008958730A9F08830C9F08430B1F48091DE
:101A400080008F7D03C0809180008F77809380001D
:101A5000089584B58F7784BD089584B58F7DFBCFBD
:101A60008091B0008F778093B00008958091B0008E
:101A70008F7DF9CFCF93DF93282F30E0F901E85520
:101A8000FE4F8491F901EC56FE4FD491F901E058D4
:101A9000FE4FC491CC23A1F081110E94110DEC2FB7
:101AA000F0E0EE0FFF1FEA58FE4FA591B491EC91C4
:101AB000ED2381E090E009F480E0DF91CF9108957B
:101AC00080E090E0FACF1F93CF93DF93282F30E090
:101AD000F901E855FE4F8491F901EC56FE4FD4917F
:101AE000F901E058FE4FC491CC23A9F0162F8111C3
:101AF0000E94110DEC2FF0E0EE0FFF1FE459FE4F96
:101B0000A591B4918FB7F894EC91111108C0D095BC
:101B1000DE23DC938FBFDF91CF911F910895DE2BE1
:101B2000F8CFCF93DF9390E0FC01EC56FE4F249169
:101B300080589E4FFC0184918823C9F090E0880F63
:101B4000991FFC01EE59FE4FA591B491FC01E45997
:101B5000FE4FC591D49161110DC09FB7F8948C913F
:101B6000209582238C938881282328839FBFDF912F
:101B7000CF910895623051F49FB7F8943C91822F31
:101B8000809583238C93E8812E2BEFCF8FB7F89429
:101B9000EC912E2B2C938FBFEACF81E08093C4056C
:101BA00061E085E00E94630D60E088E00E94630DC3
:101BB00060E081E00E94730361E080E00C947303B5
:101BC0008091B3059091B405A091B505B091B6058B
:101BD0008093A2059093A305A093A405B093A505B7
:101BE00080910701811108C081E0809307014FEACD
:101BF00060E08CE30C942C030895DC01CB0110927F
:101C0000060110920001AB01BD014158504F6A4FCF
:101C100072404F3F58406D437105D8F521E0209345
:101C20000601803F24E1920727EDA207B10509F4E0
:101C3000C1C008F03FC1803D20EF92072BE6A2070C
:101C4000B10509F425C108F0DCC0803529E7920709
:101C500026E3A207B10509F403C108F0ADC080383E
:101C600023E192072CE1A207B10509F411C108F0A4
:101C700093C0803E23E092072CE1A207B10509F44E
:101C800099C0803B9B40AC41B10509F4E9C080E0BC
:101C90000895AC01BD0141505F436B4A71404F391B
:101CA000504F6941710510F422E0B9CFAC01BD017C
:101CB00041595A4C6B4771404F3956486140710544
:101CC00010F423E0ACCFAC01BD0141545F46604449
:101CD00071404F3C5D4D6640710510F424E09FCF8C
:101CE000AC01BD01415F594B634171404F395648CA
:101CF0006140710510F425E092CFAC01BD0141585F
:101D00005F49654D71094F3257456540710510F4C3
:101D100026E085CFAC01BD0141525D416A497109A0
:101D20004F34534C6105710510F427E078CFAC01B6
:101D3000BD01415C5F4C6A4671094F3D53496440A7
:101D4000710510F428E06BCFAC01BD0141525F4D2D
:101D5000604571094F335D406340710510F429E01F
:101D60005ECFAC01BD01415E5746654371094F31FD
:101D7000514A6740710510F42AE051CFAC01BD0112
:101D8000415457476B4171094F335D4063407105C2
:101D900008F047CF2BE043CF80352BE192072CE1B1
:101DA000A207B10509F44AC0883D9347A643B1058F
:101DB00009F06DCF84E043C0803928E9920726E31B
:101DC000A207B105D9F180F4883025E8920726E30F
:101DD000A207B10509F45CC0883D9C48A643B10543
:101DE00009F055CF82E02BC0883826E692072BE613
:101DF000A207B105F9F28C349948AB46B10591F3CD
:101E000046CF8C3424EB92072AE9A207B10591F260
:101E100048F5803522E992072AE9A207B10571F059
:101E200090F4803A28EF92072BE6A207B105C1F0A3
:101E300080379105AC46B10509F029CF83E0809346
:101E4000000181E00895803C29EA92072AE9A2076F
:101E5000B105F1F08039914BAA49B10509F017CFCE
:101E600085E0EDCF803628EC920726EDA207B1057C
:101E7000B9F390F4803629EB92072AE9A207B1055D
:101E800009F4B0CF8039904CA64DB10509F0FFCED2
:101E900081E0809300010895803320ED920726EDC4
:101EA000A207B10559F28115984DA64DB10509F467
:101EB00099CFEDCE883D2BE392072CE7A20721E0D6
:101EC000B20709F48FCF08F05CC0803228E992078E
:101ED00021E4A20721E0B20719F248F5803C2EE385
:101EE000920724E1A20721E0B20709F47BCF78F43E
:101EF00080322FE2920724E1A20721E0B20741F2EB
:101F0000803F9643A441B14009F4AACFC0CE8831A6
:101F100021E4920724E1A20721E0B20709F44ACFA5
:101F200080359049A144B14009F4B2CFB0CE80329F
:101F300022E9920722E4A20721E0B20709F452CF76
:101F400080F4803F2FE9920721E4A20721E0B20745
:101F500009F474CF883C904EA144B14009F42ACFD3
:101F600096CE88332CE292072CE7A20721E0B20735
:101F700009F48ECF88309443AC47B14009F470CF58
:101F800086CE883B25E292072DEAA20721E0B20720
:101F900009F410CF50F5803120E692072CEAA20711
:101FA00021E0B20709F474CF80F4803927E4920766
:101FB0002CE7A20721E0B20709F440CF883B914506
:101FC000AC47B14009F4F6CE62CE803E27E69207D8
:101FD0002CEAA20721E0B20709F442CF803B9F46DA
:101FE000AC4AB14009F42ACF52CE80372BEA92078F
:101FF0002FEFA20722E0B20709F432CF80F480323B
:102000002EEF92072DEAA20721E0B20709F4EACEEB
:1020100088309946AF4FB24009F4CCCE38CE8832E2
:1020200027EB92072FEFA20722E0B20709F430CF87
:10203000803B9A4CAF4FB24009F4D4CE28CE0E94D8
:10204000DA046AE671E080E00C94CE04CF92DF926D
:10205000EF92FF92C090B305D090B405E090B50523
:10206000F090B605B0E0A0E04091B3055091B40502
:102070006091B5057091B6054C195D096E097F092F
:10208000481759076A077B0730F424E230E02150F3
:10209000310951F3FCCFFF90EF90DF90CF9008957E
:1020A0000E94DA0466E771E080E00E94CE046EE7E9
:1020B00071E081E00E94CE0480ED97E00E9426103E
:1020C0000C94DA04E0E0DC01AE0FB11DEF5F2C915F
:1020D0002111F9CF6C93E80FF92FF11D10820895AB
:1020E000FC019081DB018C91981305C081E0218176
:1020F00011969C91291380E008958BEE95E00E9443
:10210000760C892BD1F38BEE95E00E94540C8B3327
:10211000A1F708958BEE95E00E94760C892BD1F300
:102120008BEE95E00E94540C0895FC010190002074
:10213000E9F73197AF01481B590BBC018BEE95E0D5
:102140000C94180C8F929F92AF92BF920F931F9393
:10215000CF93DF93CDB7DEB7A1970FB6F894DEBF6C
:102160000FBECDBF19A2423008F44AE08E010F5DC8
:102170001F4F842E912CB12CA12CA50194010E94FB
:10218000BD1EE62FB901CA01EA30F4F4E05DD801C2
:10219000EE938D01232B242B252B79F790E080E003
:1021A000109719F0CD010E949510A1960FB6F894E2
:1021B000DEBF0FBECDBFDF91CF911F910F91BF90BA
:1021C000AF909F908F900895E95CE1CF0C949510AB
:1021D000CF93C82F8D7F8130A1F48CE891E00E94CD
:1021E000E61086E791E00E94E6108AE891E00E94FE
:1021F000E6108EE791E00E94E61083EF93E00E94E4
:10220000E610C250C23018F4CF910C945010CF9108
:102210000895CF93DF93D0E0C0E0009719F00E94BB
:102220009510EC018CEF91E00E9495108C0F9D1F92
:10223000DF91CF910895CF93DF93EC010E94DA04F0
:102240006FE871E080E00E94CE04BE0181E00E9450
:10225000CE048BE991E00E94E610CE01DF91CF9190
:102260000C9409111092C40560E080E00E94730391
:1022700061E081E00E94730360E085E00E94630DED
:1022800061E088E00C94630D8091A6059091A7050C
:10229000A091A805B091A905803826E9920728E900
:1022A000A207B10578F083E492E00E94E610609105
:1022B000A6057091A7058091A8059091A9054AE00F
:1022C0000C94A21080349244AF40B10518F082E41F
:1022D00092E0EBCF81E492E0E8CF88EA91E00E94BF
:1022E000E6106091020170910301809104019091C8
:1022F00005014AE00E94A21083EF93E00C94E610DF
:102300004F925F926F927F928F929F92AF92BF9205
:10231000CF92DF92EF92FF920F931F93CF93DF93B1
:10232000CDB7DEB72F970FB6F894DEBF0FBECDBF87
:102330002B013C010E94FD0D811120C061E085E070
:102340000E94630D84E690E00E94261060E085E024
:102350000E94630D84E690E00E94261061E085E013
:102360000E94630D84E690E00E94261060E085E004
:102370000E94630D84E690E00E942610A4E6B0E07F
:10238000A30192010E94E51E01E09B01AC0160E007
:1023900070E080E090E00E942D074092A6055092E8
:1023A000A7056092A8057092A90560919D0570919E
:1023B0009E0580919F059091A0058E010F5F1F4F94
:1023C00021E044E00E94361BE0910001F0E0EE0FB6
:1023D000FF1FEF5CFE4FA081B18186EB91E0E091A1
:1023E0000601F0E0EE0FFF1FE35CFE4F208131811C
:1023F000AD014C5F5F4F6D91FC016193CF01F9011D
:1024000061919F01FC016483F80161918F01FC01DE
:102410006287A417B50779F786E58093C5010E9406
:10242000DA0466EB71E080E00E94CE046091A605BC
:102430007091A7058091A8059091A9052FE0E8E08B
:10244000F1E0DE01119601900D922A95E1F719E075
:102450000CE23AE0832E912CA12CB12C6115710570
:102460008105910529F1E12FF0E02FEF210F312FA8
:102470003B7F323041F441E050E04C0F5D1FE40FF0
:10248000F51F0083122FEE24E394F12CEC0EFD1EB9
:10249000E10EF11CA50194010E94BD1E69537E4FFF
:1024A000FB018081F7018083B901CA011150D6CFA9
:1024B00061E080E00E940D04CE0101960E941C04A0
:1024C0002F960FB6F894DEBF0FBECDBFDF91CF9130
:1024D0001F910F91FF90EF90DF90CF90BF90AF9042
:1024E0009F908F907F906F905F904F900895809114
:1024F000010120E4829FC0011124866080937C004A
:1025000080917A00806480937A0080917A0086FDC1
:10251000FCCF8091780060917900762F682F90E051
:1025200080E00E94C21D2AE939E941E651E40E9497
:10253000FF1D20E030E040E85AE30E94FF1D609359
:102540009D0570939E0580939F059093A0050E9422
:10255000E00D6091A6057091A7058091A805909166
:10256000A9050C948011CF93C82F0E94DA04CC23C4
:1025700049F182ED91E00E941C040E948B038DEDD5
:1025800091E00E94E6108CEE91E00E94E6108AE055
:102590000E94FD0B6093020170930301809304017C
:1025A0009093050184E10E94FD0B0E9480110E941E
:1025B0006D110E94321180ED97E00E942610CF919C
:1025C0000C9477128FEF91E00E941C040E948B0301
:1025D0008DE092E00E94E61080E09AEFA0E0B0E08B
:1025E0008093020190930301A0930401B09305012D
:1025F00060E970EC86ED90E00E9480118FE192E03E
:102600000E94E61040910201509103016091040183
:10261000709105018AE00E9411094091A605509130
:10262000A7056091A8057091A90584E10E94110990
:10263000BECF8F929F92AF92BF92CF92DF92EF92D6
:10264000FF920F931F93CF93DF93CDB7DEB76797BA
:102650000FB6F894DEBF0FBECDBF8BEE95E00E94A3
:10266000760C892B69F180911C0590911D05A09134
:102670001E058D8B9E8BAF8B1A821982FE013396BD
:1026800082E1DF011D928A95E9F7F12CE12C8BEEB6
:1026900095E00E94760C892B61F08BEE95E00E940C
:1026A000540C182F8FEB810F8A33E8F0C7017C019F
:1026B000EECFC7010196B1E0EB16B4E0FB06B8F32C
:1026C00067960FB6F894DEBF0FBECDBFDF91CF91F6
:1026D0001F910F91FF90EF90DF90CF90BF90AF9040
:1026E0009F908F9008951A3759F31D8B0E948A107E
:1026F0008E8B9FE9910F9A3110F410521D8B9FE938
:10270000980F9A3110F480528E8B64E372E0CE0100
:1027100045960E9470108823D9F00E947D1084E3B2
:1027200092E00E94E6100E94441187E392E00E942A
:10273000E6108091C40561E3811101C060E38BEE76
:1027400095E00E94A40C87E492E00E94E6105AC033
:1027500061E572E0CE0145960E947010882329F051
:102760000E947D1084E592E0F0CF6BE572E0CE012F
:1027700045960E947010882309F45BC00E948A105D
:1027800090ED980F9A3008F04BC0682FCE0101965B
:102790000E9462101AE00E948A10682FCE010196F2
:1027A0000E9462101150B9F7FE013C968E010C5F39
:1027B0001F4FC12CD12C7601812C912C5401839474
:1027C000A291A053B0E0A50194010E94E51EC60E9F
:1027D000D71EE81EF91EAAE0B0E00E94E51E4B01DC
:1027E0005C010E171F0761F7C092A605D092A705DE
:1027F000E092A805F092A905C701B6010E94FD0D5F
:102800000E947D1064E872E0CE0145960E9470102F
:10281000882309F46CC087E892E00E94E61050CF4C
:102820008BE592E00E94E6100E9444118FE492E052
:102830008CCF6EE572E0CE0145960E947010882321
:1028400041F00E948A1080538A30D0F281E692E0F3
:102850007CCF66E672E0CE0145960E947010882318
:1028600041F00E948A1080538A3050F289E692E04B
:102870006CCF6EE672E0CE0145960E947010882300
:1028800049F00E948A1080538A3008F4B9CF81E75A
:1028900092E05BCF66E772E0CE0145960E94701031
:1028A000882349F00E948A1080538A3008F4A8CF08
:1028B00089E792E04ACF6EE772E0CE0145960E942A
:1028C0007010882331F00E947D1081E08093C40550
:1028D00099CF61E872E0CE0145960E94701088237E
:1028E00009F490CF0E947D101092C4058BCF67EF42
:1028F00073E0CE0145960E94701081118CCF6AEF73
:1029000073E0CE0145960E9470108823C1F081E0EB
:1029100090919C05911180E080939C058DEF93E050
:102920000E94E61060919C0570E090E080E04AE033
:102930000E94A21086EF93E00E940911C1CE64E0CC
:1029400074E0CE0145960E9470108823B9F181E0B1
:102950000E94E81087E094E00E94E610E0910601F2
:10296000F0E0EE0FFF1FE35CFE4F808191810E943B
:10297000091181E194E00E94E6106091A605709132
:10298000A7058091A8059091A9054AE00E94A21090
:102990008CEF91E00E94E6108BE194E00E94E6103B
:1029A000E0910001F0E0EE0FFF1FEF5CFE4F808131
:1029B00091810E9409110E946D1182CE65E274E03E
:1029C000CE0145960E947010882321F080E00E947D
:1029D000B31276CE68E274E0CE0145960E94701084
:1029E000882311F081E0F3CF6BE274E0CE014596CD
:1029F0000E947010882309F463CE0E94E00D8EE2DD
:102A000094E00E94E6100E94DA048FED94E00E94A8
:102A10001C040E94321102E020E031EE45EF55E047
:102A200060E070E080E090E00E942D0782E10E946B
:102A30004803682F6F7782E10E94430361E082E0E0
:102A40000E9473030E948A10F82E10E0E12CD12C12
:102A5000CC24C3942EE2F21609F490C02F156CF02A
:102A60008BE2F816C9F0ADE2FA1629F0E11015C0B4
:102A700000E0112379F010E027C0BDE3FB1609F454
:102A8000BCC02CE5F21619F08FE2F812EFCFC12C82
:102A900001E010E0E12C50C010E080910201909123
:102AA0000301A0910401B09105010A97A109B109A0
:102AB0008093020190930301A0930401B093050158
:102AC000EE24E3941123A9F0809102019091030177
:102AD000A0910401B09105010A96A11DB11D80933A
:102AE000020190930301A0930401B0930501E12E2C
:102AF00011E06091020170910301809104019091B5
:102B000005010E94CA0B8FE591E0019709F0FDCF06
:102B100002E020E031EE45EF55E060E070E080E05B
:102B200090E00E942D07D11023C06F2D8BEE95E011
:102B30000E94A40CD39400E0B12CA12C8BEE95E064
:102B40000E94760C892BF1F08BEE95E00E94540CDC
:102B5000982F8B32F9F08D32E9F08F32D9F08C3525
:102B6000C9F08D33B9F08E32A9F0C5015C01E6CF12
:102B7000A4E6DA12DFCF00E0D12CDECF10E0E12CAA
:102B800001E0DACFC5010196B1E0AB16B4E0BB06B7
:102B900068F39F2D011102C0F92E5CCF60E082E046
:102BA0000E94730382E10E944803682F606882E1FB
:102BB0000E94430380EF94E00E94E6100E946D1192
:102BC0006FE075E080E00E94CE04CC2079F08FE1C8
:102BD00092E00E94E6104091020150910301609141
:102BE0000401709105018AE00E94110980ED97E0CF
:102BF0000E9426100E94771263CD00E04ACF1F92F8
:102C00000F920FB60F9211242F933F934F935F9320
:102C10006F937F938F939F93AF93BF93EF93FF93A4
:102C20008BEE95E00E94820CFF91EF91BF91AF91E6
:102C30009F918F917F916F915F914F913F912F91D4
:102C40000F900FBE0F901F9018951F920F920FB606
:102C50000F9211242F938F939F93EF93FF93E09103
:102C6000FB05F091FC058081E0910106F0910206E0
:102C700082FD1BC09081809104068F5F8F7320912D
:102C80000506821741F0E0910406F0E0E551FA4FA5
:102C9000958F80930406FF91EF919F918F912F91D3
:102CA0000F900FBE0F901F9018958081F4CF1F9248
:102CB0000F920FB60F9211242F933F938F939F93F0
:102CC000AF93BF938091C0059091C105A091C205BB
:102CD000B091C3053091BF0523E0230F2D3758F580
:102CE0000196A11DB11D2093BF058093C00590934F
:102CF000C105A093C205B093C3058091BB05909117
:102D0000BC05A091BD05B091BE050196A11DB11DE8
:102D10008093BB059093BC05A093BD05B093BE0501
:102D2000BF91AF919F918F913F912F910F900FBEC7
:102D30000F901F90189526E8230F0296A11DB11D34
:102D4000D2CF1F920F920FB60F9211248F939F93A1
:102D50008091AE05811114C080918600909187000A
:102D60009093AD058093AC0581E08093AE05109201
:102D7000B8059F918F910F900FBE0F901F901895DF
:102D80008091AC059091AD059093AB058093AA0519
:102D900080918600909187009093AD058093AC055B
:102DA00081E08093B805E5CF1F920F920FB60F9286
:102DB00011248F939F93AF93BF938091B30590910C
:102DC000B405A091B505B091B6050196A11DB11D40
:102DD0008093B3059093B405A093B505B093B60561
:102DE0008091B9059091BA0501969093BA058093A8
:102DF000B905BF91AF919F918F910F900FBE0F902A
:102E00001F901895EBEEF5E01382128288EE93E0A6
:102E1000A0E0B0E084839583A683B7838CE591E03E
:102E20009183808385EC90E09587848784EC90E0A3
:102E30009787868780EC90E0918B808B81EC90E087
:102E4000938B828B82EC90E0958B848B86EC90E068
:102E5000978B868B118E128E138E148EE8E8F6E017
:102E600081E08483158216828AE0EFE8F6E0DF01D4
:102E7000982F1D929A95E9F7E9E9F6E0DF011D9296
:102E80008A95E9F789E1E8E1F1E0A3EAB6E001908B
:102E90000D928A95E1F70895789484B5826084BD97
:102EA00084B5816084BD85B5826085BD85B581604E
:102EB00085BD80916E00816080936E0010928100CC
:102EC0008091810082608093810080918100816087
:102ED0008093810080918000816080938000809148
:102EE000B10084608093B1008091B00081608093D4
:102EF000B00080917A00846080937A0080917A009B
:102F0000826080937A0080917A00816080937A0059
:102F100080917A00806880937A001092C10061E00D
:102F200085E00E94910D61E088E00E94910D61E0D2
:102F300081E00E94910D60E087E00E94910D60E0C9
:102F400084E10E94910D62E082E00E94910D62E0B6
:102F500089E00E94910D62E083E00E94910D62E0A1
:102F60008AE00E94910D62E080E00E94910D62E093
:102F700084E00E94910D82E084BD99EF97BD93E0BB
:102F800095BD80936E001092800081E8809381004F
:102F900080B7846080BF80E286BB80936F0090938F
:102FA0000101449A459A8091B9008E7F8093B900BF
:102FB0008091B9008D7F8093B9008CE08093B80038
:102FC00084E48093BC0080E498E7ADE7B1E08093AF
:102FD000DA059093DB05A093DC05B093DD05109234
:102FE000D8051092D9051092EA0562E987EB0E9494
:102FF000430360E088E10E9443036FEF89E00E9491
:10300000430360E880E10E94430360E881E10E949D
:10301000430360E882E10E9443036CE080E10E9488
:1030200043036CE081E10E9443036CE082E10E9473
:1030300043036FEF83E00E94430300E020E030E2AF
:103040004FE550EA62E170E080E090E00E94180BEA
:1030500001E020E030E24FE550EA62E170E080E01C
:1030600090E00E94180B05EC15E0C0E1F801119208
:103070008F018C2F0E944803682F6F7D8C2F0E9438
:103080004303F80131971082CF5FC33179F760E0D5
:1030900082EA0E94430360E083EA0E94430360E007
:1030A00084EA0E94430360E281EB0E94430360E8EC
:1030B00081EB0E94430300E020E030E24FE550EA5C
:1030C00062E170E080E090E00E94180B0E943211F3
:1030D00060E082E00E94730363E080E00E94ED0BF9
:1030E00060E081E00E94ED0B60E082E00E94ED0B69
:1030F00029E143EA56E060E08CE30E94CA038DE2D6
:1031000091E0019709F0FDCF0E94DA0481E08093FD
:1031100007014FEA60E08CE30E942C0384E00E94E8
:103120003A0D892B09F070C080E00E94B31283E051
:103130000E94E810609102017091030180910401E6
:10314000909105010E94CA0B2091A6053091A70518
:103150004091A8055091A905A4E6B0E00E94E51EA3
:10316000DC0101E09B01AD0160E070E080E090E0F7
:103170000E942D070E9477121092BA051092B9058D
:10318000812C30E1932E3EE5A32E3FE5B32E222481
:10319000239442E0342E0E94191384E00E943A0DD9
:1031A000892B09F02AC2C090B305D090B405E090F5
:1031B000B505F090B6050E94E00D11E0260137013B
:1031C000F4EF4F0EF1E05F1E611C711C84E00E9461
:1031D0003A0D892BD9F4123009F436C28091B30527
:1031E0009091B405A091B505B091B60511E04816CF
:1031F00059066A067B0608F412E082E390E00E941A
:1032000026100E941913E2CF81E08FCF113009F010
:103210001BC20E9477128091B805882309F45CC014
:103220001092B805E090AC05F090AD058091AA052C
:103230009091AB05E81AF90A8091B3059091B40515
:10324000A091B505B091B6058093AF059093B005F8
:10325000A093B105B093B205E114FAEFFF06E0F5D3
:103260008091B705811104C00E94CD0D2092B70551
:103270002091A6053091A7054091A8055091A90578
:10328000A4E6B0E00E94E51E2B013C01970150E04E
:1032900040E0C501B4010E94BD1ED301C201820FEE
:1032A000931FA41FB51F00E09C01AD0160E070E01A
:1032B00080E090E00E942D078091B3059091B405C5
:1032C000A091B505B091B6058093AF059093B00578
:1032D000A093B105B093B2058091B7058823F1F0B2
:1032E0008091B3059091B405A091B505B091B60554
:1032F0004091AF055091B0056091B1057091B20554
:10330000841B950BA60BB70B4097A105B10530F0B8
:103310001092B7051092AE050E9432118091B90546
:103320009091BA05813D974008F435CF8091C4054E
:10333000813061F061E085E00E94630D84E690E0F9
:103340000E94261060E085E00E94630D1092BA058D
:103350001092B90520CF133009F454C010E084E076
:103360000E943A0D892B09F09EC0C090B305D09001
:10337000B405E090B505F090B6050E94E00D11E0AF
:1033800024EFC20E21E0D21EE11CF11C84E00E9459
:103390003A0D892B09F049C0123009F449C08091D7
:1033A000B3059091B405A091B505B091B60511E0B3
:1033B000C816D906EA06FB0608F412E082E390E09C
:1033C0000E9426100E941913E1CF8091B3059091BD
:1033D000B405A091B505B091B60512E0C816D9069E
:1033E000EA06FB0608F413E082E390E00E94261050
:1033F0000E94191384E00E943A0D892B09F0ABCF8B
:10340000133019F70E94501084E00E943A0D892B66
:1034100039F482E390E00E9426100E941913F4CF41
:1034200082E390E00E942610F4CE123009F036C0FC
:103430001092A1050E94E00D82E00E943A0D10E07A
:10344000892B09F018E089E00E943A0D892B09F0D8
:10345000146083E00E943A0D892B09F012608AE023
:103460000E943A0D892B09F01160EFEFE10FEF3068
:1034700008F03DC0F0E0E15CF54E0C94DF1E5C1AF4
:103480005C1A5C1A771A711A6F1A5B1A771A7A1A11
:10349000301B321B771A341B7C1A731A0E9450108F
:1034A0000E94771211E00E94E00D0E941913113062
:1034B00009F055CFB0CE16E08091A105813009F416
:1034C00074C0D8F0823009F475C088EB9BE00E948C
:1034D00026100E94DA040E941F1012E0E4CF15E0CB
:1034E000EBCF14E0E9CF2092A10510E0E5CF3092B8
:1034F000A105FBCF17E0E0CF1BE080910601181378
:103500002BC00E94CD0D6FE175E081E00E94CE04DA
:103510002091A6053091A7054091A8055091A905D5
:10352000A4E6B0E00E94E51EDC0100E09B01AD01D5
:1035300060E070E080E090E00E942D070E94E00DC6
:1035400084E00E943A0D892BC1F582E390E00E944D
:1035500026100E941913F4CFE12FF0E0EE0FFF1FA9
:10356000E35CFE4F808191810E941B1184E295E013
:103570000E941C04E0910601F0E0EE0FFF1FE35CE7
:10358000FE4F808191810E941C0489E295E00E9497
:10359000E610E0910601F0E0EE0FFF1FE35CFE4F46
:1035A000808191810E94091190CF81E395E00E9472
:1035B0001B118BCF89E395E0FACF82E390E00E9464
:1035C00026100E94321164E080E00E940D0480E821
:1035D0000E94B30311E060918906610F8091880613
:1035E0000E94F00380E80E94B3031F5F143099F734
:1035F00064E080E00E940D0470CF8091070181306B
:1036000009F009CE8091B3059091B405A091B5055C
:10361000B091B6054091A2055091A3056091A40513
:103620007091A505841B950BA60BB70B81339547AD
:10363000A105B10508F4EFCD109207014EEA60E054
:103640008CE30E942C03E7CD0E941F100E94E00D26
:1036500012E080EBC80E84E0D81EE11CF11CCACE3B
:1036600018E02ACF19E028CF1AE026CFEF920F9367
:103670001F93CF93DF93E80134E047FD34E1042E3C
:10368000000C550B57FF03C0519541955109E32E8E
:10369000022F242FAE010E94541BCE01DF91CF9147
:1036A0001F910F91EF900895A9E0B0E0EAE5FBE1EA
:1036B0000C94911D6A01F22EB02E102FFBE3AF2E59
:1036C000A01608F41BE31F5F012F27E0AE014F5F38
:1036D0005F4F0E94B31CBC018981982F9970913073
:1036E00009F43FC09BE2E1FC04C09E2D9170E0FC18
:1036F0003AC05E2D5071E82FE87083FF46C084E029
:10370000911101C083E0EF2DE81B8F1508F0E0E078
:10371000D6018E2F20E2552351F1992329F0D601AD
:103720009C93C60101966C0196012D5F3F4FE2FE0E
:1037300024C08EE4D6018C9391E411969C9311974A
:1037400012968C93D9018E2F90E281111BC0E20F4B
:10375000F32FF11D10828EEF9FEF2996ECE00C9471
:10376000AD1D9DE2C6CF90E2C4CF2D938150811153
:10377000FCCFCE0ED11CE0E0D0CF8EE6D6018C93EC
:1037800091E6DBCF9D938150E0CF482F447082FFBC
:103790003DC084E0911101C083E08F1510F4EF2D3E
:1037A000E81BD6018E2F20E2552309F1992329F039
:1037B000D6019C93C60101966C0196012D5F3F4F87
:1037C000E2FE1BC089E4D6018C938EE411968C93A3
:1037D000119786E412968C93D9018E2F90E288235C
:1037E00009F4B5CF9D938150FACF2D93815081116B
:1037F000FCCFCE0ED11CE0E0D9CF89E6D6018C9368
:103800008EE611968C93119786E6E4CF9B0177FFA5
:1038100002C030E020E0A1E0B0E0911102C0B0E0D1
:10382000A0E0F9013196AE0FBF1F8B2C912CBB206D
:1038300009F461C05401EFEFAE1ABE0AAA0DBB1D18
:10384000FA161B0619F014F04F2D4A1B511188C0AF
:10385000E3FC59C07601A42FB0E2A1114FC0C40E01
:10386000D11C992309F45BC040E0D6011196F60102
:1038700090836D01552309F448C0012F060F9A81EA
:10388000582F507184FF03C0913309F40150101672
:103890000CF047C0093008F008E0EEE2FE2E5B01B4
:1038A000A01AB10885019194819491082F3F3207A5
:1038B00029F4D601FC92F60131966F016217730765
:1038C00094F1021713077CF5DB01A21BB30BAA24AA
:1038D000A394B12CAC0EBD1EAA0DBB1D11968C91EC
:1038E00021503109D601119628153905F4F0F60159
:1038F00080836D01DBCFB12CA12CA0CFF701B19358
:103900007F01A150AACF9111B0CFD601942F50E3DF
:1039100002C05D9391509111FCCFC40ED11C40E0C8
:10392000ACCF01E0BACF80E3DBCF6217730731F48D
:10393000963388F4953311F4552369F0F6018083AA
:10394000FD01842F90E2811108C0A40FB11D1C92CB
:1039500090E080E002CF81E3F1CF91938150F3CFEB
:10396000911183CF8ACF283008F027E03327DA017E
:10397000990F311D87FD916000966105710539F43D
:1039800032602E5F3D9330E32A95E1F708959F3F23
:1039900030F080387105610509F03C5F3C5F3D9374
:1039A000913008F08068911DDF93CF931F930F93A0
:1039B000FF92EF92192F987F9695E92F96959695FD
:1039C000E90FFF27EE53FF4F99273327EE24FF24FB
:1039D000A701E70105900894079428F4360FE71E25
:1039E000F81E491F511D660F771F881F991F0694E7
:1039F000A1F70590079428F4E70EF81E491F561FFB
:103A0000C11D770F881F991F661F0694A1F70590A7
:103A1000079428F4F80E491F561FC71FD11D880FA1
:103A2000991F661F771F0694A1F70590079420F44D
:103A3000490F561FC71FD81F990F661F771F881F72
:103A40000694A9F784911095177041F0D695C79503
:103A500057954795F794E7941A95C1F7E8E6F0E093
:103A600068941590159135916591959105907FE237
:103A70007395E118F10A430B560BC90BD009C0F737
:103A8000E10CF11E431F561FC91FD01D7EF4703379
:103A900011F48A95E6CFE894015030F0080F0AF44B
:103AA0000027021708F4202F2395022F7A3328F0DD
:103AB00079E37D932A95E9F710C07D932A9589F6DD
:103AC000069497956795379517951794E118F10A1D
:103AD000430B560BC90BD00998F023957E91739533
:103AE0007A3308F070E37C932013B8F77E9170610D
:103AF0007D9330F0839571E37D9370E32A95E1F730
:103B00001124EF90FF900F911F91CF91DF91992792
:103B100087FD909508952F923F924F925F926F92FA
:103B20007F928F929F92AF92BF92CF92DF92EF924D
:103B3000FF920F931F93CF93DF93CDB7DEB7CA1BCE
:103B4000DB0B0FB6F894DEBF0FBECDBF09942A88F9
:103B5000398848885F846E847D848C849B84AA84A1
:103B6000B984C884DF80EE80FD800C811B81AA812E
:103B7000B981CE0FD11D0FB6F894DEBF0FBECDBFF9
:103B8000ED010895E89409C097FB3EF49095809567
:103B9000709561957F4F8F4F9F4F9923A9F0F92F13
:103BA00096E9BB279395F695879577956795B79591
:103BB000F111F8CFFAF4BB0F11F460FF1BC06F5F77
:103BC0007F4F8F4F9F4F16C0882311F096E911C089
:103BD000772321F09EE8872F762F05C0662371F0AA
:103BE00096E8862F70E060E02AF09A95660F771FBE
:103BF000881FDAF7880F9695879597F908950E94A0
:103C0000121E0C94831E0E94751E38F00E947C1EAA
:103C100020F0952311F00C946C1E0C94721E11244C
:103C20000C94B71E0E94941E70F3959FC1F3950FDC
:103C300050E0551F629FF001729FBB27F00DB11D30
:103C4000639FAA27F00DB11DAA1F649F6627B00DC0
:103C5000A11D661F829F2227B00DA11D621F739FA9
:103C6000B00DA11D621F839FA00D611D221F749FB7
:103C70003327A00D611D231F849F600D211D822FFE
:103C8000762F6A2F11249F5750409AF0F1F0882325
:103C90004AF0EE0FFF1FBB1F661F771F881F915052
:103CA0005040A9F79E3F510580F00C946C1E0C9477
:103CB000B71E5F3FE4F3983ED4F3869577956795FA
:103CC000B795F795E7959F5FC1F7FE2B880F911D7C
:103CD0009695879597F9089597F99F6780E870E022
:103CE00060E008959FEF80EC089500240A94161672
:103CF000170618060906089500240A9412161306DA
:103D0000140605060895092E0394000C11F4882367
:103D100052F0BB0F40F4BF2B11F460FF04C06F5F83
:103D20007F4F8F4F9F4F089557FD9058440F551F59
:103D300059F05F3F71F04795880F97FB991F61F02D
:103D40009F3F79F087950895121613061406551FA4
:103D5000F2CF4695F1DF08C0161617061806991F10
:103D6000F1CF86957105610508940895E894BB2705
:103D700066277727CB0197F90895A1E21A2EAA1B8F
:103D8000BB1BFD010DC0AA1FBB1FEE1FFF1FA2170B
:103D9000B307E407F50720F0A21BB30BE40BF50B08
:103DA000661F771F881F991F1A9469F76095709591
:103DB000809590959B01AC01BD01CF010895EE0F58
:103DC000FF1F0590F491E02D09940E945E20A59FAD
:103DD000900DB49F900DA49F800D911D1124089506
:103DE000DF93CF931F930F939A9DF02D219FF00D9A
:103DF0008B9DF00D8A9DE02DF10D039FF00D029F2C
:103E0000E00DF11D4E9DE00DF11D5E9DF00D4F9DED
:103E1000F00D7F936F93BF92AF925F934F93D50155
:103E20000E945E208B01AC01D7010E945E20EB0155
:103E3000E80FF91FD6010E943F1F2F913F91D60135
:103E40000E945E20C60FD71FE81FF91FAF91BF91D8
:103E50000E943F1F2F913F910E945E20C60FD71FE7
:103E6000E81FF91FD6010E945E20E60FF71F980198
:103E7000BE01CF010F911F91CF91DF9108950E9454
:103E80005E20460F571FC81FD91F08F431960895AA
:103E9000E894DF93CF93FC01DB010E945E207F93C7
:103EA0006F93E9019A01AC01BF93AF933F932F93B6
:103EB000DF010E945E2026F46C1B7D0B820B930BAE
:103EC0009E01EB01FC010E943F1FAF91BF912F911A
:103ED0003F910E943F1FBE01CF01F9012F913F91F9
:103EE000CF91DF910895689401C0E894F92FF12BE8
:103EF00012F00C94A71FA0E0B0E0E1E8FFE10C9401
:103F0000911D092E059422F40E940320112392F49E
:103F1000F0E80F26FFEFE094F09400951095B09430
:103F2000C094D094A194BF0ACF0ADF0AEF0AFF0A17
:103F30000F0B1F0B0E94B21F07FC0E940320CDB77E
:103F4000DEB7ECE00C94AD1D689401C0E8948F924C
:103F50009F92CF93DF930E94B21FDF91CF919F90EA
:103F60008F90089588249924F401E401B0E49F938C
:103F7000AA279A158B049C04ED05FE05CF05D007F2
:103F8000A10798F4AD2FDC2FCF2FFE2FE92D982C11
:103F9000892E982F872F762F652F542F432F322F5E
:103FA0002227B85031F7BF9127C01B2EBF91BB27E6
:103FB000220F331F441F551F661F771F881F991F2D
:103FC000881C991CEE1FFF1FCC1FDD1FAA1FBB1FE3
:103FD0008A149B04EC05FD05CE05DF05A007B1079B
:103FE00048F08A189B08EC09FD09CE09DF09A00BEF
:103FF000B10B21601A94E1F62EF49401AF01BE01D9
:10400000CD01000C08956095709580959095309540
:104010004095509521953F4F4F4F5F4F6F4F7F4FCA
:104020008F4F9F4F0895002E083090F0982F872FC4
:10403000762F652F542F432F322F22270850F4CF8D
:10404000220F331F441F551F661F771F881F991F9C
:104050000A95B2F7002D089597FD1094002E0830B0
:1040600098F00850232F342F452F562F672F782F85
:10407000892F912DF4CF159497958795779567950E
:1040800057954795379527950A95AAF71124002D3E
:1040900008952A0D3B1D4C1D5D1D6E1D7F1D801F4B
:1040A000911F08950024A7FD00942A1730054005AC
:1040B000500560057005800590050895A29FB00128
:1040C000B39FC001A39F700D811D1124911DB29F4C
:0E40D000700D811D1124911D0895F894FFCFED
:1040DE00010100FA000006012020202020202020CF
:1040EE002020202020202000D580A83FD300408D06
:1040FE00142002A4A1C8DA128180DB40D9F1B0A647
:10410E00AF410546054B05500555055A055F05643B
:10411E000569056E05730578057D05820587058C95
:10412E0005910596052C343C00000000A40C180CDB
:10413E00450CF10C760C540C680C54554E494E47F8
:10414E00204D4F4445004144582D4D4933004F6397
:10415E00742032392032303234000D0A20200042D1
:10416E00414E44204D4F44554C450042414E442053
:10417E004D4F44554C452000202063616C5F6461B7
:10418E007461203D2000202020202020202020208F
:10419E00202020202020003031323334353637387D
:1041AE003900534F46542052455345540020205356
:1041BE006F66742052657365740D0A002020526577
:1041CE006164696E6720454550524F4D0D0A004699
:1041DE004143544F525920524553455400202046D6
:1041EE006163746F72792052657365740D0A0020D5
:1041FE0020536176696E6720746F20454550524F8B
:10420E004D0D0A0049460030303030302B30303002
:10421E003030303030300032303030303030303BB3
:10422E000049440049443031393B004641004D4479
:10423E00004D44323B004149004149303B00505350
:10424E00005053313B005854005854303B005458E2
:10425E00005258004845000D0A20204946202047AC
:10426E00202D2020726164696F20737461747573E0
:10427E000D0A20204944202047202D202072616401
:10428E00696F2049440D0A202046412020472053C3
:10429E0020206672657175656E63790D0A20204166
:1042AE0049202047205320206175746F2D696E665A
:1042BE006F726D6174696F6E0D0A20204D4420205F
:1042CE004720532020726164696F206D6F64650D05
:1042DE000A2020505320204720532020706F7765EE
:1042EE00722D6F6E207374617475730D0A202058D1
:1042FE005420204720532020584954207374617451
:10430E0075730D0A2020545820202D205320207420
:10431E0072616E736D69740D0A2020525820202D23
:10432E0020532020726563656976650D0A0A202088
:10433E004845203D3E207072696E742068656C7031
:10434E000D0A20204848203D3E207072696E742070
:10435E0068656C700D0A20204444203D3E20646543
:10436E00627567206F6E2F6F66660D0A20204949B1
:10437E00203D3E207072696E7420696E666F0D0A64
:10438E0020204652203D3E20666163746F72792074
:10439E0072657365740D0A20205352203D3E2073C2
:1043AE006F66742072657365740D0A2020434D206C
:1043BE003D3E2063616C6962726174696F6E206D3F
:1043CE006F64650D0A0A00484800444400444542A3
:1043DE0055473D00494900202062616E64203D2012
:1043EE0000202066726571203D200020206D6F64D4
:1043FE0065203D2000465200535200434D000D0AE9
:10440E00202041646A7573742063616C2066726546
:10441E007120746F2031204D487A0D0A2020707261
:10442E00657373202B20746F20696E6372656173E0
:10443E00652063616C20667265710D0A20207072B2
:10444E00657373202D20746F2064656372656173CC
:10445E00652063616C20667265710D0A2020707292
:10446E00657373203D20746F2073746F700D0A2076
:10447E00207072657373202E20746F2073617665C1
:10448E0020616E6420657869740D0A202070726553
:10449E007373202F20746F20657869742077697488
:1044AE00686F757420736176696E670D0A0A004332
:1044BE00414C4942524154494F4E204D4F444500C4
:1044CE000D0A202045786974696E672043616C6916
:1044DE0062726174696F6E204D6F64650D0A0043E0
:1044EE00414C20434F4D504C455445007A7A00586C
:1044FE004D49540020213D200042414E44203D2094
:10450E00004D495353494E4700554E4B4E4F574E53
:10451E00003F3F3F200046543820004654342000D0
:10452E004A5338200057535052004A543635002013
:10453E003F3F3F002020364D002031304D002031CE
:10454E00324D002031354D002031374D00203230B4
:10455E004D002033304D002034304D002036304D8C
:0C456E00002038304D003136304D000088
:00000001FF
