:100000000C9462000C948A000C948A000C948A0070
:100010000C948A000C948A000C948A000C948A0038
:100020000C948A000C948A000C948A000C948A0028
:100030000C948A000C948A000C948A000C948A0018
:100040000C9476110C948A000C9444110C941E119B
:100050000C948A000C948A000C948A000C948A00F8
:100060000C94C0110C948A000000000024002700AA
:100070002A0000000000250028002B0000000000DE
:1000800023002600290004040404040404040202DA
:100090000202020203030303030301020408102007
:1000A0004080010204081020010204081020000012
:1000B0000008000201000003040700000000000027
:1000C0000000DB1211241FBECFEFD8E0DEBFCDBF92
:1000D00011E0A0E0B1E0E6E3FFE302C005900D927D
:1000E000A83CB107D9F723E0A8ECB1E001C01D920C
:1000F000A338B207E1F710E0C2E6D0E004C02197D0
:10010000FE010E94A71CC136D107C9F70E94141333
:100110000C94991F0C94000080913E0290913F0234
:10012000891B990B08952F923F924F925F926F9285
:100130007F928F929F92AF92BF92CF92DF92EF9277
:10014000FF920F931F93CF93DF93CDB7DEB76C97DA
:100150000FB6F894DEBF0FBECDBF322E3D87242EE2
:100160005E872B013C01A982BF86C88AD98AEA8AA8
:10017000FB8A0C8B1D8B988E8F8A211501EC300722
:100180000AE140070DE3500705E0600771058105AE
:10019000910509F0A0F52F3710EF31071AEF41074D
:1001A00012E05107610571058105910509F008F418
:1001B000B4C12F3F354D41415E4763407105810514
:1001C000910509F008F48FC029813F854889598934
:1001D0006A897B898C899D89A0E0992493940E94E7
:1001E000591E09F08EC011E01E8B94E0892E912CCF
:1001F000A12CB12C89869A86AB86BC862FC0312C67
:10020000B1ECBD872AE1222EEDE3EE8735E0432EE7
:10021000512C612C712CD8CFA32CBD84C22CDE8430
:100220007201830120E034E04BE654EF64E170E0BA
:1002300080E090E00E94761D122FB32FF42FE52F5F
:10024000A7E00E94591E21F416E0B0E0F0E0E0E0E3
:10025000CF011987BA879B87EC871E8A89849A8485
:10026000AB84BC84A501940160E070E0CB01A32CB9
:10027000BD84C22CDE847201830129833A834B83BF
:100280005C836D837E838F83988760E070E080E07D
:1002900090E00E94C01C29833F87488B598B6A8B52
:1002A0007B8B8C8B9D8B0E89C12CD12C7601C394BA
:1002B00040E050E0BA01013009F0A9C0AF89B88D23
:1002C0001D921D921D921C921397FD01148215829E
:1002D0001682178281E090E0A0E0B0E080879187ED
:1002E000A287B387DEC029813F85488959896A89F9
:1002F0007B898C899D89A0E00E94591E09F48CCFCE
:10030000912CA32CBD84C22CDE847201830129812F
:100310003F85488959896A897B898C899D890E9492
:10032000761D29873A874B875C8729853A854B85D7
:100330005C8506E0A02EB12C263031054105510523
:1003400068F089859A85AB85BC8589309740A10581
:10035000B105D0F0B8E0AB2E17E0B12EC12CD12CF6
:10036000E12CF12C00E010E029813F854889598972
:100370006A897B898C899D890E94761D322E3D87F2
:10038000242E5E872B013C01A32CBD84C22CDE846D
:100390007201830129813F85488959896A897B894E
:1003A0008C899D890E94741DE0E4AE2EF2E4BF2E7C
:1003B000AFE0CA2ED12CE12CF12C00E010E00E941D
:1003C000C01CA32CBD84C22CDE84720183010E9458
:1003D000761DA32FF42FE52F422F5A2F6F2F7E2F3C
:1003E000A0E4CA2EA2E4DA2EAFE0EA2EF12C4115E9
:1003F00051056105710521F4C12CD12C7601C394FE
:10040000AA24A3949A1409F46DC001E00E8BCB01C9
:10041000BA0117E0660F771F881F991F1A95D1F749
:10042000A70196010E94851C298F3A8F4B8F5C8F04
:1004300089849A84AB84BC8407E0880C991CAA1C2C
:10044000BB1C0A95D1F7950184011250210931098D
:1004500048015901298D3A8D4B8D5C8D280D391D30
:100460004A1D5B1DAF89B88D2D933D934D935C93D1
:100470001397FD0164837583868397831896CD92C5
:10048000DD92ED92FC921B978E88882051F0398284
:100490009D849F86288AAE84A98A4A8A5B8A6C8A50
:1004A0007D8A29813F85488959896A897B898C8918
:1004B0009D896C960FB6F894DEBF0FBECDBFDF915D
:1004C000CF911F910F91FF90EF90DF90CF90BF9051
:1004D000AF909F908F907F906F905F904F903F90E4
:1004E0002F900895AF89B88D1D921D921D921C9278
:1004F0001397FD01148215821682178281E090E025
:10050000A0E0B0E080879187A287B3873982FD851C
:10051000FF87288A8E84898AC0CF29813F854889B0
:1005200059896A897B898C899D89A0E0E0E83E2E03
:10053000F0EFFD87FAEF2F2E02E00E87412C512CB1
:10054000612C712C0E94591E09F0DACE18E0B7E038
:100550007DCE2F923F924F925F926F927F928F92B9
:100560009F92AF92BF92CF92DF92EF92FF920F9342
:100570001F93CF93DF93CDB7DEB7AA970FB6F8944A
:10058000DEBF0FBECDBF0D871D8B298F3A8F4B8FDE
:100590005C8F6F8F7BA3FE8EED8E8111C4C1E091C5
:1005A000730224E0E29FF0011124E05AFD4F6589B7
:1005B00076898789908D24E630E040E050E00E9403
:1005C000181D522E632E742E852E962E7A8B898BB3
:1005D000492E86017501110FEE08FE2C8701950149
:1005E000A6016E2D7E2D8E2D9E2D0FE10E941A1ECE
:1005F000A12CEAECBE2EFAE9CF2EABE3DA2EE12CE9
:10060000F12C00E010E00E94451DA52CB62CC72C53
:10061000D82CE92CFA880989142D0E94C01C0FE1FE
:100620000E94351E29833A834B835C836D837E83CE
:100630008F83988789819A81AB81BC81BB0F880B9E
:10064000982FDC0189879A87AB87BC87252D362DAB
:10065000472D582D692D7F2D8989942DA980BA8029
:10066000CB80DC80E984FE2C0E2D1E2D0E94501EB6
:1006700029833987498B5A8B6B8B7C8B1C016D844A
:100680007D88898C9A8C9C8D9D8B4F8C5BA093016F
:10069000A4016B8D792FC201211534404B46544F74
:1006A000644171058105910569F060F0612C24E0D9
:1006B000722E3BE6832E44EF942EB4E1BB8F1D8A4D
:1006C000412C512CEB8DEF8F9301A4016E2F7D896E
:1006D000C201211538454744584F6D4071058105C9
:1006E000910560F4612C08E5702E87E4882E98EF60
:1006F000992E2DE02F8F1D8A412C512CA980B98471
:10070000C988DA88EB88FC8881019301A4016F8D88
:100710007D89C2010E94761D298F3A8F4B8F5C8F95
:100720002D873E874F87588B8D859E85AF85B889ED
:100730001FE0A12E0F97A105B10558F02D853E852C
:100740004F8558892B35310541055105B8F0BAE57B
:10075000AB2EB12CC12CD12CE12CF12C00E010E0FF
:100760002981398549895A896B897C89C1010E940F
:10077000C01C39014A016F8F7D8B2C01A980B9847F
:10078000C988DA88EB88FC8881019301A4016F8D08
:100790007D89C2010E94741DE0E4AE2EF2E4BF2EFA
:1007A000AFE0CA2ED12CE12CF12C00E010E00E9429
:1007B000C01CA980B984C988DA88EB88FC888101CB
:1007C0000E94761D49014CA35BA3C901DA0121E017
:1007D00030E040E050E00097A105B10521F020E4B1
:1007E00032E44FE050E02D8B3E8B4F8B588FBC0195
:1007F000CD0127E0660F771F881F991F2A95D1F733
:100800002D893E894F89588D0E94851C29013A0106
:100810006F8F78A389A39AA3A980B984C988DA883D
:10082000EB88FC88810194014CA15BA160E070E041
:1008300080E090E00E94C01C2BA33CA34DA35EA3CC
:100840006FA378A789A79AA78D859E85AF85B8895C
:1008500037E0880F991FAA1FBB1F3A95D1F7925016
:10086000A109B109840D951DA61DB71DED8DFE8D45
:1008700080839183A283B3832F8D38A149A15AA18C
:1008800024833583468357832D893E894F89588D2C
:100890002087318742875387298D3A8D4B8D5C8D18
:1008A00060E070E080E090E00E94C01C29013A0105
:1008B0004B01898799838D899E89AF89B88D5C01A9
:1008C0006D01E12CF12C00E010E02BA13CA14DA129
:1008D0005EA16FA178A589A59AA50E94761D5901F0
:1008E0006A017B018C019201A301B4018985998180
:1008F0000E94501EAA960FB6F894DEBF0FBECDBF61
:10090000DF91CF911F910F91FF90EF90DF90CF90EB
:10091000BF90AF909F908F907F906F905F904F901F
:100920003F902F900895E091740234E0E39FF0012E
:1009300011243BCEAF92BF92CF92DF92EF92FF9203
:100940000F931F93CF93DF936C017B018B01040FF7
:10095000151FEB015E01AE18BF08C017D10759F093
:100960006991D601ED91FC910190F081E02DC601D5
:100970000995892B79F7C501DF91CF911F910F91CF
:10098000FF90EF90DF90CF90BF90AF900895FC0163
:10099000538D448D252F30E0842F90E0821B930BE4
:1009A000541710F0CF96089501970895FC01918D8A
:1009B000828D981761F0A28DAE0FBF2FB11D5D968D
:1009C0008C91928D9F5F9F73928F90E008958FEF2F
:1009D0009FEF0895FC01918D828D981731F0828DE3
:1009E000E80FF11D858D90E008958FEF9FEF08953A
:1009F000FC01918D228D892F90E0805C9F4F821B9E
:100A000091098F739927089586ED92E00E94F8046A
:100A100021E0892B09F420E0822F089580E090E006
:100A2000892B29F00E94040581110C94000008957F
:100A3000FC01A48DA80FB92FB11DA35ABF4F2C9153
:100A4000848D90E001968F739927848FA689B7894A
:100A50002C93A089B1898C91837080648C93938D41
:100A6000848D981306C00288F389E02D80818F7DE4
:100A700080830895EF92FF920F931F93CF93DF939C
:100A8000EC0181E0888F9B8D8C8D98131AC0E889CA
:100A9000F989808185FF15C09FB7F894EE89FF8999
:100AA0006083E889F98980818370806480839FBF37
:100AB00081E090E0DF91CF911F910F91FF90EF9037
:100AC0000895F62E0B8D10E00F5F1F4F0F73112747
:100AD000E02E8C8D8E110CC00FB607FCFACFE88982
:100AE000F989808185FFF5CFCE010E941805F1CFED
:100AF000EB8DEC0FFD2FF11DE35AFF4FF0829FB7F6
:100B0000F8940B8FEA89FB8980818062CFCFCF93E5
:100B1000DF93EC01888D8823B9F0AA89BB89E88925
:100B2000F9898C9185FD03C0808186FD0DC00FB6CB
:100B300007FCF7CF8C9185FFF2CF808185FFEDCF49
:100B4000CE010E941805E9CFDF91CF91089583303F
:100B500081F028F4813099F08230A9F0089587302F
:100B6000A9F08830C9F08430B1F4809180008F7D85
:100B700003C0809180008F7780938000089584B5B2
:100B80008F7784BD089584B58F7DFBCF8091B000B1
:100B90008F778093B00008958091B0008F7DF9CF5A
:100BA000CF93DF93282F30E0F901E255FF4F849176
:100BB000F901E656FF4FD491F901EA57FF4FC4916E
:100BC000CC23A1F081110E94A705EC2FF0E0EE0FDD
:100BD000FF1FE458FF4FA591B491EC91ED2381E004
:100BE00090E009F480E0DF91CF91089580E090E0FB
:100BF000FACF1F93CF93DF93282F30E0F901E2550E
:100C0000FF4F8491F901E656FF4FD491F901EA575D
:100C1000FF4FC491CC23A9F0162F81110E94A70584
:100C2000EC2FF0E0EE0FFF1FEE58FF4FA591B491AF
:100C30008FB7F894EC91111108C0D095DE23DC93A6
:100C40008FBFDF91CF911F910895DE2BF8CFCF9307
:100C5000DF9390E0FC01E656FF4F24918A579F4FA7
:100C6000FC0184918823D1F090E0880F991FFC014A
:100C7000E859FF4FA591B491FC01EE58FF4FC59183
:100C8000D49161110EC09FB7F8948C91E22FE0953A
:100C90008E238C932881E223E8839FBFDF91CF913D
:100CA00008958FB7F894EC91E22BEC938FBFF6CFB9
:100CB0003FB7F8948091210290912202A0912302E3
:100CC000B091240226B5A89B05C02F3F19F00196CC
:100CD000A11DB11D3FBFBA2FA92F982F8827BC0196
:100CE000CD01620F711D811D911D42E0660F771FBE
:100CF000881F991F4A95D1F708958F929F92AF92BE
:100D0000BF92CF92DF92EF92FF924B015C010E9463
:100D100058066B017C010E9458066C197D098E09EA
:100D20009F09683E734081059105A8F321E0821A6E
:100D30009108A108B10888EEC80E83E0D81EE11C16
:100D4000F11C81149104A104B10429F7FF90EF90E4
:100D5000DF90CF90BF90AF909F908F9008952FB766
:100D6000F89460911D0270911E0280911F02909173
:100D700020022FBF0895CF92DF92EF92FF92CF9380
:100D8000DF930E94AF066B017C012FEFC21AD20ADB
:100D9000E20AF20ACBE8D1E06C157D058E059F05CD
:100DA00030F4CE010197F1F70E94AF06F5CFDF9145
:100DB000CF91FF90EF90DF90CF9008951F93CF9346
:100DC000DF93C1E0C093D801882399F1D091B80096
:100DD0001091BA008091BC008A7B8093BC0060E0D7
:100DE00082E10E94F90560E083E10E94F90510921A
:100DF000AC02C093AB021092860261E082E10E94D5
:100E0000F90561E083E10E94F9058091B9008E7FC8
:100E10008093B9008091B9008D7F8093B90088E4F8
:100E20008093B80085E48093BC001093BA00D093FF
:100E3000B800DF91CF911F9108958F929F92AF924A
:100E4000BF92CF92DF92EF92FF920F931F93CF93B7
:100E5000DF93D091D502D13208F0D7C0182FC091BE
:100E6000D4020E9458066B017C018091AC02811172
:100E70006BC082E08093AC021093AB028FEF809343
:100E8000AA021092A902D093A802A4EBB2E0E8E86B
:100E9000F2E080E0D81391C010928702809187021F
:100EA000CC0FC82BC093870280918602813009F055
:100EB00088C0109286020E9458066B017C018091C6
:100EC00087028093BB008091AE029091AF02A09107
:100ED000B002B091B102892B8A2B8B2BA1F00E941A
:100EE00058060091AE021091AF022091B0023091ED
:100EF000B1026C197D098E099F090617170728078B
:100F0000390708F442C08091BC0083FDD8CF85EC3E
:100F10008093BC000E9458066B017C018091AC025A
:100F2000823009F450C08091AA028F3F09F46FC04B
:100F30008091AA02803209F46CC08091AA028033A9
:100F400009F469C084E026C08091AE029091AF029E
:100F5000A091B002B091B102892B8A2B8B2B09F49E
:100F600084CF0E9458068090AE029090AF02A0906D
:100F7000B002B090B1026C197D098E099F098616E6
:100F80009706A806B90608F070CF8091AD020E94BE
:100F9000DE0685E01092B3021092D5021092B202E2
:100FA000DF91CF911F910F91FF90EF90DF90CF9045
:100FB000BF90AF909F908F9008959D9191938F5F78
:100FC00069CF85EEA5CF8091AE029091AF02A0913E
:100FD000B002B091B102892B8A2B8B2B09F49ECFE2
:100FE0000E9458060091AE021091AF022091B0020B
:100FF0003091B1026C197D098E099F0906171707F8
:101000002807390708F08ACFC0CF81E0C3CF80E03E
:10101000C1CF82E0BFCF83E0BDCF2091F901260F81
:101020003327331F21323105ECF42091AC02FC014F
:1010300090E080E0243069F082E00895A091F90109
:101040002191AC0147525E4FA40FB52FB11D2C93D7
:101050000196861798F38091F901680F6093F90162
:1010600080E0089581E008950895E0913F02809125
:101070003E02E81730F4F0E0E05CFD4F808190E044
:1010800008958FEF9FEF089590913F0280913E0267
:101090002FEF3FEF981748F4E92FF0E0E05CFD4FA9
:1010A000208130E09F5F90933F02C9010895CF9265
:1010B000DF92EF92FF920F931F93CF93DF937C0108
:1010C000CB018A012091B202222389F0EB016B014E
:1010D000C40ED51ECC15DD0569F06991D701ED91DF
:1010E000FC910190F081E02DC7010995F3CF642FA9
:1010F0000E940D08C801DF91CF911F910F91FF90C1
:10110000EF90DF90CF900895CF93DF931F92CDB7EC
:10111000DEB769832091B2022223F9F02091D50233
:10112000203258F021E030E0FC013383228390E04C
:1011300080E00F90DF91CF9108958091B302E82F66
:10114000F0E0EC54FD4F998190838F5F8093B30260
:101150008093D50281E090E0ECCF61E0CE01019672
:101160000E940D08F7CFCF93C62F91E09093B20263
:1011700090E69093D4021092B3021092D502682F99
:1011800083E793E00E9484086C2F83E793E00E943A
:10119000840881E0CF910C941D070F931F93CF9388
:1011A000DF938B0191E09093B20290E69093D4028A
:1011B0001092B3021092D502682F83E793E00E9449
:1011C0008408E801085F1F4F699183E793E00E945C
:1011D0008408C017D107C1F781E0DF91CF911F913B
:1011E0000F910C941D0790E080E0089560E08CE082
:1011F0000E94F90560E08BE00E94F90560E08AE05A
:101200000E94F90560E089E00E94F90560E08DE048
:101210000C94F905CF93DF93C82F662329F0E62FAE
:10122000F0E0E55FFE4FC0816C2F61708CE00E94A2
:10123000F905D0E0BE017595679561708BE00E945D
:10124000F905BE01759567957595679561708AE09A
:101250000E94F90523E0D595C7952A95E1F76C2FF3
:10126000617089E0DF91CF910C94F90560E08CE02A
:101270000E94F90560E08BE00E94F90560E08AE0D9
:101280000E94F90560E089E00C94F9050E94360996
:101290006AEF70E080E090E00E947D0660E080915F
:1012A00000010E940A096AEF70E080E090E00E946D
:1012B0007D060E9436096AEF70E080E090E00E94AF
:1012C0007D0660E0809100010E940A096AEF70E0EB
:1012D00080E090E00C947D060E9436096AEF70E091
:1012E00080E090E00E947D066091010180E00E9414
:1012F0000A096AEF70E080E090E00E947D060E949B
:1013000036096AEF70E080E090E00E947D0660910F
:10131000010180E00E940A096AEF70E080E090E03D
:101320000C947D061F93CF93DF930E943609C4E08F
:10133000D1E011E06D2F8DE00E94F905D1276AEF11
:1013400070E080E090E00E947D06C15099F7DF9147
:10135000CF911F91089583E00E94D005892BD9F386
:1013600082E00E94D005892BB1F384E00E94D00571
:10137000892B89F364E170E080E090E00C947D06B5
:10138000E0E0DC01AE0FB11DEF5F2C912111F9CF30
:101390006C93E80FF92FF11D10820895FC019081E4
:1013A000DB018C91981305C081E0218111969C91FD
:1013B000291380E0089586ED92E00E94F804892BBD
:1013C000D1F386ED92E00E94D6040895FF920F9328
:1013D0001F93CF93DF938C01EB01F8800E946F1C69
:1013E000F81621F06F2DC8010E94771CCE01DF9105
:1013F000CF911F910F91FF900895FF920F931F932C
:10140000CF93DF9302E011E0CAE0D0E0F801F19061
:101410008F01CE010E946F1CF81621F06F2DCE01B6
:101420000E94771C2196CE30D10581F782E091E0B1
:10143000DF91CF911F910F91FF900895CF93DF938C
:10144000EB010E946F1C8883CE01DF91CF9108953C
:10145000FC0101900020E9F73197AF01481B590BBF
:10146000BC0186ED92E00C949A040C94280ACF9368
:10147000DF930E94280AEC018EE391E00E94280A83
:101480008C0F9D1FDF91CF910895CF92DF92EF9245
:10149000FF920F931F93CF9391E09093B20290E647
:1014A0009093D4021092B3021092D502682F83E772
:1014B00093E00E94840881E00E941D070E94580664
:1014C0006B017C018091AC02811164C081E080934A
:1014D000AC021092AB029FEF9093AA021092A90265
:1014E0001092A8028093870280918702806C80937B
:1014F000870280918602813009F080C010928602B6
:101500000E9458066B017C01809187028093BB008A
:101510008091AE029091AF02A091B002B091B10261
:10152000892B8A2B8B2BA1F00E9458060091AE02CA
:101530001091AF022091B0023091B1026C197D0977
:101540008E099F09061717072807390708F443C0B3
:101550008091BC0083FDD8CF85EC8093BC000E94B5
:1015600058066B017C018091AC02813009F448C0BF
:101570008091A902C1E0811102C0C091A902E8E8EE
:10158000F2E0A0E4B2E080E08C1751F191919D93DC
:101590008F5FFACF8091AE029091AF02A091B0021E
:1015A000B091B102892B8A2B8B2B09F48BCF0E942F
:1015B00058060091AE021091AF022091B002309116
:1015C000B1026C197D098E099F09061717072807B4
:1015D000390708F077CF8091AD020E94DE06C0E0A7
:1015E00010923F02C0933E0280E090913F02C917E3
:1015F00049F183E793E00E944408F7CF85EEADCF31
:101600008091AE029091AF02A091B002B091B10270
:10161000892B8A2B8B2B09F4A6CF0E9458060091A8
:10162000AE021091AF022091B0023091B1026C195C
:101630007D098E099F09061717072807390708F043
:1016400092CFC9CFCF911F910F91FF90EF90DF9074
:10165000CF900895CF93DF93D82FC62F83E00E94B9
:10166000450A61E070E001C0660FDA95EAF7C13023
:1016700039F46095682383E0DF91CF910C94B3082F
:10168000682BF9CFCF93DF93C62FE82FF0E0E95E08
:10169000FE4FD0818D2F0E94450A90E1C99FB00175
:1016A00011248378682B8D2FDF91CF910C94B30890
:1016B000CF93C0E1C80F8C2F0E94450A682F6F7B23
:1016C0008C2FCF910C94B308CF93DF93D62FC0E12A
:1016D000C80F8C2F0E94450A8C7F682F6D2B8C2F92
:1016E000DF91CF910C94B308CF92DF92EF92FF92EB
:1016F0000F931F93CF93DF93CDB7DEB7A1970FB6AC
:10170000F894DEBF0FBECDBF8091330290913402BA
:10171000A0913502B0913602803826E9920728E977
:10172000A207B105C0F182E891E00E94350A20913C
:10173000330230913402409135025091360219A2A1
:101740008E010F5D1F4F8AE0C82ED12CE12CF12CA9
:10175000CA01B901A70196010E94851C605DF801CC
:1017600062938F01211531054105510589F73097A5
:1017700019F0CF010E94280AA1960FB6F894DEBF97
:101780000FBECDBFDF91CF911F910F91FF90EF90D2
:10179000DF90CF90089580349244AF40B10518F0A7
:1017A00081E891E0C2CF80E891E0BFCF2F923F92D5
:1017B0004F925F926F927F928F929F92AF92BF9261
:1017C000CF92DF92EF92FF920F931F93CF93DF930D
:1017D000CDB7DEB72E970FB6F894DEBF0FBECDBFE4
:1017E0002901B42FA52F6D877E871C01602E2058FC
:1017F0003A414640510961097109810991092F3720
:101800003A4146405105610571058105910511F088
:1018100008F092C092014B2F5A2F6D857E85C10131
:1018200007E00E941A1E2901B42FA52F6D877E871D
:101830001C0167E0762E862D90E0805A9D4FFC01BA
:101840008081811171C1A0906302B0906402C09048
:101850006502D0906602E0906702F0906802009105
:10186000690210916A02CE0101964C0192014B2F40
:101870005A2F6D857E85C1010E949300B980AA8090
:101880000B813D802E801F81C984DA84EB84FC8427
:1018900084E190E00E94741E2C01FC01D082C18280
:1018A000862D880F880F880F845D0E94450A03707B
:1018B0008C7F082BF2010283A382B4828CE0F69421
:1018C000E794D794C7948A95D1F7FC2DF07FCF2E5B
:1018D0001F70C12AF201C58226823782F1E06F169D
:1018E00009F436C112E0B201611609F43BC18AE283
:1018F0000E94CD0880E00E94580B672D80E00E9476
:10190000420BC2012E960FB6F894DEBF0FBECDBFBC
:10191000DF91CF911F910F91FF90EF90DF90CF90CB
:10192000BF90AF909F908F907F906F905F904F90FF
:101930003F902F900C94101F92014B2F5A2F6D85C2
:101940007E85C10135534C405109610971098109F6
:1019500091092F3F34434C405105610571058105C4
:10196000910509F090F492014B2F5A2F6D857E85D9
:10197000C10106E00E941A1E2901B42FA52F6D8710
:101980007E871C0156E0752E56CF92014B2F5A2FA1
:101990006D857E85C1013A56484151096109710939
:1019A000810991092F3F394648415105610571056B
:1019B0008105910509F090F492014B2F5A2F6D8506
:1019C0007E85C10105E00E941A1E2901B42FA52FB2
:1019D0006D877E871C0145E0742E2DCF92014B2F21
:1019E0005A2F6D857E85C101345D404351096109DF
:1019F0007109810991092F3F334D4043510561051C
:101A000071058105910509F090F492014B2F5A2F31
:101A10006D857E85C10104E00E941A1E2901B42F44
:101A2000A52F6D877E871C0134E0732E04CF9201B1
:101A30004B2F5A2F6D857E85C101385A4146510979
:101A400061097109810991092F3F374A41465105C2
:101A5000610571058105910509F090F492014B2F04
:101A60005A2F6D857E85C10103E00E941A1E29014F
:101A7000B42FA52F6D877E871C0123E0722EDBCE4D
:101A800092014B2F5A2F6D857E85C1013055434CF5
:101A9000510961097109810991092F3F3F44434C64
:101AA0005105610571058105910509F090F49201D8
:101AB0004B2F5A2F6D857E85C10102E00E941A1EB0
:101AC0002901B42FA52F6D877E871C0192E0792E06
:101AD000B2CE92014B2F5A2F6D857E85C101305AAF
:101AE000464851406109710981099109712C2F3FC4
:101AF0003F4946485140610571058105910511F046
:101B000008F099CE92014B2F5A2F6D857E85C10129
:101B100001E00E941A1E2901B42FA52F6D877E8730
:101B20001C017724739487CEA0906B02B0906C0256
:101B3000C0906D02D0906E02E0906F02F090700243
:101B40000091710210917202FE0131964F018ECE0A
:101B5000B20182E30E94CD0881E00E94580B672DFC
:101B600081E0CDCE8AE30E94CD0882E00E94580B2E
:101B7000672D82E0C4CE0F93CF93DF9360E08DE0BA
:101B80000E94F90560E080E00E942A0B20912E025D
:101B900030912F024091300250913102A4E6B0E022
:101BA0000E94AD1CDC0101E09B01AD0160E070E032
:101BB00080E090E00E94D60B61E081E00E942A0B59
:101BC00061E088E0DF91CF910F910C94F90580914D
:101BD0000001823099F1A0F48130C9F180912E0288
:101BE00090912F02A0913002B09131028093330284
:101BF00090933402A0933502B09336020C94BB0D3F
:101C0000843099F0883051F78091C8019091C901D2
:101C1000A091CA01B091CB0180932E0290932F0224
:101C2000A0933002B0933102D9CF8091CC01909132
:101C3000CD01A091CE01B091CF01EECF8091D00126
:101C40009091D101A091D201B091D301E5CF8091C3
:101C5000D4019091D501A091D601B091D701DCCFEC
:101C6000E0910101E150EB3008F034C0F0E0E55CB8
:101C7000F14F0C94A71CB00F870F5E0F350F100F9C
:101C8000E70EBE0E950E6A0E6C0E460E80E59BE1C9
:101C9000ACE1B0E08093D4019093D501A093D6013C
:101CA000B093D7018093D0019093D101A093D2013A
:101CB000B093D3018093CC019093CD01A093CE013A
:101CC000B093CF018093C8019093C901A093CA013A
:101CD000B093CB010C94E70D88E095E8A6E3B0E063
:101CE0008093D4019093D501A093D601B093D701EE
:101CF00088ED9CE8A6E3B0E08093D0019093D101F9
:101D0000A093D201B093D30180E998E9A6E3B0E0B3
:101D10008093CC019093CD01A093CE01B093CF01DD
:101D200088ED93E7A6E3B0E0CDCF80ED90EFABE692
:101D3000B0E08093D4019093D501A093D601B093E5
:101D4000D7018CE499E8ABE6B0E08093D0019093A2
:101D5000D101A093D201B093D30180E790E0ACE62B
:101D6000B0E08093CC019093CD01A093CE01B093CD
:101D7000CF0188E896E6ABE6B0E0A4CF80EC99EA24
:101D8000AAE9B0E08093D4019093D501A093D60145
:101D9000B093D70180E699EBAAE9B0E08093D00137
:101DA0009093D101A093D201B093D30180E592E941
:101DB000AAE9B0E08093CC019093CD01A093CE012D
:101DC000B093CF018CE494EBAAE9B0E07BCF80E93B
:101DD00090ECA6EDB0E08093D4019093D501A09350
:101DE000D601B093D70180E098EDA6EDB0E08093E6
:101DF000D0019093D101A093D201B093D30180E39D
:101E000090EDA6EDB0E08093CC019093CD01A0932E
:101E1000CE01B093CF0180EF94E1A7EDB0E052CFB7
:101E200080E29FE2A4E1B1E08093D4019093D501D8
:101E3000A093D601B093D70180EC9EE3A4E1B1E07A
:101E40008093D0019093D101A093D201B093D3019C
:101E50008093CC019093CD01A093CE01B093CF019C
:101E600088E191E4A4E1B1E02DCF80E590E9A1E41F
:101E7000B1E08093D4019093D501A093D601B093A3
:101E8000D70180E292E9A2E4B1E08093D00190937F
:101E9000D101A093D201B093D30180EF9FE9A1E4D7
:101EA000B1E08093CC019093CD01A093CE01B0938B
:101EB000CF0188EC90EEA1E4B1E004CF88E39CE28E
:101EC000ACE7B1E08093D4019093D501A093D60103
:101ED000B093D70188ED9BE3ACE7B1E08093D001EC
:101EE0009093D101A093D201B093D30180E997E4FC
:101EF000ACE7B1E08093CC019093CD01A093CE01EB
:101F0000B093CF0188EB91E5ACE7B1E0DBCE80E1A7
:101F100090E6ACEAB1E08093D4019093D501A09310
:101F2000D601B093D70180E29EEFADEAB1E0809395
:101F3000D0019093D101A093D201B093D30180EB53
:101F40009FE6ACEAB1E08093CC019093CD01A093E1
:101F5000CE01B093CF0188EB95E2ADEAB1E0B2CE0D
:101F600088E297EBAFEFB2E08093D4019093D50174
:101F7000A093D601B093D70180EB9AECAFEFB2E01B
:101F80008093D0019093D101A093D201B093D3015B
:101F90008093CC019093CD01A093CE01B093CF015B
:101FA00088E099E6AFEFB2E08DCE0F93CF93DF9349
:101FB00060E088E00E94F90560E081E00E942A0B61
:101FC00061E08DE00E94F90520912E0230912F02F0
:101FD0004091300250913102A4E6B0E00E94AD1C65
:101FE000DC0100E09B01AD0160E070E080E090E08A
:101FF0000E94D60B61E080E00E942A0B84E00E94E0
:10200000D005892BD9F364E170E080E090E00E9474
:102010007D06DF91CF910F910C94BB0D2F923F92D3
:102020004F925F926F927F928F929F92AF92BF92E8
:10203000CF92DF92EF92FF920F931F93CF93DF9394
:10204000CDB7DEB72D970FB6F894DEBF0FBECDBF6C
:1020500019012A013B014C010D8701116BC0E09170
:10206000730284E0E89FF0011124E05AFD4FA58C33
:10207000B68CC78CD0A0FE0131967F0189019A01F0
:10208000AB01B40180E00E94A90284E190E00E94CB
:10209000741E8C0189859A85AB85BC85F801908377
:1020A000818339814A812B81237022834383348346
:1020B0002CE0B695A795979587952A95D1F7807FBF
:1020C0002D813E819F819F70892B85833683278355
:1020D000FD85B801F11143C08AE10E94CD0820922C
:1020E00063023092640240926502509266026092EE
:1020F0006702709268028092690290926A02C80137
:102100002D960FB6F894DEBF0FBECDBFDF91CF91F5
:102110001F910F91FF90EF90DF90CF90BF90AF9005
:102120009F908F907F906F905F904F903F902F90F7
:102130000C94101FE091740284E0E89FF0011124D8
:10214000E05AFD4FA58CB68CC78CD0A0FE0131960D
:102150007F0189019A01AB01B40181E094CF82E251
:102160000E94CD0820926B0230926C0240926D0268
:1021700050926E0260926F027092700280927102B1
:1021800090927202BCCF0F93CF93DF93C0E6D2E060
:102190006D8F7E8F8F8F98A32B813C814D815E81C7
:1021A0006F81788500E089859A850E940E102B85C5
:1021B0003C854D855E856F85788901E089899A899E
:1021C0000E940E10DF91CF910F91089585ED8093BD
:1021D000BC008091AE029091AF02A091B002B0918C
:1021E000B1020796A11DB11D23E0B695A79597955D
:1021F00087952A95D1F72091BC0024FD03C0109249
:10220000AC0208954091AE025091AF026091B002CD
:102210007091B102452B462B472B69F30097A1051E
:10222000B10541F025E32A95F1F700000197A109D6
:10223000B109E1CF8091AD020C94DE061F920F929E
:102240000FB60F9211242F933F934F935F936F9389
:102250007F938F939F93AF93BF93EF93FF9386EDFD
:1022600092E00E941805FF91EF91BF91AF919F916D
:102270008F917F916F915F914F913F912F910F902F
:102280000FBE0F901F9018951F920F920FB60F92CE
:1022900011242F938F939F93EF93FF93E091E60286
:1022A000F091E7028081E091EC02F091ED0282FD75
:1022B0001BC090818091EF028F5F8F732091F0029D
:1022C000821741F0E091EF02F0E0EA52FD4F958F66
:1022D0008093EF02FF91EF919F918F912F910F903B
:1022E0000FBE0F901F9018958081F4CF1F920F9210
:1022F0000FB60F9211242F933F938F939F93AF9319
:10230000BF9380911D0290911E02A0911F02B09177
:10231000200230911C0223E0230F2D3758F501963F
:10232000A11DB11D20931C0280931D0290931E02DB
:10233000A0931F02B093200280912102909122026B
:10234000A0912302B09124020196A11DB11D80939A
:10235000210290932202A0932302B0932402BF9102
:10236000AF919F918F913F912F910F900FBE0F9042
:102370001F90189526E8230F0296A11DB11DD2CFFC
:102380001F920F920FB60F9211242F933F934F93EA
:102390005F936F937F938F939F93AF93BF93EF93CD
:1023A000FF938091B900887F803609F44AC0F0F528
:1023B000883209F4A5C018F5803109F499C0B8F441
:1023C000882309F4F5C0883009F492C0FF91EF9199
:1023D000BF91AF919F918F917F916F915F914F913D
:1023E0003F912F910F900FBE0F901F90189588313D
:1023F00009F486C0803251F78093AA0214C0803459
:1024000009F49BC040F48033B9F38833F9F6809324
:10241000AA0285ECAEC0803509F483C0883509F482
:1024200094C0883499F60E94E610D0CF883909F418
:102430008AC038F5883729F050F4883611F0803793
:1024400029F683E08093AC0210921B0255C08838B5
:1024500009F479C0803919F0803809F0B7CF80913C
:102460001B02803208F06FC0E0911B0281E08E0FEA
:1024700080931B028091BB00F0E0E550FE4F80830B
:102480003BC0803B39F0D0F4803A09F477C0883AF9
:1024900009F09CCF84E08093AC021092FA01109274
:1024A000F901F0E0E0E009958091F90181110FC098
:1024B00081E08093F9011092D90109C0803C09F4B0
:1024C000A8CF883C09F4A5CF883B09F07FCFE091E5
:1024D000FA0181E08E0F8093FA01F0E0E752FE4F9F
:1024E00080818093BB009091FA018091F90129C00D
:1024F000809187028093BB0085EC8093BC0066CFFF
:102500009091A9028091A802981758F5E091A9022C
:1025100081E08E0F8093A902F0E0E857FD4F8081A3
:10252000E9CFE091A90281E08E0F8093A90280910A
:10253000BB00F0E0E857FD4F80839091A9028091A5
:10254000A8029817C8F285E8D8CFE091A90281E0E7
:102550008E0F8093A9028091BB00F0E0E857FD4FF9
:1025600080838091AB0281115ECF81E080938602EF
:1025700084EA8093BC001092AC0228CF85EC809353
:10258000BC001092AC0280911B02803230F4E091CA
:102590001B02F0E0E550FE4F108260911B0270E0DC
:1025A0008BEF91E0F0E0E0E0099510921B020ECF76
:1025B0001092AA0238CFE6EDF2E01382128288EE82
:1025C00093E0A0E0B0E084839583A683B7832EE1F7
:1025D00031E03183208325EC30E03587248724ECFB
:1025E00030E03787268720EC30E0318B208B21ECE0
:1025F00030E0338B228B22EC30E0358B248B26ECC1
:1026000030E0378B268B118E128E138E148EE3E7FB
:10261000F3E01382128284839583A683B78380E3D9
:1026200091E0918380830895CF93DF93CDB7DEB798
:10263000A6970FB6F894DEBF0FBECDBF789484B5D1
:10264000826084BD84B5816084BD85B5826085BDAE
:1026500085B5816085BD80916E00816080936E003C
:10266000109281008091810082608093810080912E
:1026700081008160809381008091800081608093DF
:1026800080008091B10084608093B1008091B0009F
:1026900081608093B00080917A00846080937A009A
:1026A00080917A00826080937A0080917A008160C4
:1026B00080937A0080917A00806880937A001092EB
:1026C000C10060E082E00E94270660E083E00E9493
:1026D000270660E084E00E94270661E08DE00E940A
:1026E000270661E089E00E94270661E08AE00E94F7
:1026F000270661E08BE00E94270661E08CE00E94E3
:10270000270661E088E00E94270660E087E00E94DB
:10271000270660E08DE00E94F90560E089E00E94F4
:10272000F90560E08AE00E94F90560E08BE00E9414
:10273000F90560E08CE00E94F90560E088E00E9405
:10274000F905E091E602F091E70282E08083E091F2
:10275000E202F091E3021082E091E402F091E502DE
:1027600080E180831092EE02E091EA02F091EB02A8
:1027700086E08083E091E802F091E9028081806147
:102780008083E091E802F091E90280818860808393
:10279000E091E802F091E902808180688083E09115
:1027A000E802F091E90280818F7D808381E491E0ED
:1027B0000E94350A84E491E00E94370A83E591E0A3
:1027C0000E94370A8FE591E00E94370A81E491E088
:1027D0000E94350A82E00E94D005892B09F4C3C10A
:1027E00082E00E94D005892BD9F364E170E080E09B
:1027F00090E00E947D060E9436098AE090E00E94E7
:102800006F1C809302018BE090E00E946F1C80930C
:1028100003018CE090E00E946F1C809304018DE026
:1028200090E00E946F1C8093050160E071E088E2F7
:1028300090E00E941E0A61E071E082E390E00E9455
:102840001E0A8091020190910301A0910401B091B0
:10285000050184569109A109B1098D339648A1401B
:10286000B10570F080E09AEFA0E0B0E08093020143
:1028700090930301A0930401B09305010E94FD0908
:10288000809100018150883048F088E080930001F9
:1028900060E071E088E290E00E94E6098091010129
:1028A00081508B3048F081E08093010161E071E05C
:1028B00082E390E00E94E60980E498E7ADE7B1E0AA
:1028C0008093750290937602A0937702B09378027A
:1028D00010927302109274021092850262E987EBE3
:1028E0000E94B30860E088E10E94B3086FEF89E0BE
:1028F0000E94B30860E880E10E94B30860E881E1CB
:102900000E94B30860E882E10E94B3086CE080E1B5
:102910000E94B3086CE081E10E94B3086CE082E1A0
:102920000E94B3086FEF83E00E94B30800E020E04C
:1029300030E24FE550EA62E170E080E090E00E9412
:102940000E1001E020E030E24FE550EA62E170E075
:1029500080E090E00E940E1060E6E62E62E0F62E27
:1029600010E1F70111927F01812F0E94450A682F23
:102970006F7D812F0E94B308F701319710821F5F8E
:10298000133179F760E082EA0E94B30860E083EADD
:102990000E94B30860E084EA0E94B30860E281EB21
:1029A0000E94B30860E881EB0E94B30860910201C5
:1029B0007091030180910401909105010E94C31060
:1029C00000E020E030E24FE550EA62E170E080E0B4
:1029D00090E00E940E1063E080E00E94640B60E0D3
:1029E00081E00E94640B0E94300E83E00E94D005BB
:1029F000892B09F04AC060E08FE00E940A090E941A
:102A0000AB0960E089E00E940A0960E082E00E9470
:102A1000640B02E020E031EE45EF55E060E070E04D
:102A200080E090E00E94D60B82E10E94450A682F68
:102A30006F7782E10E94B30861E082E00E942A0B76
:102A400084E00E94D005892B09F096C00E943609C7
:102A500084E00E94D005892BD9F364E170E080E026
:102A600090E00E947D0660E082E00E942A0B82E1F5
:102A70000E94450A682F606882E10E94B3080E94A4
:102A8000FD090E9492090E94BB0D1092800081E80E
:102A90008093810080B7846080BF80E286BB0E9403
:102AA0006C0964EF71E080E090E00E947D060E9476
:102AB00046090E94AB092090C4013090C5014090A6
:102AC000C6012CA23DA24EA29E012D5F3F4F398F21
:102AD000288FAE014C5F5F4F5B8F4A8F45E0A42E7D
:102AE00014E057E0B52EB59B0FC0809129028111EB
:102AF00083C08091860090918700909328028093F4
:102B0000270281E08093290280913D02882309F405
:102B1000DBC00E94AF06C0902A02D0902B02E0904A
:102B20002C02F0902D026C197D098E099F096031ED
:102B300071058105910558F010923D02109229020D
:102B40000E94BB0D60E0809100010E940A0940E0F4
:102B500050E0452B41F20E940405882309F4BECFC2
:102B60000E940000BBCF0E94FD0960E071E088E296
:102B700090E00E94E6099ACE83E00E94D005892B5E
:102B800041F56091020170910301809104019091DF
:102B900005016456710981099109609302017093DE
:102BA000030180930401909305010E94C31002E089
:102BB00020E031EE45EF55E060E070E080E090E02D
:102BC0000E94D60B64E170E080E090E00E947D06F8
:102BD00037CF82E00E94D005892B09F031CF609178
:102BE00002017091030180910401909105016C59DB
:102BF0007F4F8F4F9F4FD1CF809127029091280216
:102C00009093260280932502809186009091870000
:102C1000909328028093270250E256BBE09027024F
:102C2000F09028028091250290912602E81AF90A74
:102C3000E1146AEFF606E8F580913D02811115C0B6
:102C40000E94360961E08DE00E94F90560E088E0AD
:102C50000E94F90560E081E00E942A0B61E080E0BB
:102C60000E942A0B81E080933D0220913302309133
:102C700034024091350250913602A4E6B0E00E9441
:102C8000AD1C1B012C01970150E040E060E070E1B9
:102C90008EE59FE50E94851C220E331E441E551EA4
:102CA00000E09101A20160E070E080E090E00E940D
:102CB000D60B0E94AF0660932A0270932B0280937A
:102CC0002C0290932D0220CF80913C0281114CC2A6
:102CD00082E00E94D005892B09F002C10E94AF0654
:102CE0006B017C01C0923802D0923902E0923A0224
:102CF000F0923B0281E08093370282E00E94D0058F
:102D0000892B79F40E94AF066C197D098E099F0901
:102D10006D3271408105910508F49DC182E0809378
:102D2000370280913702823009F0DBC10E946C09C2
:102D300082E00E94D005892BD9F383E00E94D00560
:102D4000892BB1F364E170E080E090E00E947D06A1
:102D5000FF24F3943BE0E32E82E00E94D00500E0E4
:102D6000892BD9F50E94AF061B012C012092380255
:102D70003092390240923A0250923B02F09237026E
:102D800082E00E94D005892B79F40E94AF06621977
:102D90007309840995096D3271408105910508F424
:102DA0005DC182E08093370264E170E080E090E0F2
:102DB0000E947D0680913702823009F052C10E9444
:102DC000460901E082E00E94D005892BD9F364E135
:102DD00070E080E090E00E947D0683E00E94D005D4
:102DE000892BD9F50E94AF061B012C0120923802D5
:102DF0003092390240923A0250923B02F0923702EE
:102E000083E00E94D005892B79F40E94AF066219F5
:102E10007309840995096D3271408105910508F4A3
:102E200032C182E08093370264E170E080E090E09C
:102E30000E947D0680913702823009F027C10E94EE
:102E4000460901E083E00E94D005892BD9F364E1B3
:102E500070E080E090E00E947D0684E00E94D00552
:102E6000892B81F50E94AF061B012C0120923802AC
:102E70003092390240923A0250923B02F09237026D
:102E800084E00E94D005892B79F40E94AF06621974
:102E90007309840995096D3271408105910508F423
:102EA00007C182E08093370280913702823009F0B7
:102EB00002C10E9436090E94D50F6091010180E095
:102EC0000E940A09002309F447CF82E00E94D0053E
:102ED000892BD9F364E170E080E090E00E947D06E8
:102EE00083E00E94D005892B09F082C00E94AF06C2
:102EF0006B017C01C0923802D0923902E0923A0212
:102F0000F0923B0281E08093370283E00E94D0057B
:102F1000892B79F40E94AF066C197D098E099F09EF
:102F20006D3271408105910508F4ECC082E0809318
:102F3000370280913702823009F0E7C081E0809348
:102F40003C020E94F60864EF71E080E090E00E948D
:102F50007D0661E08CE00E94F90564E670E080E0A7
:102F600090E00E947D0661E08BE00E94F90564E636
:102F700070E080E090E00E947D0661E08DE00E94BC
:102F8000F90564E670E080E090E00E947D0661E073
:102F90008AE00E94F90564E670E080E090E00E941B
:102FA0007D0661E089E00E94F90564EF71E080E050
:102FB00090E00E947D060E94F60864EF71E080E0D8
:102FC00090E00E947D060E94460964EF71E080E077
:102FD00090E00E947D060E946C0983E00E94D0056B
:102FE000892BD9F364E170E080E090E00E947D06D7
:102FF00084E00E94D005892B09F0A9CD0E94AF067C
:103000006B017C01C0923802D0923902E0923A0200
:10301000F0923B0281E08093370284E00E94D00569
:10302000892B79F40E94AF066C197D098E099F09DE
:103030006D3271408105910508F47AC082E0809379
:10304000370280913702823009F075C00E9436093C
:103050000E94D50F77CD0E94BB064FCE0E94BB06C3
:103060008FCE80910101815059F0809301016091D0
:10307000010180E00E940A090E94300E00E0A2CE09
:10308000E0920101F4CF0E94BB06BACE809101010B
:103090008F5F8C3050F4809301016091010180E0DA
:1030A0000E940A090E94300ECDCEF0920101F5CFA8
:1030B0000E94BB06E5CE0E94920961E071E082E3C6
:1030C00090E00E94E60984E00E94D005892BD9F3A4
:1030D00064E170E080E090E00E947D060E94460975
:1030E000F4CE80910001880F893050F48093000164
:1030F0000E94E70D60E0809100010E940A09E5CE80
:1031000081E0F4CF0E94BB0600CF8091000190E0E7
:1031100095958795009751F0809300010E94E70DE7
:1031200060E0809100010E940A0957CF88E0F4CF47
:103130000E94BB0672CF0E94920960E0809100015C
:103140000E940A0960E071E088E290E00E94E609CE
:1031500084E00E94D005892BD9F364E170E080E01F
:1031600090E00E947D06F3CC86ED92E00E94F80488
:10317000892B59F12CA03DA04EA02D8A3E8A4F8A62
:103180001A821982E88DF98D92E1292E11922A94E2
:10319000E9F7F12CE12C86ED92E00E94F804892BEE
:1031A00069F086ED92E00E94D604082F8F7D81544D
:1031B0008A3108F4C9C0C7017C01EDCFC70101966F
:1031C00021E0E21624E0F206B8F383E00E94D00585
:1031D000892B09F081C00E94AF066B017C01C0926F
:1031E0003802D0923902E0923A02F0923B0281E03A
:1031F0008093370283E00E94D005892B79F40E94E6
:10320000AF066C197D098E099F096D3271408105E9
:10321000910508F458C382E0809337028091370209
:10322000823009F053C310923C020E94F60864EF0A
:1032300071E080E090E00E947D0661E089E00E94FC
:10324000F90564E670E080E090E00E947D0661E0B0
:103250008AE00E94F90564E670E080E090E00E9458
:103260007D0661E08DE00E94F90564E670E080E093
:1032700090E00E947D0661E08BE00E94F90564E623
:1032800070E080E090E00E947D0661E08CE00E94AA
:10329000F90564EF71E080E090E00E947D060E94F5
:1032A000F60864EF71E080E090E00E947D060E94E5
:1032B000460964EF71E080E090E00E947D060E9484
:1032C0006C0983E00E94D005892BD9F364E170E09A
:1032D00080E090E00E947D0682E00E94D005892B6C
:1032E00009F035CC0E94AF066B017C01C092380218
:1032F000D0923902E0923A02F0923B0281E0809350
:10330000370282E00E94D005892B79F40E94AF0633
:103310006C197D098E099F096D32714081059105F7
:1033200008F4DAC282E0809337028091370282305B
:1033300029F060E0809100010E940A0982E00E9469
:10334000D005892BD9F309CF0A3709F43ECF0D8B6D
:103350000E94DB098E8B9FE9900F9A3110F4005286
:103360000D8B9FE9980F9A3110F480528E8B60E795
:1033700071E0CE0145960E94CE09882309F487C0EA
:103380000E94DB0990ED980F9A3008F076C0682F04
:10339000CE0101960E94C0090AE00E94DB09682F55
:1033A000CE0101960E94C0090150B9F7FE013C967A
:1033B000C12CD12C7601212C312C21012394A291F6
:1033C000A0530A2E000CBB0BA20191010E94B81C55
:1033D000C60ED71EE81EF91EAAE0B0E00E94AD1C82
:1033E0001B012C016A8C7B8C6E167F0641F7C09204
:1033F0003302D0923402E0923502F092360220E29B
:10340000C2162FE2D20624E1E20621E0F20609F418
:10341000E6C108F003C140E7C416D1044CE6E40657
:10342000F10409F4C9C108F0A7C068EDC6166CE83C
:10343000D60666E3E606F10409F4B8C108F048C010
:1034400088EDC81683E7D80686E3E806F10409F498
:10345000AFC198E0C91695E8D90696E3E906F104EC
:1034600009F4A2C1A0E5CA16ABE1DA06ACE1EA06AE
:10347000F10409F03FC08AE092C180E791E00E9428
:10348000350A0E94740B80E991E00E94350A63E7D7
:1034900071E0CE0145960E94CE09882309F4BFC190
:1034A00083E791E00E94350A0E94740B86E791E061
:1034B0000E94350A80913202882309F4ADC186E862
:1034C00091E00E94350A88E891E00E94350A7DCE9D
:1034D000E8E8CE16E6E6DE06EBE6EE06F10409F4D1
:1034E0006DC190F520E9C21628E9D20626E3E2066E
:1034F000F10409F2A4E6B0E0A70196010E94AD1C18
:103500001B012C01612C712C43016C8F3D8E8E8F21
:103510005F8E68A279A28AA29BA201E09B01AC0106
:1035200060E070E080E090E00E94D60BC0922E0236
:10353000D0922F02E0923002F092310260910101AC
:1035400080E00E940A09A3CF3CE4C31639E8D30601
:103550003BE6E306F10409F42DC188E040EDC41612
:1035600040EFD4064BE6E406F10421F68093010116
:1035700081E080930001BECF50E6C51659EBD50619
:103580005AE9E506F10409F41EC1F0F470ECC7161F
:1035900079EAD7067AE9E706F10409F411C18CE467
:1035A000C81684EBD8068AE9E806F10409F40FC1CD
:1035B00090E5C91692E9D9069AE9E906F10409F0FD
:1035C00099CFB0920101EDC0A0E3CA16A0EDDA06D2
:1035D000A6EDEA06F10409F400C158F486E0F0E92A
:1035E000CF16F0ECDF06F6EDEF06F10409F4BECFDE
:1035F00081CFC11428EDD20626EDE206F10409F4CC
:10360000EAC086E030EFC31634E1D30637EDE306B7
:10361000F10409F06FCF80930101DBC040E9C416CB
:1036200047E4D4064CE7E40641E0F40609F4E8C0B8
:1036300008F05CC060EFC6166FE9D60661E4E606E6
:1036400061E0F60609F4D7C008F588E1C81681E400
:10365000D80684E1E80681E0F80609F4C3C090E5E5
:10366000C91690E9D90691E4E90691E0F90609F452
:10367000BCC0A0ECCA16AEE3DA06A4E1EA06A1E0FB
:10368000FA0609F037CFA09201018BC0E0E2CE1616
:10369000E2E9DE06E2E4EE06E1E0FE0609F4A8C097
:1036A00068F428ECC21620EED20621E4E20621E0FE
:1036B000F20609F01FCF109301018BC038E3C31647
:1036C0003CE2D3063CE7E30631E0F30609F496C09A
:1036D00083E048EDC4164BE3D4064CE7E40641E032
:1036E000F40609F007CF809301016FC058EBC516AF
:1036F00055E2D5065DEAE50651E0F50609F486C017
:1037000000F570E1C71670E6D7067CEAE70671E0BF
:10371000F70609F477C080EBC8168FE6D8068CEA66
:10372000E80681E0F80609F46FC098EBC91691E548
:10373000D9069CE7E90691E0F90609F0DBCE83E0C3
:103740006ACFA8E0CA16A9E6DA06AFEFEA06A2E059
:10375000FA0609F45FC070F482E0F0E2CF16FEEFE3
:10376000DF06FDEAEF06F1E0FF0609F0C3CE809325
:103770000101FFCE28E2C21627EBD2062FEFE206A8
:1037800022E0F20609F444C081E030EBC3163AECC3
:10379000D3063FEFE30632E0F30609F0ABCE8093A9
:1037A000010110930001A6CE8AE0E0CE8AE09BCF13
:1037B0008AE031CF88E097CF88E0F1CF88E0D7CF9B
:1037C000B0920101D5CEB092010182E0D2CEB0928A
:1037D000010188E0CECE86E086CF86E0E0CFA092E1
:1037E0000101C6CEA0920101F4CF10930101C0CE19
:1037F00010930101EACF10930101D3CF83E0B6CE3D
:1038000083E0CDCF82E0B2CE82E0C9CF82E003CFA9
:1038100081E0ADCF81E0FFCE84E891E052CE62E955
:1038200071E0CE0145960E94CE09882319F085E902
:1038300091E04BCE6AE971E0CE0145960E94CE0937
:10384000882319F08DE991E040CE64EA71E0CE0161
:1038500045960E94CE09882319F087EA91E035CE7B
:103860006CEA71E0CE0145960E94CE09882319F0DA
:103870008FEA91E02ACE64EB71E0CE0145960E947A
:10388000CE09882361F087EB91E00E94350A61E060
:103890008DE00E94F90581E08093320296CC6CEBBA
:1038A00071E0CE0145960E94CE09882309F48DCCA3
:1038B0008FEB91E00E94350A60E08DE00E94F905EF
:1038C0001092320282CC0E94BB0694CC609101011E
:1038D00080E00E940A09F5CC0E94BB0612CDF9993E
:1038E000FECF92BD81BDF89A992780B50895262F05
:1038F000F999FECF1FBA92BD81BD20BD0FB6F894D5
:10390000FA9AF99A0FBE01960895A1E21A2EAA1BFF
:10391000BB1BFD010DC0AA1FBB1FEE1FFF1FA2177F
:10392000B307E407F50720F0A21BB30BE40BF50B7C
:10393000661F771F881F991F1A9469F76095709505
:10394000809590959B01AC01BD01CF010895EE0FCC
:10395000FF1F0590F491E02D09940E94651EA59F1C
:10396000900DB49F900DA49F800D911D112408957A
:10397000B7FF0C94AD1C0E94AD1C821B930B0895E5
:10398000DF93CF931F930F939A9DF02D219FF00DFE
:103990008B9DF00D8A9DE02DF10D039FF00D029F90
:1039A000E00DF11D4E9DE00DF11D5E9DF00D4F9D52
:1039B000F00D7F936F93BF92AF925F934F93D501BA
:1039C0000E94651E8B01AC01D7010E94651EEB01B0
:1039D000E80FF91FD6010E940F1D2F913F91D601CC
:1039E0000E94651EC60FD71FE81FF91FAF91BF9138
:1039F0000E940F1D2F913F910E94651EC60FD71F79
:103A0000E81FF91FD6010E94651EE60FF71F9801F7
:103A1000BE01CF010F911F91CF91DF9108950E94B8
:103A2000651E460F571FC81FD91F08F43196089509
:103A3000E894DF93CF93FC01DB010E94651E7F9326
:103A40006F93E9019A01AC01BF93AF933F932F931A
:103A5000DF010E94651E26F46C1B7D0B820B930B0D
:103A60009E01EB01FC010E940F1DAF91BF912F91B0
:103A70003F910E940F1DBE01CF01F9012F913F918F
:103A8000CF91DF910895689401C0E894F92FF12B4C
:103A900012F00C94771DA0E0B0E0E1E5FDE10C949C
:103AA000E91D092E059422F40E94D31D112392F4DE
:103AB000F0E80F26FFEFE094F09400951095B09495
:103AC000C094D094A194BF0ACF0ADF0AEF0AFF0A7C
:103AD0000F0B1F0B0E94821D07FC0E94D31DCDB748
:103AE000DEB7ECE00C94051E689401C0E8948F9258
:103AF0009F92CF93DF930E94821DDF91CF919F9081
:103B00008F90089588249924F401E401B0E49F93F0
:103B1000AA279A158B049C04ED05FE05CF05D00756
:103B2000A10798F4AD2FDC2FCF2FFE2FE92D982C75
:103B3000892E982F872F762F652F542F432F322FC2
:103B40002227B85031F7BF9127C01B2EBF91BB274A
:103B5000220F331F441F551F661F771F881F991F91
:103B6000881C991CEE1FFF1FCC1FDD1FAA1FBB1F47
:103B70008A149B04EC05FD05CE05DF05A007B107FF
:103B800048F08A189B08EC09FD09CE09DF09A00B53
:103B9000B10B21601A94E1F62EF49401AF01BE013D
:103BA000CD01000C089560957095809590953095A5
:103BB0004095509521953F4F4F4F5F4F6F4F7F4F2F
:103BC0008F4F9F4F08952F923F924F925F926F9227
:103BD0007F928F929F92AF92BF92CF92DF92EF929D
:103BE000FF920F931F93CF93DF93CDB7DEB7CA1B1E
:103BF000DB0B0FB6F894DEBF0FBECDBF09942A8849
:103C0000398848885F846E847D848C849B84AA84F0
:103C1000B984C884DF80EE80FD800C811B81AA817D
:103C2000B981CE0FD11D0FB6F894DEBF0FBECDBF48
:103C3000ED010895002E083090F0982F872F762FF1
:103C4000652F542F432F322F22270850F4CF220FF5
:103C5000331F441F551F661F771F881F991F0A9522
:103C6000B2F7002D089597FD1094002E083098F0BB
:103C70000850232F342F452F562F672F782F892F49
:103C8000912DF4CF159497958795779567955795CE
:103C90004795379527950A95AAF71124002D089581
:103CA0002A0D3B1D4C1D5D1D6E1D7F1D801F911F2C
:103CB00008950024A7FD00942A17300540055005FB
:103CC00060057005800590050895A29FB001B39F1F
:103CD000C001A39F700D811D1124911DB29F700D15
:103CE000811D1124911D08950F931F93CF93DF938E
:103CF0008230910510F482E090E0E0918103F09130
:103D0000820330E020E0B0E0A0E0309799F4211584
:103D1000310509F44AC0281B390B24303105D8F588
:103D20008A819B816115710589F1FB0193838283EF
:103D3000FE0111C04081518102811381481759074A
:103D4000E0F04817590799F4109761F012960C9318
:103D5000129713961C933296CF01DF91CF911F914A
:103D60000F9108950093810310938203F4CF2115DE
:103D7000310551F04217530738F0A901DB019A01D0
:103D8000BD01DF01F801C1CFEF01F9CF90938203AC
:103D900080938103CDCFFE01E20FF31F81939193B6
:103DA0002250310939832883D7CF20917F03309166
:103DB0008003232B41F420910801309109013093B5
:103DC000800320937F032091060130910701211584
:103DD000310541F42DB73EB740910A0150910B01D6
:103DE000241B350BE0917F03F0918003E217F3076A
:103DF000A0F42E1B3F0B2817390778F0AC014E5F5B
:103E00005F4F2417350748F04E0F5F1F5093800314
:103E100040937F03819391939FCFF0E0E0E09CCFAC
:103E2000CF93DF930097E9F0FC013297138212825F
:103E3000A0918103B0918203ED0130E020E0109762
:103E4000A1F420813181820F931F20917F03309153
:103E500080032817390709F061C0F0938003E093CD
:103E60007F03DF91CF910895EA01CE17DF07E8F5D0
:103E70004A815B819E0141155105B1F7E901FB8340
:103E8000EA8349915991C40FD51FEC17FD0761F4DE
:103E9000808191810296840F951FE901998388831F
:103EA000828193819B838A83F0E0E0E012968D917A
:103EB0009C9113970097B9F52D913C911197CD01E5
:103EC0000296820F931F20917F0330918003281761
:103ED000390739F6309751F5109282031092810319
:103EE000B0938003A0937F03BCCFD383C283408170
:103EF0005181840F951FC817D90761F44E5F5F4F3A
:103F000088819981480F591F518340838A819B8101
:103F1000938382832115310509F0B0CFF09382039A
:103F2000E09381039ECFFD01DC01C0CF138212829A
:063F3000D7CFF894FFCF8B
:103F3600010600FA0000000083038000030506075F
:103F4600090A0B0C0D0E0F2C343C000000003A053C
:103F56009A04C7048705F804D604EA0400000000A2
:103F660084085708F30834088C00440835080D0AFD
:103F7600000A0A004144582D4D494E4920312E3041
:103F86003462004170722031322032303233007791
:103F96006974682043415420737570706F727400A1
:103FA60046410049460030303030302B303030301A
:103FB6003030303030003100323030303030303058
:103FC6003B004149004149303B00494400494430E7
:103FD60031393B004D44004D44323B0050530050B4
:103FE60053313B005458005458303B00525800524D
:083FF60058303B00414100007E
:00000001FF
