:100000000C9462000C948A000C948A000C948A0070
:100010000C948A000C948A000C948A000C948A0038
:100020000C948A000C948A000C948A000C948A0028
:100030000C948A000C948A000C948A000C948A0018
:100040000C9487100C948A000C9455100C942F106B
:100050000C948A000C948A000C948A000C948A00F8
:100060000C94D1100C948A0000000000240027009A
:100070002A0000000000250028002B0000000000DE
:1000800023002600290004040404040404040202DA
:100090000202020203030303030301020408102007
:1000A0004080010204081020010204081020000012
:1000B0000008000201000003040700000000000027
:1000C0000000EC1111241FBECFEFD8E0DEBFCDBF82
:1000D00011E0A0E0B1E0ECE9F4E302C005900D927C
:1000E000A036B107D9F723E0A0E6B1E001C01D9228
:1000F000A931B207E1F710E0C2E6D0E004C02197D1
:10010000FE010E946217C136D107C9F70E9425126D
:100110000C944C1A0C9400008091D4019091D5015C
:10012000891B990B08952F923F924F925F926F9285
:100130007F928F929F92AF92BF92CF92DF92EF9277
:10014000FF920F931F93CF93DF93CDB7DEB76C97DA
:100150000FB6F894DEBF0FBECDBF322E3D87242EE2
:100160005E872B013C01A982BF86C88AD98AEA8AA8
:10017000FB8A0C8B1D8B988E8F8A211501EC300722
:100180000AE140070DE3500705E0600771058105AE
:10019000910509F0A0F52F3710EF31071AEF41074D
:1001A00012E05107610571058105910509F008F418
:1001B000B4C12F3F354D41415E4763407105810514
:1001C000910509F008F48FC029813F854889598934
:1001D0006A897B898C899D89A0E0992493940E94E7
:1001E0000C1909F08EC011E01E8B94E0892E912C21
:1001F000A12CB12C89869A86AB86BC862FC0312C67
:10020000B1ECBD872AE1222EEDE3EE8735E0432EE7
:10021000512C612C712CD8CFA32CBD84C22CDE8430
:100220007201830120E034E04BE654EF64E170E0BA
:1002300080E090E00E942918122FB32FF42FE52FB1
:10024000A7E00E940C1921F416E0B0E0F0E0E0E035
:10025000CF011987BA879B87EC871E8A89849A8485
:10026000AB84BC84A501940160E070E0CB01A32CB9
:10027000BD84C22CDE847201830129833A834B83BF
:100280005C836D837E838F83988760E070E080E07D
:1002900090E00E94731729833F87488B598B6A8BA4
:1002A0007B8B8C8B9D8B0E89C12CD12C7601C394BA
:1002B00040E050E0BA01013009F0A9C0AF89B88D23
:1002C0001D921D921D921C921397FD01148215829E
:1002D0001682178281E090E0A0E0B0E080879187ED
:1002E000A287B387DEC029813F85488959896A89F9
:1002F0007B898C899D89A0E00E940C1909F48CCF20
:10030000912CA32CBD84C22CDE847201830129812F
:100310003F85488959896A897B898C899D890E9492
:10032000291829873A874B875C8729853A854B8529
:100330005C8506E0A02EB12C263031054105510523
:1003400068F089859A85AB85BC8589309740A10581
:10035000B105D0F0B8E0AB2E17E0B12EC12CD12CF6
:10036000E12CF12C00E010E029813F854889598972
:100370006A897B898C899D890E942918322E3D8744
:10038000242E5E872B013C01A32CBD84C22CDE846D
:100390007201830129813F85488959896A897B894E
:1003A0008C899D890E942718E0E4AE2EF2E4BF2ECE
:1003B000AFE0CA2ED12CE12CF12C00E010E00E941D
:1003C0007317A32CBD84C22CDE84720183010E94AA
:1003D0002918A32FF42FE52F422F5A2F6F2F7E2F8E
:1003E000A0E4CA2EA2E4DA2EAFE0EA2EF12C4115E9
:1003F00051056105710521F4C12CD12C7601C394FE
:10040000AA24A3949A1409F46DC001E00E8BCB01C9
:10041000BA0117E0660F771F881F991F1A95D1F749
:10042000A70196010E944017298F3A8F4B8F5C8F4E
:1004300089849A84AB84BC8407E0880C991CAA1C2C
:10044000BB1C0A95D1F7950184011250210931098D
:1004500048015901298D3A8D4B8D5C8D280D391D30
:100460004A1D5B1DAF89B88D2D933D934D935C93D1
:100470001397FD0164837583868397831896CD92C5
:10048000DD92ED92FC921B978E88882051F0398284
:100490009D849F86288AAE84A98A4A8A5B8A6C8A50
:1004A0007D8A29813F85488959896A897B898C8918
:1004B0009D896C960FB6F894DEBF0FBECDBFDF915D
:1004C000CF911F910F91FF90EF90DF90CF90BF9051
:1004D000AF909F908F907F906F905F904F903F90E4
:1004E0002F900895AF89B88D1D921D921D921C9278
:1004F0001397FD01148215821682178281E090E025
:10050000A0E0B0E080879187A287B3873982FD851C
:10051000FF87288A8E84898AC0CF29813F854889B0
:1005200059896A897B898C899D89A0E0E0E83E2E03
:10053000F0EFFD87FAEF2F2E02E00E87412C512CB1
:10054000612C712C0E940C1909F0DACE18E0B7E08A
:100550007DCE2F923F924F925F926F927F928F92B9
:100560009F92AF92BF92CF92DF92EF92FF920F9342
:100570001F93CF93DF93CDB7DEB7AA970FB6F8944A
:10058000DEBF0FBECDBF0D871D8B298F3A8F4B8FDE
:100590005C8F6F8F7BA3FE8EED8E8111C4C1E091C5
:1005A000090224E0E29FF0011124EA50FE4F658920
:1005B00076898789908D24E630E040E050E00E9403
:1005C000CB17522E632E742E852E962E7A8B898B06
:1005D000492E86017501110FEE08FE2C8701950149
:1005E000A6016E2D7E2D8E2D9E2D0FE10E94CD1821
:1005F000A12CEAECBE2EFAE9CF2EABE3DA2EE12CE9
:10060000F12C00E010E00E94F817A52CB62CC72CA6
:10061000D82CE92CFA880989142D0E9473170FE150
:100620000E94E81829833A834B835C836D837E8321
:100630008F83988789819A81AB81BC81BB0F880B9E
:10064000982FDC0189879A87AB87BC87252D362DAB
:10065000472D582D692D7F2D8989942DA980BA8029
:10066000CB80DC80E984FE2C0E2D1E2D0E94031908
:1006700029833987498B5A8B6B8B7C8B1C016D844A
:100680007D88898C9A8C9C8D9D8B4F8C5BA093016F
:10069000A4016B8D792FC201211534404B46544F74
:1006A000644171058105910569F060F0612C24E0D9
:1006B000722E3BE6832E44EF942EB4E1BB8F1D8A4D
:1006C000412C512CEB8DEF8F9301A4016E2F7D896E
:1006D000C201211538454744584F6D4071058105C9
:1006E000910560F4612C08E5702E87E4882E98EF60
:1006F000992E2DE02F8F1D8A412C512CA980B98471
:10070000C988DA88EB88FC8881019301A4016F8D88
:100710007D89C2010E942918298F3A8F4B8F5C8FE7
:100720002D873E874F87588B8D859E85AF85B889ED
:100730001FE0A12E0F97A105B10558F02D853E852C
:100740004F8558892B35310541055105B8F0BAE57B
:10075000AB2EB12CC12CD12CE12CF12C00E010E0FF
:100760002981398549895A896B897C89C1010E940F
:10077000731739014A016F8F7D8B2C01A980B984D1
:10078000C988DA88EB88FC8881019301A4016F8D08
:100790007D89C2010E942718E0E4AE2EF2E4BF2E4C
:1007A000AFE0CA2ED12CE12CF12C00E010E00E9429
:1007B0007317A980B984C988DA88EB88FC8881011D
:1007C0000E94291849014CA35BA3C901DA0121E069
:1007D00030E040E050E00097A105B10521F020E4B1
:1007E00032E44FE050E02D8B3E8B4F8B588FBC0195
:1007F000CD0127E0660F771F881F991F2A95D1F733
:100800002D893E894F89588D0E94401729013A0150
:100810006F8F78A389A39AA3A980B984C988DA883D
:10082000EB88FC88810194014CA15BA160E070E041
:1008300080E090E00E9473172BA33CA34DA35EA31E
:100840006FA378A789A79AA78D859E85AF85B8895C
:1008500037E0880F991FAA1FBB1F3A95D1F7925016
:10086000A109B109840D951DA61DB71DED8DFE8D45
:1008700080839183A283B3832F8D38A149A15AA18C
:1008800024833583468357832D893E894F89588D2C
:100890002087318742875387298D3A8D4B8D5C8D18
:1008A00060E070E080E090E00E94731729013A0157
:1008B0004B01898799838D899E89AF89B88D5C01A9
:1008C0006D01E12CF12C00E010E02BA13CA14DA129
:1008D0005EA16FA178A589A59AA50E942918590142
:1008E0006A017B018C019201A301B4018985998180
:1008F0000E940319AA960FB6F894DEBF0FBECDBFB3
:10090000DF91CF911F910F91FF90EF90DF90CF90EB
:10091000BF90AF909F908F907F906F905F904F901F
:100920003F902F900895E0910A0234E0E39FF00198
:1009300011243BCEAF92BF92CF92DF92EF92FF9203
:100940000F931F93CF93DF936C017B018B01040FF7
:10095000151FEB015E01AE18BF08C017D10759F093
:100960006991D601ED91FC910190F081E02DC601D5
:100970000995892B79F7C501DF91CF911F910F91CF
:10098000FF90EF90DF90CF90BF90AF900895FC0163
:10099000538D448D252F30E0842F90E0821B930BE4
:1009A000541710F0CF96089501970895FC01918D8A
:1009B000828D981761F0A28DAE0FBF2FB11D5D968D
:1009C0008C91928D9F5F9F73928F90E008958FEF2F
:1009D0009FEF0895FC01918D828D981731F0828DE3
:1009E000E80FF11D858D90E008958FEF9FEF08953A
:1009F000FC01918D228D892F90E0805C9F4F821B9E
:100A000091098F73992708958CE692E00E94F8046B
:100A100021E0892B09F420E0822F089580E090E006
:100A2000892B29F00E94040581110C94000008957F
:100A3000FC01A48DA80FB92FB11DA35ABF4F2C9153
:100A4000848D90E001968F739927848FA689B7894A
:100A50002C93A089B1898C91837080648C93938D41
:100A6000848D981306C00288F389E02D80818F7DE4
:100A700080830895EF92FF920F931F93CF93DF939C
:100A8000EC0181E0888F9B8D8C8D98131AC0E889CA
:100A9000F989808185FF15C09FB7F894EE89FF8999
:100AA0006083E889F98980818370806480839FBF37
:100AB00081E090E0DF91CF911F910F91FF90EF9037
:100AC0000895F62E0B8D10E00F5F1F4F0F73112747
:100AD000E02E8C8D8E110CC00FB607FCFACFE88982
:100AE000F989808185FFF5CFCE010E941805F1CFED
:100AF000EB8DEC0FFD2FF11DE35AFF4FF0829FB7F6
:100B0000F8940B8FEA89FB8980818062CFCFCF93E5
:100B1000DF93EC01888D8823B9F0AA89BB89E88925
:100B2000F9898C9185FD03C0808186FD0DC00FB6CB
:100B300007FCF7CF8C9185FFF2CF808185FFEDCF49
:100B4000CE010E941805E9CFDF91CF91089583303F
:100B500081F028F4813099F08230A9F0089587302F
:100B6000A9F08830C9F08430B1F4809180008F7D85
:100B700003C0809180008F7780938000089584B5B2
:100B80008F7784BD089584B58F7DFBCF8091B000B1
:100B90008F778093B00008958091B0008F7DF9CF5A
:100BA000CF93DF93282F30E0F901E255FF4F849176
:100BB000F901E656FF4FD491F901EA57FF4FC4916E
:100BC000CC23A1F081110E94A705EC2FF0E0EE0FDD
:100BD000FF1FE458FF4FA591B491EC91ED2381E004
:100BE00090E009F480E0DF91CF91089580E090E0FB
:100BF000FACF1F93CF93DF93282F30E0F901E2550E
:100C0000FF4F8491F901E656FF4FD491F901EA575D
:100C1000FF4FC491CC23A9F0162F81110E94A70584
:100C2000EC2FF0E0EE0FFF1FEE58FF4FA591B491AF
:100C30008FB7F894EC91111108C0D095DE23DC93A6
:100C40008FBFDF91CF911F910895DE2BF8CFCF9307
:100C5000DF9390E0FC01E656FF4F24918A579F4FA7
:100C6000FC0184918823D1F090E0880F991FFC014A
:100C7000E859FF4FA591B491FC01EE58FF4FC59183
:100C8000D49161110EC09FB7F8948C91E22FE0953A
:100C90008E238C932881E223E8839FBFDF91CF913D
:100CA00008958FB7F894EC91E22BEC938FBFF6CFB9
:100CB0003FB7F8948091BD019091BE01A091BF0112
:100CC000B091C00126B5A89B05C02F3F19F0019631
:100CD000A11DB11D3FBFBA2FA92F982F8827BC0196
:100CE000CD01620F711D811D911D42E0660F771FBE
:100CF000881F991F4A95D1F708958F929F92AF92BE
:100D0000BF92CF92DF92EF92FF924B015C010E9463
:100D100058066B017C010E9458066C197D098E09EA
:100D20009F09683E734081059105A8F321E0821A6E
:100D30009108A108B10888EEC80E83E0D81EE11C16
:100D4000F11C81149104A104B10429F7FF90EF90E4
:100D5000DF90CF90BF90AF909F908F9008952FB766
:100D6000F8946091B9017091BA018091BB019091A2
:100D7000BC012FBF0895CF92DF92EF92FF92CF93E5
:100D8000DF930E94AF066B017C012FEFC21AD20ADB
:100D9000E20AF20ACBE8D1E06C157D058E059F05CD
:100DA00030F4CE010197F1F70E94AF06F5CFDF9145
:100DB000CF91FF90EF90DF90CF9008951F93CF9346
:100DC000DF93C1E0C0937401882399F1D091B800FA
:100DD0001091BA008091BC008A7B8093BC0060E0D7
:100DE00082E10E94F90560E083E10E94F90510921A
:100DF0004202C093410210921C0261E082E10E9413
:100E0000F90561E083E10E94F9058091B9008E7FC8
:100E10008093B9008091B9008D7F8093B90088E4F8
:100E20008093B80085E48093BC001093BA00D093FF
:100E3000B800DF91CF911F9108958F929F92AF924A
:100E4000BF92CF92DF92EF92FF920F931F93CF93B7
:100E5000DF93D0916B02D13208F0D7C0182FC09128
:100E60006A020E9458066B017C0180914202811146
:100E70006BC082E080934202109341028FEF809317
:100E8000400210923F02D0933E02AAE4B2E0EEE1AB
:100E9000F2E080E0D81391C010921D0280911D02F3
:100EA000CC0FC82BC0931D0280911C02813009F029
:100EB00088C010921C020E9458066B017C01809130
:100EC0001D028093BB008091440290914502A09145
:100ED0004602B0914702892B8A2B8B2BA1F00E94EE
:100EE000580600914402109145022091460230912B
:100EF00047026C197D098E099F09061717072807F5
:100F0000390708F442C08091BC0083FDD8CF85EC3E
:100F10008093BC000E9458066B017C0180914202C4
:100F2000823009F450C0809140028F3F09F46FC0B5
:100F300080914002803209F46CC08091400280337D
:100F400009F469C084E026C0809144029091450272
:100F5000A0914602B0914702892B8A2B8B2B09F472
:100F600084CF0E9458068090440290904502A09041
:100F70004602B09047026C197D098E099F098616BA
:100F80009706A806B90608F070CF809143020E9428
:100F9000DE0685E01092490210926B021092480220
:100FA000DF91CF911F910F91FF90EF90DF90CF9045
:100FB000BF90AF909F908F9008959D9191938F5F78
:100FC00069CF85EEA5CF8091440290914502A09112
:100FD0004602B0914702892B8A2B8B2B09F49ECFB6
:100FE0000E94580600914402109145022091460249
:100FF000309147026C197D098E099F090617170762
:101000002807390708F08ACFC0CF81E0C3CF80E03E
:10101000C1CF82E0BFCF83E0BDCF20919501260FE5
:101020003327331F21323105ECF420914202FC01B9
:1010300090E080E0243069F082E00895A09195016D
:101040002191AC014B585E4FA40FB52FB11D2C93CD
:101050000196861798F380919501680F609395012A
:1010600080E0089581E008950895E091D501809190
:10107000D401E81730F4F0E0EA52FE4F808190E0AE
:1010800008958FEF9FEF08959091D5018091D4013D
:101090002FEF3FEF981748F4E92FF0E0EA52FE4FA8
:1010A000208130E09F5F9093D501C9010895CF92D0
:1010B000DF92EF92FF920F931F93CF93DF937C0108
:1010C000CB018A0120914802222389F0EB016B01B8
:1010D000C40ED51ECC15DD0569F06991D701ED91DF
:1010E000FC910190F081E02DC7010995F3CF642FA9
:1010F0000E940D08C801DF91CF911F910F91FF90C1
:10110000EF90DF90CF900895CF93DF931F92CDB7EC
:10111000DEB76983209148022223F9F020916B0207
:10112000203258F021E030E0FC013383228390E04C
:1011300080E00F90DF91CF91089580914902E82FD0
:10114000F0E0E65BFD4F998190838F5F80934902C9
:1011500080936B0281E090E0ECCF61E0CE010196DC
:101160000E940D08F7CFCF93C62F91E090934802CD
:1011700090E690936A021092490210926B02682FD7
:1011800089E093E00E9484086C2F89E093E00E943C
:10119000840881E0CF910C941D070F931F93CF9388
:1011A000DF938B0191E09093480290E690936A025E
:1011B0001092490210926B02682F89E093E00E941E
:1011C0008408E801085F1F4F699189E093E00E945D
:1011D0008408C017D107C1F781E0DF91CF911F913B
:1011E0000F910C941D0790E080E00895CF93DF935A
:1011F000C82F662329F0E62FF0E0E55FFE4FC0819F
:101200006C2F61708CE00E94F905D0E0BE017595ED
:10121000679561708BE00E94F905BE017595679531
:101220007595679561708AE00E94F90523E0D59570
:10123000C7952A95E1F76C2F617089E0DF91CF9116
:101240000C94F90560E08CE00E94F90560E08BE009
:101250000E94F90560E08AE00E94F90560E089E0FB
:101260000C94F9050E9422096AEF70E080E090E09A
:101270000E947D0660E0809101010E94F6086AEFFD
:1012800070E080E090E00E947D060E9422096AEFF3
:1012900070E080E090E00E947D0660E080910101B6
:1012A0000E94F6086AEF70E080E090E00C947D0602
:1012B0000E9422096AEF70E080E090E00E947D06C3
:1012C0006091000180E00E94F6086AEF70E080E023
:1012D00090E00E947D060E9422096AEF70E080E0A3
:1012E00090E00E947D066091000180E00E94F60877
:1012F0006AEF70E080E090E00C947D061F93CF933E
:10130000DF930E942209C4E0D1E011E06D2F8DE04F
:101310000E94F905D1276AEF70E080E090E00E941A
:101320007D06C15099F7DF91CF911F91089583E019
:101330000E94D005892BD9F382E00E94D005892B29
:10134000B1F384E00E94D005892B89F364E170E059
:1013500080E090E00C947D06FF920F931F93CF9353
:10136000DF938C01EB01F8800E942A17F81621F018
:101370006F2DC8010E943217CE01DF91CF911F91CE
:101380000F91FF900895FF920F931F93CF93DF93D8
:1013900002E011E0CAE0D0E0F801F1908F01CE0147
:1013A0000E942A17F81621F06F2DCE010E943217E5
:1013B0002196CE30D10581F782E091E0DF91CF9187
:1013C0001F910F91FF900895CF93DF93EB010E943F
:1013D0002A178883CE01DF91CF910895FC010190F7
:1013E0000020E9F73197AF01481B590BBC018CE68F
:1013F00092E00C949A04CF92DF92EF92FF920F93B7
:101400001F93CF9391E09093480290E690936A02E5
:101410001092490210926B02682F89E093E00E94BB
:10142000840881E00E941D070E9458066B017C0120
:1014300080914202811164C081E080934202109247
:1014400041029FEF9093400210923F0210923E02A1
:1014500080931D0280911D02806C80931D028091FB
:101460001C02813009F080C010921C020E945806B4
:101470006B017C0180911D028093BB00809144022E
:1014800090914502A0914602B0914702892B8A2B88
:101490008B2BA1F00E945806009144021091450246
:1014A00020914602309147026C197D098E099F09EF
:1014B000061717072807390708F443C08091BC00B6
:1014C00083FDD8CF85EC8093BC000E9458066B0149
:1014D0007C0180914202813009F448C080913F0232
:1014E000C1E0811102C0C0913F02EEE1F2E0A6ED41
:1014F000B1E080E08C1751F191919D938F5FFACF0D
:101500008091440290914502A0914602B091470219
:10151000892B8A2B8B2B09F48BCF0E9458060091C4
:1015200044021091450220914602309147026C1905
:101530007D098E099F09061717072807390708F044
:1015400077CF809143020E94DE06C0E01092D50161
:10155000C093D40180E09091D501C91749F189E089
:1015600093E00E944408F7CF85EEADCF809144020E
:1015700090914502A0914602B0914702892B8A2B97
:101580008B2B09F4A6CF0E945806009144021091BB
:10159000450220914602309147026C197D098E095F
:1015A0009F09061717072807390708F092CFC9CFF8
:1015B000CF911F910F91FF90EF90DF90CF90089502
:1015C000CF93DF93D82FC62F83E00E94FB0961E001
:1015D00070E001C0660FDA95EAF7C13039F4609522
:1015E000682383E0DF91CF910C94B308682BF9CF87
:1015F000CF93DF93C62FE82FF0E0E95EFE4FD08156
:101600008D2F0E94FB0990E1C99FB00111248378BE
:10161000682B8D2FDF91CF910C94B308CF93C0E14D
:10162000C80F8C2F0E94FB09682F6F7B8C2FCF91E6
:101630000C94B308CF93DF93D62FC0E1C80F8C2F43
:101640000E94FB098C7F682F6D2B8C2FDF91CF912F
:101650000C94B3082F923F924F925F926F927F92B9
:101660008F929F92AF92BF92CF92DF92EF92FF92B2
:101670000F931F93CF93DF93CDB7DEB72D970FB6A0
:10168000F894DEBF0FBECDBF19012A013B014C010A
:101690000D8701116BC0E091090284E0E89FF00121
:1016A0001124EA50FE4FA58CB68CC78CD0A0FE0149
:1016B00031967F0189019A01AB01B40180E00E945B
:1016C000A90284E190E00E9427198C0189859A85FE
:1016D000AB85BC85F8019083818339814A812B8158
:1016E00023702283438334832CE0B695A795979586
:1016F00087952A95D1F7807F2D813E819F819F70AC
:10170000892B858336832783FD85B801F11143C07A
:101710008AE10E94CD082092F9013092FA014092AC
:10172000FB015092FC016092FD017092FE018092DB
:10173000FF0190920002C8012D960FB6F894DEBF0B
:101740000FBECDBFDF91CF911F910F91FF90EF9012
:10175000DF90CF90BF90AF909F908F907F906F90D1
:101760005F904F903F902F900C94C319E0910A0224
:1017700084E0E89FF0011124EA50FE4FA58CB68C5E
:10178000C78CD0A0FE0131967F0189019A01AB017F
:10179000B40181E094CF82E20E94CD082092010240
:1017A00030920202409203025092040260920502BB
:1017B000709206028092070290920802BCCF0F93AB
:1017C000CF93DF93C6EFD1E06D8F7E8F8F8F98A37D
:1017D0002B813C814D815E816F81788500E0898518
:1017E0009A850E942A0B2B853C854D855E856F85E9
:1017F000788901E089899A890E942A0BDF91CF912B
:101800000F9108952F923F924F925F926F927F9225
:101810008F929F92AF92BF92CF92DF92EF92FF9200
:101820000F931F93CF93DF93CDB7DEB72E970FB6ED
:10183000F894DEBF0FBECDBF2901B42FA52F6D8751
:101840007E871C01602E20583A41464051096109AB
:101850007109810991092F373A41464051056105C7
:1018600071058105910511F008F092C092014B2F8E
:101870005A2F6D857E85C10107E00E94CD18290190
:10188000B42FA52F6D877E871C0167E0762E862DED
:1018900090E08A509E4FFC018081811171C1A0901F
:1018A000F901B090FA01C090FB01D090FC01E090EA
:1018B000FD01F090FE010091FF0110910002CE01A8
:1018C00001964C0192014B2F5A2F6D857E85C101E7
:1018D0000E949300B980AA800B813D802E801F81D9
:1018E000C984DA84EB84FC8484E190E00E942719A7
:1018F0002C01FC01D082C182862D880F880F880FB1
:10190000845D0E94FB0903708C7F082BF201028327
:10191000A382B4828CE0F694E794D794C7948A9516
:10192000D1F7FC2DF07FCF2E1F70C12AF201C582A6
:1019300026823782F1E06F1609F436C112E0B20157
:10194000611609F43BC18AE20E94CD0880E00E9442
:101950000E0B672D80E00E94F80AC2012E960FB68A
:10196000F894DEBF0FBECDBFDF91CF911F910F91D5
:10197000FF90EF90DF90CF90BF90AF909F908F90AF
:101980007F906F905F904F903F902F900C94C31971
:1019900092014B2F5A2F6D857E85C10135534C40E6
:1019A000510961097109810991092F3F34434C4064
:1019B0005105610571058105910509F090F49201C9
:1019C0004B2F5A2F6D857E85C10106E00E94CD18F0
:1019D0002901B42FA52F6D877E871C0156E0752E37
:1019E00056CF92014B2F5A2F6D857E85C1013A56F5
:1019F0004841510961097109810991092F3F39460F
:101A000048415105610571058105910509F090F482
:101A100092014B2F5A2F6D857E85C10105E00E94F2
:101A2000CD182901B42FA52F6D877E871C0145E0B5
:101A3000742E2DCF92014B2F5A2F6D857E85C101BB
:101A4000345D4043510961097109810991092F3FB2
:101A5000334D40435105610571058105910509F03C
:101A600090F492014B2F5A2F6D857E85C10104E0C1
:101A70000E94CD182901B42FA52F6D877E871C01E8
:101A800034E0732E04CF92014B2F5A2F6D857E8543
:101A9000C101385A41465109610971098109910909
:101AA0002F3F374A41465105610571058105910572
:101AB00009F090F492014B2F5A2F6D857E85C1015C
:101AC00003E00E94CD182901B42FA52F6D877E87D2
:101AD0001C0123E0722EDBCE92014B2F5A2F6D8515
:101AE0007E85C1013055434C510961097109810955
:101AF00091092F3F3F44434C510561057105810514
:101B0000910509F090F492014B2F5A2F6D857E8537
:101B1000C10102E00E94CD182901B42FA52F6D87C5
:101B20007E871C0192E0792EB2CE92014B2F5A2F64
:101B30006D857E85C101305A464851406109710961
:101B400081099109712C2F3F3F4946485140610559
:101B500071058105910511F008F099CE92014B2F86
:101B60005A2F6D857E85C10101E00E94CD182901A3
:101B7000B42FA52F6D877E871C017724739487CEA1
:101B8000A0900102B0900202C0900302D090040223
:101B9000E0900502F0900602009107021091080201
:101BA000FE0131964F018ECEB20182E30E94CD0834
:101BB00081E00E940E0B672D81E0CDCE8AE30E946A
:101BC000CD0882E00E940E0B672D82E0C4CE0F93F9
:101BD000CF93DF9360E08DE00E94F90560E080E044
:101BE0000E94E00A209170013091710140917201D0
:101BF00050917301A4E6B0E00E946817DC0101E097
:101C00009B01AD0160E070E080E090E00E94020C7A
:101C100061E081E00E94E00A61E088E0DF91CF911D
:101C20000F910C94F90580910101823099F1A0F493
:101C30008130C9F18091700190917101A091720180
:101C4000B09173018093C1019093C201A093C3012D
:101C5000B093C4010C94E70D843099F0883051F7AB
:101C60008091600190916101A0916201B091630146
:101C70008093700190937101A0937201B0937301EE
:101C8000D9CF8091640190916501A0916601B091D6
:101C90006701EECF8091680190916901A0916A017E
:101CA000B0916B01E5CF80916C0190916D01A09195
:101CB0006E01B0916F01DCCFE0910001E250EA309B
:101CC00008F03FC0F0E0E959F14F0C946217950F0E
:101CD0006C0F430F1E0FF50ECC0EA30EA10E710E4E
:101CE000710E88E095E8A6E3B0E080936C019093D4
:101CF0006D01A0936E01B0936F0188ED9CE8A6E39F
:101D0000B0E08093680190936901A0936A01B09359
:101D10006B0180E998E9A6E3B0E0809364019093B9
:101D20006501A0936601B093670188ED93E7A6E390
:101D3000B0E08093600190936101A0936201B09341
:101D400063010C94130E80ED90EFABE6B0E080934E
:101D50006C0190936D01A0936E01B0936F018CE4C0
:101D600099E8ABE6B0E08093680190936901A09395
:101D70006A01B0936B0180E790E0ACE6B0E080933D
:101D8000640190936501A0936601B093670188E8B0
:101D900096E6ABE6B0E0CDCF80EC99EAAAE9B0E0F8
:101DA00080936C0190936D01A0936E01B0936F01CD
:101DB00080E699EBAAE9B0E080936801909369010D
:101DC000A0936A01B0936B0180E592E9AAE9B0E0C3
:101DD0008093640190936501A0936601B0936701BD
:101DE0008CE494EBAAE9B0E0A4CF80E990ECA6EDF6
:101DF000B0E080936C0190936D01A0936E01B0935D
:101E00006F0180E098EDA6EDB0E0809368019093BB
:101E10006901A0936A01B0936B0180E390EDA6ED98
:101E2000B0E08093640190936501A0936601B09344
:101E3000670180EF94E1A7EDB0E07BCF80E29FE205
:101E4000A4E1B1E080936C0190936D01A0936E01C9
:101E5000B0936F0180EC9EE3A4E1B1E08093680150
:101E600090936901A0936A01B0936B018093640120
:101E700090936501A0936601B093670188E191E4B6
:101E8000A4E1B1E056CF80E590E9A1E4B1E0809310
:101E90006C0190936D01A0936E01B0936F0180E28D
:101EA00092E9A2E4B1E08093680190936901A09364
:101EB0006A01B0936B0180EF9FE9A1E4B1E08093E8
:101EC000640190936501A0936601B093670188EC6B
:101ED00090EEA1E4B1E02DCF88E39CE2ACE7B1E065
:101EE00080936C0190936D01A0936E01B0936F018C
:101EF00088ED9BE3ACE7B1E08093680190936901C2
:101F0000A0936A01B0936B0180E997E4ACE7B1E07C
:101F10008093640190936501A0936601B09367017B
:101F200088EB91E5ACE7B1E004CF80E190E6ACEA64
:101F3000B1E080936C0190936D01A0936E01B0931A
:101F40006F0180E29EEFADEAB1E08093680190936B
:101F50006901A0936A01B0936B0180EB9FE6ACEA44
:101F6000B1E08093640190936501A0936601B09302
:101F7000670188EB95E2ADEAB1E0DBCE0F93CF933A
:101F8000DF9360E088E00E94F90560E081E00E9454
:101F9000E00A61E08DE00E94F90520917001309126
:101FA00071014091720150917301A4E6B0E00E946A
:101FB0006817DC0100E09B01AD0160E070E080E0AB
:101FC00090E00E94020C61E080E00E94E00A84E060
:101FD0000E94D005892BD9F364E170E080E090E0A5
:101FE0000E947D06DF91CF910F910C94E70D85ED56
:101FF0008093BC008091440290914502A0914602DA
:10200000B09147020796A11DB11D23E0B695A79593
:10201000979587952A95D1F72091BC0024FD03C0A0
:1020200010924202089540914402509145026091FD
:10203000460270914702452B462B472B69F30097C8
:10204000A105B10541F025E32A95F1F700000197BC
:10205000A109B109E1CF809143020C94DE061F92E1
:102060000F920FB60F9211242F933F934F935F93CC
:102070006F937F938F939F93AF93BF93EF93FF9350
:102080008CE692E00E941805FF91EF91BF91AF910D
:102090009F918F917F916F915F914F913F912F9180
:1020A0000F900FBE0F901F9018951F920F920FB6B2
:1020B0000F9211242F938F939F93EF93FF93E091AF
:1020C0007C02F0917D028081E0918202F091830296
:1020D00082FD1BC09081809185028F5F8F7320915C
:1020E0008602821741F0E0918502F0E0E459FD4F4D
:1020F000958F80938502FF91EF919F918F912F9102
:102100000F900FBE0F901F9018958081F4CF1F92F3
:102110000F920FB60F9211242F933F938F939F939B
:10212000AF93BF938091B9019091BA01A091BB0187
:10213000B091BC013091B80123E0230F2D3758F541
:102140000196A11DB11D2093B8018093B901909310
:10215000BA01A093BB01B093BC018091BD019091E5
:10216000BE01A091BF01B091C0010196A11DB11D9A
:102170008093BD019093BE01A093BF01B093C001B5
:10218000BF91AF919F918F913F912F910F900FBE73
:102190000F901F90189526E8230F0296A11DB11DE0
:1021A000D2CF1F920F920FB60F9211242F933F930D
:1021B0004F935F936F937F938F939F93AF93BF934F
:1021C000EF93FF938091B900887F803609F44AC06D
:1021D000F0F5883209F4A5C018F5803109F499C0EA
:1021E000B8F4882309F4F5C0883009F492C0FF914F
:1021F000EF91BF91AF919F918F917F916F915F917F
:102200004F913F912F910F900FBE0F901F901895F7
:10221000883109F486C0803251F78093400214C09F
:10222000803409F49BC040F48033B9F38833F9F665
:102230008093400285ECAEC0803509F483C08835B8
:1022400009F494C0883499F60E94F70FD0CF8839EA
:1022500009F48AC038F5883729F050F4883611F02F
:10226000803729F683E0809342021092B70155C06F
:10227000883809F479C0803919F0803809F0B7CF6F
:102280008091B701803208F06FC0E091B70181E022
:102290008E0F8093B7018091BB00F0E0E956FE4FAE
:1022A00080833BC0803B39F0D0F4803A09F477C09A
:1022B000883A09F09CCF84E0809342021092960104
:1022C00010929501F0E0E0E009958091950181116F
:1022D0000FC081E0809395011092750109C0803C88
:1022E00009F4A8CF883C09F4A5CF883B09F07FCF3B
:1022F000E091960181E08E0F80939601F0E0EB581B
:10230000FE4F80818093BB00909196018091950152
:1023100029C080911D028093BB0085EC8093BC0096
:1023200066CF90913F0280913E02981758F5E09158
:102330003F0281E08E0F80933F02F0E0E25EFD4FAE
:102340008081E9CFE0913F0281E08E0F80933F02D0
:102350008091BB00F0E0E25EFD4F808390913F02F0
:1023600080913E029817C8F285E8D8CFE0913F02ED
:1023700081E08E0F80933F028091BB00F0E0E25E2F
:10238000FD4F80838091410281115ECF81E0809377
:102390001C0284EA8093BC001092420228CF85EC94
:1023A0008093BC00109242028091B701803230F4D9
:1023B000E091B701F0E0E956FE4F10826091B7015D
:1023C00070E087E991E0F0E0E0E009951092B70154
:1023D0000ECF1092400238CFECE6F2E01382128268
:1023E00088EE93E0A0E0B0E084839583A683B78372
:1023F0002EE131E03183208325EC30E035872487DE
:1024000024EC30E03787268720EC30E0318B208BBE
:1024100021EC30E0338B228B22EC30E0358B248BA7
:1024200026EC30E0378B268B118E128E138E148E95
:10243000E9E0F3E01382128284839583A683B78355
:1024400080E391E0918380830895789484B58260DD
:1024500084BD84B5816084BD85B5826085BD85B548
:10246000816085BD80916E00816080936E001092C6
:102470008100809181008260809381008091810041
:1024800081608093810080918000816080938000D2
:102490008091B10084608093B1008091B000816030
:1024A0008093B00080917A00846080937A0080915C
:1024B0007A00826080937A0080917A0081608093B4
:1024C0007A0080917A00806880937A001092C1002F
:1024D00060E082E00E94270660E083E00E94270619
:1024E00060E084E00E94270661E08DE00E942706FC
:1024F00061E089E00E94270661E08AE00E942706E9
:1025000061E08BE00E94270661E08CE00E942706D4
:1025100061E088E00E94270660E087E00E942706CD
:1025200060E08DE00E94F90560E089E00E94F90515
:1025300060E08AE00E94F90560E08BE00E94F90506
:1025400060E08CE00E94F90560E088E00E94F905F7
:10255000E0917C02F0917D0282E08083E09178023C
:10256000F09179021082E0917A02F0917B0280E191
:10257000808310928402E0918002F091810286E0D3
:102580008083E0917E02F0917F0280818061808370
:10259000E0917E02F0917F02808188608083E091EB
:1025A0007E02F0917F02808180688083E0917E02CC
:1025B000F0917F0280818F7D80838EE391E00E9485
:1025C000EE0981E491E00E94EE0980E591E00E942D
:1025D000EE0983E591E00E94EE0980E591E00E941A
:1025E000EE098EE391E00E94EE0982E00E94D005A0
:1025F000892B09F4B2C182E00E94D005892BD9F35E
:1026000064E170E080E090E00E947D060E94220973
:102610008AE090E00E942A17809302018BE090E00C
:102620000E942A17809303018CE090E00E942A17F1
:10263000809304018DE090E00E942A1780930501A9
:1026400061E071E088E290E00E94E40960E071E0FE
:1026500082E390E00E94E4098091020190910301DD
:10266000A0910401B091050184569109A109B10915
:102670008D339648A140B10570F080E09AEFA0E05C
:10268000B0E08093020190930301A0930401B09302
:1026900005010E94C309809101018150883048F0F2
:1026A00088E08093010161E071E088E290E00E949F
:1026B000AC098091000181508B3048F081E080931B
:1026C000000160E071E082E390E00E94AC0980E4E8
:1026D00098E7ADE7B1E080930B0290930C02A093D2
:1026E0000D02B0930E021092090210920A0210928B
:1026F0001B0262E987EB0E94B30860E088E10E9458
:10270000B3086FEF89E00E94B30860E880E10E949F
:10271000B30860E881E10E94B30860E882E10E94AA
:10272000B3086CE080E10E94B3086CE081E10E9494
:10273000B3086CE082E10E94B3086FEF83E00E946F
:10274000B30800E020E030E24FE550EA62E170E0DB
:1027500080E090E00E942A0B01E020E030E24FE5AB
:1027600050EA62E170E080E090E00E942A0B06EF00
:1027700011E0C0E1F80111928F018C2F0E94FB093A
:10278000682F6F7D8C2F0E94B308F801319710825B
:10279000CF5FC33179F760E082EA0E94B30860E05E
:1027A00083EA0E94B30860E084EA0E94B30860E212
:1027B00081EB0E94B30860E881EB0E94B30860914E
:1027C00002017091030180910401909105010E9422
:1027D000DF0B00E020E030E24FE550EA62E170E01C
:1027E00080E090E00E942A0B63E080E00E941A0BD8
:1027F00060E081E00E941A0B0E945C0E83E00E9460
:10280000D005892B09F04AC060E08FE00E94F608ED
:102810000E94970960E089E00E94F60860E082E08B
:102820000E941A0B02E020E031EE45EF55E060E037
:1028300070E080E090E00E94020C82E10E94FB09BF
:10284000682F6F7782E10E94B30861E082E00E9406
:10285000E00A84E00E94D005892B09F087C00E941D
:10286000220984E00E94D005892BD9F364E170E04D
:1028700080E090E00E947D0660E082E00E94E00A35
:1028800082E10E94FB09682F606882E10E94B30820
:102890000E94C3090E947E090E94E70D10928000E9
:1028A00081E88093810080B7846080BF80E286BB2E
:1028B0000E94580964EF71E080E090E00E947D067C
:1028C0000E9432090E94970910E2412C30E1532EF8
:1028D0003EE5632E3FE5732EC0E0D0E04BE0342EA2
:1028E000B59B0FC08091C901811180C08091860085
:1028F000909187009093C8018093C70181E08093F5
:10290000C9018091D301882309F4D5C00E94AF0684
:10291000C090CA01D090CB01E090CC01F090CD01E5
:102920006C197D098E099F0960317105810591053A
:1029300058F01092D3011092C9010E94E70D60E097
:10294000809101010E94F608209751F20E9404052F
:10295000882331F20E940000C3CF0E94C30961E0C6
:1029600071E088E290E00E94AC09ABCE83E00E9467
:10297000D005892B41F5609102017091030180918E
:1029800004019091050164567109810991096093D0
:1029900002017093030180930401909305010E944A
:1029A000DF0B02E020E031EE45EF55E060E070E043
:1029B00080E090E00E94020C64E170E080E090E032
:1029C0000E947D0646CF82E00E94D005892B09F047
:1029D00040CF6091020170910301809104019091B8
:1029E00005016C597F4F8F4F9F4FD1CF8091C70109
:1029F0009091C8019093C6018093C5018091860093
:102A0000909187009093C8018093C70116BBE09016
:102A1000C701F090C8018091C5019091C601E81AE4
:102A2000F90AE114FAEFFF06D8F58091D30181117C
:102A300015C00E94220961E08DE00E94F90560E066
:102A400088E00E94F90560E081E00E94E00A61E010
:102A500080E00E94E00A81E08093D3012091C101CF
:102A60003091C2014091C3015091C401A4E6B0E08D
:102A70000E9468174B015C01970150E040E0C301E0
:102A8000B2010E944017820E931EA41EB51E00E0E4
:102A90009401A50160E070E080E090E00E94020CEB
:102AA0000E94AF066093CA017093CB018093CC0162
:102AB0009093CD0126CF82E00E94D005892B09F0AA
:102AC00000C10E94AF066B017C01C092CF01D09281
:102AD000D001E092D101F092D20181E08093CE0149
:102AE00082E00E94D005892B79F40E94AF066C1910
:102AF0007D098E099F096D3271408105910508F4A9
:102B000034C182E08093CE018091CE01823009F001
:102B100072C10E94580982E00E94D005892BD9F326
:102B200083E00E94D005892BB1F364E170E080E07E
:102B300090E00E947D06BB24B39482E00E94D00501
:102B400000E0892BD9F50E94AF066B017C01C09291
:102B5000CF01D092D001E092D101F092D201B09297
:102B6000CE0182E00E94D005892B79F40E94AF0645
:102B70006C197D098E099F096D327140810591059F
:102B800008F4F6C082E08093CE0164E170E080E05A
:102B900090E00E947D068091CE01823009F0EBC06A
:102BA0000E94320901E082E00E94D005892BD9F30E
:102BB00064E170E080E090E00E947D0683E00E9486
:102BC000D005892BD9F50E94AF066B017C01C0921C
:102BD000CF01D092D001E092D101F092D201B09217
:102BE000CE0183E00E94D005892B79F40E94AF06C4
:102BF0006C197D098E099F096D327140810591051F
:102C000008F4CBC082E08093CE0164E170E080E004
:102C100090E00E947D068091CE01823009F0C0C014
:102C20000E94320901E083E00E94D005892BD9F38C
:102C300064E170E080E090E00E947D0684E00E9404
:102C4000D005892B81F50E94AF066B017C01C092F3
:102C5000CF01D092D001E092D101F092D201B09296
:102C6000CE0184E00E94D005892B79F40E94AF0642
:102C70006C197D098E099F096D327140810591059E
:102C800008F4A0C082E08093CE018091CE01823012
:102C900009F09BC00E9422090E94BE0F60910001B2
:102CA00080E00E94F608002309F447CF82E00E94EA
:102CB000D005892BD9F364E170E080E090E00E94B8
:102CC0007D0683E00E94D005892BE1F4809101010B
:102CD00090E095958795009709F49EC08093010137
:102CE0000E94130E60E0809101010E94F60883E0CB
:102CF0000E94D005892BD9F364E170E080E090E078
:102D00000E947D0684E00E94D005892B09F01CCE2C
:102D10000E94AF066B017C01C092CF01D092D0011E
:102D2000E092D101F092D20181E08093CE0184E063
:102D30000E94D005892B79F40E94AF066C197D0999
:102D40008E099F096D3271408105910508F466C0B6
:102D500082E08093CE018091CE01823009F061C083
:102D60000E9422090E94BE0FEACD0E94BB06B8CE87
:102D70000E94BB06F6CE80910001815059F08093ED
:102D800000016091000180E00E94F6080E945C0E44
:102D900000E009CF30920001F4CF0E94BB0621CFA2
:102DA000809100018F5F8C3050F48093000160911E
:102DB000000180E00E94F6080E945C0E34CFB092C1
:102DC0000001F5CF0E94BB064CCF0E947E0960E057
:102DD00071E082E390E00E94AC0984E00E94D0059B
:102DE000892BD9F364E170E080E090E00E947D06D9
:102DF0000E9432095BCF80910101880F893050F425
:102E0000809301010E94130E60E0809101010E94F5
:102E1000F6084CCF81E0F4CF88E060CF0E94BB067B
:102E200086CF0E947E0960E0809101010E94F60831
:102E300061E071E088E290E00E94AC0984E00E94C9
:102E4000D005892BD9F364E170E080E090E00E9426
:102E50007D067ACDF999FECF92BD81BDF89A99276A
:102E600080B50895262FF999FECF1FBA92BD81BD76
:102E700020BD0FB6F894FA9AF99A0FBE01960895FC
:102E8000A1E21A2EAA1BBB1BFD010DC0AA1FBB1F6E
:102E9000EE1FFF1FA217B307E407F50720F0A21BE0
:102EA000B30BE40BF50B661F771F881F991F1A944D
:102EB00069F760957095809590959B01AC01BD0177
:102EC000CF010895EE0FFF1F0590F491E02D0994B6
:102ED0000E941819A59F900DB49F900DA49F800D7E
:102EE000911D11240895DF93CF931F930F939A9D03
:102EF000F02D219FF00D8B9DF00D8A9DE02DF10DA1
:102F0000039FF00D029FE00DF11D4E9DE00DF11DA0
:102F10005E9DF00D4F9DF00D7F936F93BF92AF922A
:102F20005F934F93D5010E9418198B01AC01D70113
:102F30000E941819EB01E80FF91FD6010E94C21771
:102F40002F913F91D6010E941819C60FD71FE81F75
:102F5000F91FAF91BF910E94C2172F913F910E941C
:102F60001819C60FD71FE81FF91FD6010E9418199C
:102F7000E60FF71F9801BE01CF010F911F91CF916E
:102F8000DF9108950E941819460F571FC81FD91FB7
:102F900008F431960895E894DF93CF93FC01DB01A8
:102FA0000E9418197F936F93E9019A01AC01BF93B6
:102FB000AF933F932F93DF010E94181926F46C1BE7
:102FC0007D0B820B930B9E01EB01FC010E94C2174B
:102FD000AF91BF912F913F910E94C217BE01CF01C7
:102FE000F9012F913F91CF91DF910895689401C02D
:102FF000E894F92FF12B12F00C942A18A0E0B0E01D
:10300000E4E0F8E10C949C18092E059422F40E9447
:103010008618112392F4F0E80F26FFEFE094F09465
:1030200000951095B094C094D094A194BF0ACF0A93
:10303000DF0AEF0AFF0A0F0B1F0B0E94351807FC6F
:103040000E948618CDB7DEB7ECE00C94B8186894EF
:1030500001C0E8948F929F92CF93DF930E9435181E
:10306000DF91CF919F908F90089588249924F40147
:10307000E401B0E49F93AA279A158B049C04ED0504
:10308000FE05CF05D007A10798F4AD2FDC2FCF2F79
:10309000FE2FE92D982C892E982F872F762F652FBC
:1030A000542F432F322F2227B85031F7BF9127C01A
:1030B0001B2EBF91BB27220F331F441F551F661FB6
:1030C000771F881F991F881C991CEE1FFF1FCC1F9C
:1030D000DD1FAA1FBB1F8A149B04EC05FD05CE054E
:1030E000DF05A007B10748F08A189B08EC09FD0925
:1030F000CE09DF09A00BB10B21601A94E1F62EF482
:103100009401AF01BE01CD01000C0895609570954A
:103110008095909530954095509521953F4F4F4F14
:103120005F4F6F4F7F4F8F4F9F4F08952F923F926A
:103130004F925F926F927F928F929F92AF92BF92C7
:10314000CF92DF92EF92FF920F931F93CF93DF9373
:10315000CDB7DEB7CA1BDB0B0FB6F894DEBF0FBED0
:10316000CDBF09942A88398848885F846E847D841D
:103170008C849B84AA84B984C884DF80EE80FD801F
:103180000C811B81AA81B981CE0FD11D0FB6F89495
:10319000DEBF0FBECDBFED010895002E083090F0C8
:1031A000982F872F762F652F542F432F322F2227CA
:1031B0000850F4CF220F331F441F551F661F771F7F
:1031C000881F991F0A95B2F7002D089597FD109456
:1031D000002E083098F00850232F342F452F562FFB
:1031E000672F782F892F912DF4CF15949795879578
:1031F0007795679557954795379527950A95AAF737
:103200001124002D08952A0D3B1D4C1D5D1D6E1DC2
:103210007F1D801F911F08950024A7FD00942A1789
:10322000300540055005600570058005900508953E
:10323000A29FB001B39FC001A39F700D811D1124F7
:10324000911DB29F700D811D1124911D08950F9342
:103250001F93CF93DF938230910510F482E090E0CA
:10326000E0911703F091180330E020E0B0E0A0E017
:10327000309799F42115310509F44AC0281B390B00
:1032800024303105D8F58A819B816115710589F15A
:10329000FB0193838283FE0111C040815181028131
:1032A000138148175907E0F04817590799F4109708
:1032B00061F012960C93129713961C933296CF01DD
:1032C000DF91CF911F910F910895009317031093F1
:1032D0001803F4CF2115310551F04217530738F088
:1032E000A901DB019A01BD01DF01F801C1CFEF01A6
:1032F000F9CF9093180380931703CDCFFE01E20F0F
:10330000F31F819391932250310939832883D7CFBA
:103310002091150330911603232B41F420910801CD
:103320003091090130931603209315032091060173
:10333000309107012115310541F42DB73EB7409179
:103340000A0150910B01241B350BE0911503F091FC
:103350001603E217F307A0F42E1B3F0B28173907BB
:1033600078F0AC014E5F5F4F2417350748F04E0FE1
:103370005F1F5093160340931503819391939FCF42
:10338000F0E0E0E09CCFCF93DF930097E9F0FC0101
:10339000329713821282A0911703B0911803ED01A6
:1033A00030E020E01097A1F420813181820F931F3B
:1033B00020911503309116032817390709F061C0D1
:1033C000F0931603E0931503DF91CF910895EA017E
:1033D000CE17DF07E8F54A815B819E014115510553
:1033E000B1F7E901FB83EA8349915991C40FD51FD5
:1033F000EC17FD0761F4808191810296840F951F7F
:10340000E90199838883828193819B838A83F0E099
:10341000E0E012968D919C9113970097B9F52D914C
:103420003C911197CD010296820F931F20911503B5
:10343000309116032817390739F6309751F5109255
:10344000180310921703B0931603A0931503BCCF73
:10345000D383C28340815181840F951FC817D90738
:1034600061F44E5F5F4F88819981480F591F5183E6
:1034700040838A819B81938382832115310509F0E2
:10348000B0CFF0931803E09317039ECFFD01DC014A
:0C349000C0CF13821282D7CFF894FFCF78
:10349C00060100FA0000000019038000030506076E
:1034AC00090A0B0C0D0E0F2C343C000000003A05E1
:1034BC009A04C7048705F804D604EA040000000047
:1034CC0084085708F30834088C00440835080A0AA5
:1034DC00004144582D4D494E4920312E3033610066
:1034EC000D0A004D6172203236203230323300002A
:00000001FF
