:100000000C9462000C948A000C948A000C948A0070
:100010000C948A000C948A000C948A000C948A0038
:100020000C948A000C948A000C94B7130C948A00E8
:100030000C948A000C948A000C948A000C948A0018
:100040000C9452120C948A000C9420120C94FA1105
:100050000C948A000C948A000C948A000C948A00F8
:100060000C949C120C948A000000000024002700CD
:100070002A0000000000250028002B0000000000DE
:1000800023002600290004040404040404040202DA
:100090000202020203030303030301020408102007
:1000A0004080010204081020010204081020000012
:1000B0000008000201000003040700000000000027
:1000C0000000EA1311241FBECFEFD8E0DEBFCDBF82
:1000D00012E0A0E0B1E0E0EEF2E402C005900D9283
:1000E000AE3BB107D9F724E0AEEBB2E001C01D9200
:1000F000A637B207E1F710E0C2E6D0E004C02197CE
:10010000FE010E947C1EC136D107C9F70E9423144C
:100110000C946E210C940000809131039091320375
:10012000891B990B08952F923F924F925F926F9285
:100130007F928F929F92AF92BF92CF92DF92EF9277
:10014000FF920F931F93CF93DF93CDB7DEB76C97DA
:100150000FB6F894DEBF0FBECDBF322E3D87242EE2
:100160005E872B013C01A982BF86C88AD98AEA8AA8
:10017000FB8A0C8B1D8B988E8F8A211501EC300722
:100180000AE140070DE3500705E0600771058105AE
:10019000910509F0A0F52F3710EF31071AEF41074D
:1001A00012E05107610571058105910509F008F418
:1001B000B4C12F3F354D41415E4763407105810514
:1001C000910509F008F48FC029813F854889598934
:1001D0006A897B898C899D89A0E0992493940E94E7
:1001E0002E2009F08EC011E01E8B94E0892E912CF8
:1001F000A12CB12C89869A86AB86BC862FC0312C67
:10020000B1ECBD872AE1222EEDE3EE8735E0432EE7
:10021000512C612C712CD8CFA32CBD84C22CDE8430
:100220007201830120E034E04BE654EF64E170E0BA
:1002300080E090E00E944B1F122FB32FF42FE52F88
:10024000A7E00E942E2021F416E0B0E0F0E0E0E00C
:10025000CF011987BA879B87EC871E8A89849A8485
:10026000AB84BC84A501940160E070E0CB01A32CB9
:10027000BD84C22CDE847201830129833A834B83BF
:100280005C836D837E838F83988760E070E080E07D
:1002900090E00E94951E29833F87488B598B6A8B7B
:1002A0007B8B8C8B9D8B0E89C12CD12C7601C394BA
:1002B00040E050E0BA01013009F0A9C0AF89B88D23
:1002C0001D921D921D921C921397FD01148215829E
:1002D0001682178281E090E0A0E0B0E080879187ED
:1002E000A287B387DEC029813F85488959896A89F9
:1002F0007B898C899D89A0E00E942E2009F48CCFF7
:10030000912CA32CBD84C22CDE847201830129812F
:100310003F85488959896A897B898C899D890E9492
:100320004B1F29873A874B875C8729853A854B8500
:100330005C8506E0A02EB12C263031054105510523
:1003400068F089859A85AB85BC8589309740A10581
:10035000B105D0F0B8E0AB2E17E0B12EC12CD12CF6
:10036000E12CF12C00E010E029813F854889598972
:100370006A897B898C899D890E944B1F322E3D871B
:10038000242E5E872B013C01A32CBD84C22CDE846D
:100390007201830129813F85488959896A897B894E
:1003A0008C899D890E94491FE0E4AE2EF2E4BF2EA5
:1003B000AFE0CA2ED12CE12CF12C00E010E00E941D
:1003C000951EA32CBD84C22CDE84720183010E9481
:1003D0004B1FA32FF42FE52F422F5A2F6F2F7E2F65
:1003E000A0E4CA2EA2E4DA2EAFE0EA2EF12C4115E9
:1003F00051056105710521F4C12CD12C7601C394FE
:10040000AA24A3949A1409F46DC001E00E8BCB01C9
:10041000BA0117E0660F771F881F991F1A95D1F749
:10042000A70196010E945A1E298F3A8F4B8F5C8F2D
:1004300089849A84AB84BC8407E0880C991CAA1C2C
:10044000BB1C0A95D1F7950184011250210931098D
:1004500048015901298D3A8D4B8D5C8D280D391D30
:100460004A1D5B1DAF89B88D2D933D934D935C93D1
:100470001397FD0164837583868397831896CD92C5
:10048000DD92ED92FC921B978E88882051F0398284
:100490009D849F86288AAE84A98A4A8A5B8A6C8A50
:1004A0007D8A29813F85488959896A897B898C8918
:1004B0009D896C960FB6F894DEBF0FBECDBFDF915D
:1004C000CF911F910F91FF90EF90DF90CF90BF9051
:1004D000AF909F908F907F906F905F904F903F90E4
:1004E0002F900895AF89B88D1D921D921D921C9278
:1004F0001397FD01148215821682178281E090E025
:10050000A0E0B0E080879187A287B3873982FD851C
:10051000FF87288A8E84898AC0CF29813F854889B0
:1005200059896A897B898C899D89A0E0E0E83E2E03
:10053000F0EFFD87FAEF2F2E02E00E87412C512CB1
:10054000612C712C0E942E2009F0DACE18E0B7E061
:100550007DCE2F923F924F925F926F927F928F92B9
:100560009F92AF92BF92CF92DF92EF92FF920F9342
:100570001F93CF93DF93CDB7DEB7AA970FB6F8944A
:10058000DEBF0FBECDBF0D871D8B298F3A8F4B8FDE
:100590005C8F6F8F7BA3FE8EED8E8111C4C1E091C5
:1005A000660324E0E29FF0011124ED5AFC4F6589B7
:1005B00076898789908D24E630E040E050E00E9403
:1005C000ED1E522E632E742E852E962E7A8B898BDD
:1005D000492E86017501110FEE08FE2C8701950149
:1005E000A6016E2D7E2D8E2D9E2D0FE10E94EF1FF8
:1005F000A12CEAECBE2EFAE9CF2EABE3DA2EE12CE9
:10060000F12C00E010E00E941A1FA52CB62CC72C7C
:10061000D82CE92CFA880989142D0E94951E0FE127
:100620000E940A2029833A834B835C836D837E83F7
:100630008F83988789819A81AB81BC81BB0F880B9E
:10064000982FDC0189879A87AB87BC87252D362DAB
:10065000472D582D692D7F2D8989942DA980BA8029
:10066000CB80DC80E984FE2C0E2D1E2D0E942520DF
:1006700029833987498B5A8B6B8B7C8B1C016D844A
:100680007D88898C9A8C9C8D9D8B4F8C5BA093016F
:10069000A4016B8D792FC201211534404B46544F74
:1006A000644171058105910569F060F0612C24E0D9
:1006B000722E3BE6832E44EF942EB4E1BB8F1D8A4D
:1006C000412C512CEB8DEF8F9301A4016E2F7D896E
:1006D000C201211538454744584F6D4071058105C9
:1006E000910560F4612C08E5702E87E4882E98EF60
:1006F000992E2DE02F8F1D8A412C512CA980B98471
:10070000C988DA88EB88FC8881019301A4016F8D88
:100710007D89C2010E944B1F298F3A8F4B8F5C8FBE
:100720002D873E874F87588B8D859E85AF85B889ED
:100730001FE0A12E0F97A105B10558F02D853E852C
:100740004F8558892B35310541055105B8F0BAE57B
:10075000AB2EB12CC12CD12CE12CF12C00E010E0FF
:100760002981398549895A896B897C89C1010E940F
:10077000951E39014A016F8F7D8B2C01A980B984A8
:10078000C988DA88EB88FC8881019301A4016F8D08
:100790007D89C2010E94491FE0E4AE2EF2E4BF2E23
:1007A000AFE0CA2ED12CE12CF12C00E010E00E9429
:1007B000951EA980B984C988DA88EB88FC888101F4
:1007C0000E944B1F49014CA35BA3C901DA0121E040
:1007D00030E040E050E00097A105B10521F020E4B1
:1007E00032E44FE050E02D8B3E8B4F8B588FBC0195
:1007F000CD0127E0660F771F881F991F2A95D1F733
:100800002D893E894F89588D0E945A1E29013A012F
:100810006F8F78A389A39AA3A980B984C988DA883D
:10082000EB88FC88810194014CA15BA160E070E041
:1008300080E090E00E94951E2BA33CA34DA35EA3F5
:100840006FA378A789A79AA78D859E85AF85B8895C
:1008500037E0880F991FAA1FBB1F3A95D1F7925016
:10086000A109B109840D951DA61DB71DED8DFE8D45
:1008700080839183A283B3832F8D38A149A15AA18C
:1008800024833583468357832D893E894F89588D2C
:100890002087318742875387298D3A8D4B8D5C8D18
:1008A00060E070E080E090E00E94951E29013A012E
:1008B0004B01898799838D899E89AF89B88D5C01A9
:1008C0006D01E12CF12C00E010E02BA13CA14DA129
:1008D0005EA16FA178A589A59AA50E944B1F590119
:1008E0006A017B018C019201A301B4018985998180
:1008F0000E942520AA960FB6F894DEBF0FBECDBF8A
:10090000DF91CF911F910F91FF90EF90DF90CF90EB
:10091000BF90AF909F908F907F906F905F904F901F
:100920003F902F900895E091670334E0E39FF0013A
:1009300011243BCEAF92BF92CF92DF92EF92FF9203
:100940000F931F93CF93DF936C017B018B01040FF7
:10095000151FEB015E01AE18BF08C017D10759F093
:100960006991D601ED91FC910190F081E02DC601D5
:100970000995892B79F7C501DF91CF911F910F91CF
:10098000FF90EF90DF90CF90BF90AF900895FC0163
:10099000538D448D252F30E0842F90E0821B930BE4
:1009A000541710F0CF96089501970895FC01918D8A
:1009B000828D981761F0A28DAE0FBF2FB11D5D968D
:1009C0008C91928D9F5F9F73928F90E008958FEF2F
:1009D0009FEF0895FC01918D828D981731F0828DE3
:1009E000E80FF11D858D90E008958FEF9FEF08953A
:1009F000FC01918D228D892F90E0805C9F4F821B9E
:100A000091098F739927089589EC93E00E94F80467
:100A100021E0892B09F420E0822F089580E090E006
:100A2000892B29F00E94040581110C94000008957F
:100A3000FC01A48DA80FB92FB11DA35ABF4F2C9153
:100A4000848D90E001968F739927848FA689B7894A
:100A50002C93A089B1898C91837080648C93938D41
:100A6000848D981306C00288F389E02D80818F7DE4
:100A700080830895EF92FF920F931F93CF93DF939C
:100A8000EC0181E0888F9B8D8C8D98131AC0E889CA
:100A9000F989808185FF15C09FB7F894EE89FF8999
:100AA0006083E889F98980818370806480839FBF37
:100AB00081E090E0DF91CF911F910F91FF90EF9037
:100AC0000895F62E0B8D10E00F5F1F4F0F73112747
:100AD000E02E8C8D8E110CC00FB607FCFACFE88982
:100AE000F989808185FFF5CFCE010E941805F1CFED
:100AF000EB8DEC0FFD2FF11DE35AFF4FF0829FB7F6
:100B0000F8940B8FEA89FB8980818062CFCF682FB0
:100B100089EC93E00C943A05CF93DF93EC01888D38
:100B20008823B9F0AA89BB89E889F9898C9185FD68
:100B300003C0808186FD0DC00FB607FCF7CF8C91F6
:100B400085FFF2CF808185FFEDCFCE010E94180591
:100B5000E9CFDF91CF910895833081F028F481307F
:100B600099F08230A9F008958730A9F08830C9F053
:100B70008430B1F4809180008F7D03C0809180002B
:100B80008F7780938000089584B58F7784BD089512
:100B900084B58F7DFBCF8091B0008F778093B000BC
:100BA00008958091B0008F7DF9CFCF93DF93282FE8
:100BB00030E0F901E255FF4F8491F901E656FF4F0D
:100BC000D491F901EA57FF4FC491CC23A1F08111D0
:100BD0000E94AC05EC2FF0E0EE0FFF1FE458FF4F32
:100BE000A591B491EC91ED2381E090E009F480E0CF
:100BF000DF91CF91089580E090E0FACF1F93CF93DB
:100C0000DF93282F30E0F901E255FF4F8491F9017D
:100C1000E656FF4FD491F901EA57FF4FC491CC2318
:100C2000A9F0162F81110E94AC05EC2FF0E0EE0F19
:100C3000FF1FEE58FF4FA591B4918FB7F894EC9138
:100C4000111108C0D095DE23DC938FBFDF91CF91C7
:100C50001F910895DE2BF8CFCF93DF9390E0FC0136
:100C6000E656FF4F24918A579F4FFC0184918823B9
:100C7000D1F090E0880F991FFC01E859FF4FA59132
:100C8000B491FC01EE58FF4FC591D49161110EC093
:100C90009FB7F8948C91E22FE0958E238C93288156
:100CA000E223E8839FBFDF91CF9108958FB7F89437
:100CB000EC91E22BEC938FBFF6CF3FB7F894809185
:100CC000170390911803A0911903B0911A0326B548
:100CD000A89B05C02F3F19F00196A11DB11D3FBF74
:100CE000BA2FA92F982F8827BC01CD01620F711D43
:100CF000811D911D42E0660F771F881F991F4A953D
:100D0000D1F708958F929F92AF92BF92CF92DF92C8
:100D1000EF92FF924B015C010E945D066B017C012A
:100D20000E945D066C197D098E099F09683E73401B
:100D300081059105A8F321E0821A9108A108B10864
:100D400088EEC80E83E0D81EE11CF11C81149104CA
:100D5000A104B10429F7FF90EF90DF90CF90BF90EE
:100D6000AF909F908F9008952FB7F89460911303E0
:100D70007091140380911503909116032FBF08956D
:100D8000CF92DF92EF92FF92CF93DF930E94B4064F
:100D90006B017C012FEFC21AD20AE20AF20ACBE8F9
:100DA000D1E06C157D058E059F0530F4CE010197CD
:100DB000F1F70E94B406F5CFDF91CF91FF90EF904D
:100DC000DF90CF9008951F93CF93DF93C1E0C0933E
:100DD000CE02882399F1D091B8001091BA00809189
:100DE000BC008A7B8093BC0060E082E10E94FE052B
:100DF00060E083E10E94FE0510929F03C0939E0372
:100E00001092790361E082E10E94FE0561E083E1D6
:100E10000E94FE058091B9008E7F8093B900809179
:100E2000B9008D7F8093B90088E48093B80085E491
:100E30008093BC001093BA00D093B800DF91CF919B
:100E40001F9108958F929F92AF92BF92CF92DF929F
:100E5000EF92FF920F931F93CF93DF93D091C8032C
:100E6000D13208F0D7C0182FC091C7030E945D0689
:100E70006B017C0180919F0381116BC082E08093A4
:100E80009F0310939E038FEF80939D0310929C030A
:100E9000D0939B03A7EAB3E0EBE7F3E080E0D8133D
:100EA00091C010927A0380917A03CC0FC82BC09323
:100EB0007A0380917903813009F088C01092790318
:100EC0000E945D066B017C0180917A038093BB00D8
:100ED0008091A1039091A203A091A303B091A403D8
:100EE000892B8A2B8B2BA1F00E945D060091A10318
:100EF0001091A2032091A3033091A4036C197D09E2
:100F00008E099F09061717072807390708F442C0FA
:100F10008091BC0083FDD8CF85EC8093BC000E94FB
:100F20005D066B017C0180919F03823009F450C003
:100F300080919D038F3F09F46FC080919D038032A3
:100F400009F46CC080919D03803309F469C084E08A
:100F500026C08091A1039091A203A091A303B09118
:100F6000A403892B8A2B8B2B09F484CF0E945D0666
:100F70008090A1039090A203A090A303B090A4033B
:100F80006C197D098E099F0986169706A806B90671
:100F900008F070CF8091A0030E94E30685E01092D4
:100FA000A6031092C8031092A503DF91CF911F9161
:100FB0000F91FF90EF90DF90CF90BF90AF909F90F8
:100FC0008F9008959D9191938F5F69CF85EEA5CF06
:100FD0008091A1039091A203A091A303B091A403D7
:100FE000892B8A2B8B2B09F49ECF0E945D060091E2
:100FF000A1031091A2032091A3033091A4036C19C3
:101000007D098E099F09061717072807390708F079
:101010008ACFC0CF81E0C3CF80E0C1CF82E0BFCF15
:1010200083E0BDCF2091EF02260F3327331F2132FB
:101030003105ECF420919F03FC0190E080E0243026
:1010400069F082E00895A091EF022191AC01415333
:101050005D4FA40FB52FB11D2C930196861798F301
:101060008091EF02680F6093EF0280E0089581E0C5
:1010700008950895E091320380913103E81730F428
:10108000F0E0ED5CFC4F808190E008958FEF9FEFE2
:10109000089590913203809131032FEF3FEF98171D
:1010A00048F4E92FF0E0ED5CFC4F208130E09F5FD9
:1010B00090933203C9010895CF92DF92EF92FF928D
:1010C0000F931F93CF93DF937C01CB018A01209173
:1010D000A503222389F0EB016B01C40ED51ECC15AC
:1010E000DD0569F06991D701ED91FC910190F081E6
:1010F000E02DC7010995F3CF642F0E941208C801A3
:10110000DF91CF911F910F91FF90EF90DF90CF90E3
:101110000895CF93DF931F92CDB7DEB769832091F7
:10112000A5032223F9F02091C803203258F021E0D2
:1011300030E0FC013383228390E080E00F90DF9168
:10114000CF9108958091A603E82FF0E0E955FC4F78
:10115000998190838F5F8093A6038093C80381E079
:1011600090E0ECCF61E0CE0101960E941208F7CF2B
:10117000CF93C62F91E09093A50390E69093C70379
:101180001092A6031092C803682F86E694E00E948E
:1011900089086C2F86E694E00E94890881E0CF914F
:1011A0000C9422070F931F93CF93DF938B0191E051
:1011B0009093A50390E69093C7031092A603109214
:1011C000C803682F86E694E00E948908E801085F5A
:1011D0001F4F699186E694E00E948908C017D107E5
:1011E000C1F781E0DF91CF911F910F910C942207FD
:1011F00090E080E0089560E08CE00E94FE0560E0F1
:101200008BE00E94FE0560E08AE00E94FE0560E03F
:1012100089E00E94FE0560E08DE00C94FE05CF930E
:10122000DF93C82F682F61708CE00E94FE05D0E02C
:10123000BE017595679561708BE00E94FE05BE0149
:10124000759567957595679561708AE00E94FE05B2
:1012500023E0D595C7952A95E1F76C2F617089E059
:10126000DF91CF910C94FE05809101010C940F0940
:10127000E0910001F0E0E45FFE4F80810C940F09E3
:1012800060E08CE00E94FE0560E08BE00E94FE05BD
:1012900060E08AE00E94FE0560E089E00C94FE05B3
:1012A0000E9440096AEF70E080E090E00E948206B0
:1012B0000E9434096AEF70E080E090E00E948206AC
:1012C0000E9440096AEF70E080E090E00E94820690
:1012D0000E9434096AEF70E080E090E00C9482068E
:1012E0000E9440096AEF70E080E090E00E94820670
:1012F0000E9438096AEF70E080E090E00E94820668
:101300000E9440096AEF70E080E090E00E9482064F
:101310000E9438096AEF70E080E090E00C94820649
:101320000E94700964EF71E080E090E00E94820604
:101330000C945009CF93C82F0E94FB0864EF71E012
:1013400080E090E00E94820661E0CC23E1F18CE035
:101350000E94FE0564E670E080E090E00E94820654
:1013600061E08BE00E94FE0564E670E080E090E0C2
:101370000E94820661E08DE00E94FE0564E670E056
:1013800080E090E00E94820661E08AE00E94FE0513
:1013900064E670E080E090E00E94820661E089E00F
:1013A0000E94FE0564EF71E080E090E00E948206FA
:1013B0000E94FB0864EF71E080E090E00E948206EA
:1013C000CF910C94900989E00E94FE0564E670E0DC
:1013D00080E090E00E94820661E08AE00E94FE05C3
:1013E00064E670E080E090E00E94820661E08DE0BB
:1013F0000E94FE0564E670E080E090E00E948206B4
:1014000061E08BE00E94FE0564E670E080E090E021
:101410000E94820661E08CE0C3CF1F93CF93DF93DD
:101420000E944009C4E0D1E011E06D2F8DE00E94E0
:10143000FE05D1276AEF70E080E090E00E9482060E
:10144000C15099F7DF91CF911F91089583E00E94D9
:10145000D505892BD9F382E00E94D505892BB1F3FC
:1014600084E00E94D505892B89F364E170E080E077
:1014700090E00C948206E0E0DC01AE0FB11DEF5F5E
:101480002C912111F9CF6C93E80FF92FF11D1082E7
:101490000895FC019081DB018C91981305C081E0D7
:1014A000218111969C91291380E0089589EC93E0A5
:1014B0000E94F804892BD1F389EC93E00E94D604B2
:1014C0008B33A1F7089589EC93E00E94F804892BEF
:1014D000D1F389EC93E00E94D6040895FC010190B9
:1014E0000020E9F73197AF01481B590BBC0189EC8B
:1014F00093E00C949A048F929F92AF92BF920F93B5
:101500001F93CF93DF93CDB7DEB7A1970FB6F894B3
:10151000DEBF0FBECDBF19A2423008F44AE08E01F3
:101520000F5D1F4F842E912CB12CA12CA50194018D
:101530000E945A1EE62FB901CA01EA30F4F4E05DB8
:10154000D801EE938D01232B242B252B79F790E0E6
:1015500080E0109719F0CD010E946E0AA1960FB697
:10156000F894DEBF0FBECDBFDF91CF911F910F91D9
:10157000BF90AF909F908F900895E95CE1CFCF939B
:10158000DF930E946E0AEC018FE391E00E946E0AE5
:101590008C0F9D1FDF91CF91089580912F03882399
:1015A00021F082E491E00C94BF0A81E591E0FBCF49
:1015B000CF93DF930E948705EC018FE391E00E94B7
:1015C0006E0A8C0F9D1FDF91CF9108950C946E0AC7
:1015D000FF920F931F93CF93DF938C01EB01F88061
:1015E0000E94441EF81621F06F2DC8010E944C1E67
:1015F000CE01DF91CF911F910F91FF900895FF923F
:101600000F931F93CF93DF9302E011E0CAE0D0E085
:10161000F801F1908F01CE010E94441EF81621F0CE
:101620006F2DCE010E944C1E2196CE30D10581F740
:1016300082E091E0DF91CF911F910F91FF9008958B
:1016400081E691E00E94BF0A0E94FF0A61E071E01A
:1016500084E190E00E94E80A60E071E08EE190E0B1
:101660000E94E80A6FE273E088E290E00C94E80AD6
:10167000CF93DF93EB010E94441E8883CE01DF915C
:10168000CF910895CF92DF92EF92FF920F931F9325
:10169000CF9391E09093A50390E69093C7031092A7
:1016A000A6031092C803682F86E694E00E9489087A
:1016B00081E00E9422070E945D066B017C018091FF
:1016C0009F03811164C081E080939F0310929E0369
:1016D0009FEF90939D0310929C0310929B03809325
:1016E0007A0380917A03806C80937A0380917903E6
:1016F000813009F080C0109279030E945D066B0171
:101700007C0180917A038093BB008091A10390912A
:10171000A203A091A303B091A403892B8A2B8B2B46
:10172000A1F00E945D060091A1031091A2032091F7
:10173000A3033091A4036C197D098E099F09061734
:1017400017072807390708F443C08091BC0083FDC0
:10175000D8CF85EC8093BC000E945D066B017C01B4
:1017600080919F03813009F448C080919C03C1E0BF
:10177000811102C0C0919C03EBE7F3E0A3E3B3E067
:1017800080E08C1751F191919D938F5FFACF8091FA
:10179000A1039091A203A091A303B091A403892B6C
:1017A0008A2B8B2B09F48BCF0E945D060091A1033D
:1017B0001091A2032091A3033091A4036C197D0919
:1017C0008E099F09061717072807390708F077CFF2
:1017D0008091A0030E94E306C0E010923203C09300
:1017E000310380E090913203C91749F186E694E015
:1017F0000E944908F7CF85EEADCF8091A10390916B
:10180000A203A091A303B091A403892B8A2B8B2B55
:1018100009F4A6CF0E945D060091A1031091A203D6
:101820002091A3033091A4036C197D098E099F09AF
:10183000061717072807390708F092CFC9CFCF91AD
:101840001F910F91FF90EF90DF90CF900895CF936D
:10185000DF93D82FC62F83E00E94420B61E070E037
:1018600001C0660FDA95EAF7C13039F46095682354
:1018700083E0DF91CF910C94B808682BF9CFCF9318
:10188000DF93C62FE82FF0E0E85EFE4FD0818D2F6A
:101890000E94420B90E1C99FB00111248378682B0C
:1018A0008D2FDF91CF910C94B808CF93C0E1C80F72
:1018B0008C2F0E94420B682F6F7B8C2FCF910C9442
:1018C000B808CF93C82F82E10E94420B682FC13025
:1018D00029F46F7782E1CF910C94B8086068FACF51
:1018E000CF93DF93D62FC0E1C80F8C2F0E94420BFD
:1018F0008C7F682F6D2B8C2FDF91CF910C94B808C3
:101900008091250390912603A0912703B09128038D
:10191000803826E9920728E9A207B10578F08FED13
:1019200091E00E94E60A6091250370912603809160
:101930002703909128034AE00C947B0A8034924458
:10194000AF40B10518F08EED91E0EBCF8DED91E059
:10195000E8CF8BE791E00E94E60A60910201709166
:10196000030180910401909105014AE00E947B0AE5
:101970008FE391E00C946E0A2F923F924F925F9208
:101980006F927F928F929F92AF92BF92CF92DF928F
:10199000EF92FF920F931F93CF93DF93CDB7DEB7F4
:1019A0002E970FB6F894DEBF0FBECDBF2901B42F1E
:1019B000A52F6D877E871C01602E20583A41464036
:1019C000510961097109810991092F373A4146404E
:1019D0005105610571058105910511F008F092C06E
:1019E00092014B2F5A2F6D857E85C10107E00E9421
:1019F000EF1F2901B42FA52F6D877E871C0167E09B
:101A0000762E862D90E08D5A9C4FFC0180818111AD
:101A100071C1A0905603B0905703C0905803D09066
:101A20005903E0905A03F0905B0300915C0310911E
:101A30005D03CE0101964C0192014B2F5A2F6D850B
:101A40007E85C1010E949300B980AA800B813D80F0
:101A50002E801F81C984DA84EB84FC8484E190E0C9
:101A60000E9449202C01FC01D082C182862D880F62
:101A7000880F880F845D0E94420B03708C7F082BB7
:101A8000F2010283A382B4828CE0F694E794D794A7
:101A9000C7948A95D1F7FC2DF07FCF2E1F70C12AF5
:101AA000F201C58226823782F1E06F1609F436C151
:101AB00012E0B201611609F43BC18AE20E94D20829
:101AC00080E00E94550C672D80E00E943F0CC2010F
:101AD0002E960FB6F894DEBF0FBECDBFDF91CF912B
:101AE0001F910F91FF90EF90DF90CF90BF90AF903C
:101AF0009F908F907F906F905F904F903F902F902E
:101B00000C94E52092014B2F5A2F6D857E85C101E3
:101B100035534C40510961097109810991092F3FE1
:101B200034434C405105610571058105910509F06B
:101B300090F492014B2F5A2F6D857E85C10106E0EE
:101B40000E94EF1F2901B42FA52F6D877E871C01EE
:101B500056E0752E56CF92014B2F5A2F6D857E85FC
:101B6000C1013A5648415109610971098109910938
:101B70002F3F3946484151056105710581059105A1
:101B800009F090F492014B2F5A2F6D857E85C1018B
:101B900005E00E94EF1F2901B42FA52F6D877E87D6
:101BA0001C0145E0742E2DCF92014B2F5A2F6D85CD
:101BB0007E85C101345D4043510961097109810984
:101BC00091092F3F334D4043510561057105810552
:101BD000910509F090F492014B2F5A2F6D857E8567
:101BE000C10104E00E94EF1F2901B42FA52F6D87CA
:101BF0007E871C0134E0732E04CF92014B2F5A2FA5
:101C00006D857E85C101385A4146510961097109C6
:101C1000810991092F3F374A4146510561057105F8
:101C20008105910509F090F492014B2F5A2F6D8593
:101C30007E85C10103E00E94EF1F2901B42FA52F6B
:101C40006D877E871C0123E0722EDBCE92014B2F25
:101C50005A2F6D857E85C1013055434C510961096C
:101C60007109810991092F3F3F44434C510561059A
:101C700071058105910509F090F492014B2F5A2FBF
:101C80006D857E85C10102E00E94EF1F2901B42FFE
:101C9000A52F6D877E871C0192E0792EB2CE92012E
:101CA0004B2F5A2F6D857E85C101305A46485140D1
:101CB0006109710981099109712C2F3F3F494648FB
:101CC0005140610571058105910511F008F099CE2B
:101CD00092014B2F5A2F6D857E85C10101E00E9434
:101CE000EF1F2901B42FA52F6D877E871C01772454
:101CF000739487CEA0905E03B0905F03C0906003A2
:101D0000D0906103E0906203F0906303009164035C
:101D100010916503FE0131964F018ECEB20182E330
:101D20000E94D20881E00E94550C672D81E0CDCE43
:101D30008AE30E94D20882E00E94550C672D82E05F
:101D4000C4CE0F93CF93DF9360E08DE00E94FE0539
:101D50001092290360E080E00E94270C2091250367
:101D6000309126034091270350912803A4E6B0E068
:101D70000E94821EDC0101E09B01AD0160E070E089
:101D800080E090E00E94BC0C61E081E00E94270CA2
:101D900061E088E0DF91CF910F910C94FE05E09116
:101DA0000001E150EB3008F034C0F0E0E652F14FB2
:101DB0000C947C1E591030100710DE0FB90F900FD5
:101DC000670F3E0F090F150FE50E80E59BE1ACE1B3
:101DD000B0E08093CA029093CB02A093CC02B09360
:101DE000CD028093C6029093C702A093C802B0931D
:101DF000C9028093C2029093C302A093C402B0931D
:101E0000C5028093BE029093BF02A093C002B0931C
:101E1000C10280910101823009F48FC108F06EC1C6
:101E2000813009F493C10C94A10E88E095E8A6E3F3
:101E3000B0E08093CA029093CB02A093CC02B093FF
:101E4000CD0288ED9CE8A6E3B0E08093C6029093B3
:101E5000C702A093C802B093C90280E998E9A6E33B
:101E6000B0E08093C2029093C302A093C402B093E7
:101E7000C50288ED93E7A6E3B0E0C3CF80ED90EF15
:101E8000ABE6B0E08093CA029093CB02A093CC0261
:101E9000B093CD028CE499E8ABE6B0E08093C60243
:101EA0009093C702A093C802B093C90280E790E064
:101EB000ACE6B0E08093C2029093C302A093C40248
:101EC000B093C50288E896E6ABE6B0E09ACF80EC26
:101ED00099EAAAE9B0E08093CA029093CB02A0935A
:101EE000CC02B093CD0280E699EBAAE9B0E08093F2
:101EF000C6029093C702A093C802B093C90280E5BE
:101F000092E9AAE9B0E08093C2029093C302A09341
:101F1000C402B093C5028CE494EBAAE9B0E071CF9F
:101F200080E990ECA6EDB0E08093CA029093CB02DA
:101F3000A093CC02B093CD0280E098EDA6EDB0E086
:101F40008093C6029093C702A093C802B093C902BF
:101F500080E390EDA6EDB0E08093C2029093C302BF
:101F6000A093C402B093C50280EF94E1A7EDB0E066
:101F700048CF80E29FE2A4E1B1E08093CA0290934F
:101F8000CB02A093CC02B093CD0280EC9EE3A4E1FF
:101F9000B1E08093C6029093C702A093C802B093A9
:101FA000C9028093C2029093C302A093C402B0936B
:101FB000C50288E191E4A4E1B1E023CF80E590E996
:101FC000A1E4B1E08093CA029093CB02A093CC022B
:101FD000B093CD0280E292E9A2E4B1E08093C60220
:101FE0009093C702A093C802B093C90280EF9FE903
:101FF000A1E4B1E08093C2029093C302A093C40213
:10200000B093C50288EC90EEA1E4B1E0FACE88E38B
:102010009CE2ACE7B1E08093CA029093CB02A0931C
:10202000CC02B093CD0288ED9BE3ACE7B1E08093A6
:10203000C6029093C702A093C802B093C90280E978
:1020400097E4ACE7B1E08093C2029093C302A093FF
:10205000C402B093C50288EB91E5ACE7B1E0D1CE04
:1020600080E190E6ACEAB1E08093CA029093CB02A3
:10207000A093CC02B093CD0280E29EEFADEAB1E036
:102080008093C6029093C702A093C802B093C9027E
:1020900080EB9FE6ACEAB1E08093C2029093C3026A
:1020A000A093C402B093C50288EB95E2ADEAB1E01B
:1020B000A8CE88E297EBAFEFB2E08093CA0290938C
:1020C000CB02A093CC02B093CD0280EB9AECAFEFA1
:1020D000B2E08093C6029093C702A093C802B09367
:1020E000C9028093C2029093C302A093C402B0932A
:1020F000C50288E099E6AFEFB2E083CE8430A1F06C
:10210000883009F090CE8091BE029091BF02A091DC
:10211000C002B091C1028093250390932603A0933F
:102120002703B09328037FCE8091C2029091C3020F
:10213000A091C402B091C502EECF8091C6029091E9
:10214000C702A091C802B091C902E5CF8091CA022E
:102150009091CB02A091CC02B091CD02DCCF0F9335
:10216000CF93DF9360E088E00E94FE0560E081E0AD
:102170000E94270C0E94400961E08DE00E94FE054C
:102180002091250330912603409127035091280385
:10219000A4E6B0E00E94821EDC0100E09B01AD01DC
:1021A00060E070E080E090E00E94BC0C61E080E0C4
:1021B0000E94270C84E00E94D505892BD9F364E1A5
:1021C00070E080E090E00E948206DF91CF910F9155
:1021D0000C94A10E2F923F924F925F926F927F923A
:1021E0008F929F92AF92BF92CF92DF92EF92FF9227
:1021F0000F931F93CF93DF93CDB7DEB72D970FB615
:10220000F894DEBF0FBECDBF19012A013B014C017E
:102210000D8701116BC0E091660384E0E89FF00137
:102220001124ED5AFC4FA58CB68CC78CD0A0FE01B2
:1022300031967F0189019A01AB01B40180E00E94CF
:10224000A90284E190E00E9449208C0189859A8549
:10225000AB85BC85F8019083818339814A812B81CC
:1022600023702283438334832CE0B695A7959795FA
:1022700087952A95D1F7807F2D813E819F819F7020
:10228000892B858336832783FD85B801F11143C0EF
:102290008AE10E94D208209256033092570340925E
:1022A00058035092590360925A0370925B038092D4
:1022B0005C0390925D03C8012D960FB6F894DEBFC3
:1022C0000FBECDBFDF91CF911F910F91FF90EF9087
:1022D000DF90CF90BF90AF909F908F907F906F9046
:1022E0005F904F903F902F900C94E520E091670312
:1022F00084E0E89FF0011124ED5AFC4FA58CB68CC8
:10230000C78CD0A0FE0131967F0189019A01AB01F3
:10231000B40181E094CF82E20E94D20820925E0351
:1023200030925F03409260035092610360926203B7
:10233000709263038092640390926503BCCF0F9305
:10234000CF93DF93C3E5D3E06D8F7E8F8F8F98A3FC
:102350002B813C814D815E816F81788500E089858C
:102360009A850E94EA102B853C854D855E856F8598
:10237000788901E089899A890E94EA10DF91CF91DA
:102380000F91089585ED8093BC008091A1039091F9
:10239000A203A091A303B091A4030796A11DB11DB0
:1023A00023E0B695A795979587952A95D1F7209123
:1023B000BC0024FD03C010929F0308954091A10327
:1023C0005091A2036091A3037091A403452B462B67
:1023D000472B69F30097A105B10541F025E32A9544
:1023E000F1F700000197A109B109E1CF8091A003A5
:1023F0000C94E3061F920F920FB60F9211242F93A5
:102400003F934F935F936F937F938F939F93AF937C
:10241000BF93EF93FF9389EC93E00E941805FF911F
:10242000EF91BF91AF919F918F917F916F915F914C
:102430004F913F912F910F900FBE0F901F901895C5
:102440001F920F920FB60F9211242F938F939F9389
:10245000EF93FF93E091D903F091DA038081E0914B
:10246000DF03F091E00382FD1BC090818091E203C5
:102470008F5F8F732091E303821741F0E091E203B5
:10248000F0E0E753FC4F958F8093E203FF91EF91CB
:102490009F918F912F910F900FBE0F901F901895C5
:1024A0008081F4CF1F920F920FB60F9211242F93B9
:1024B0003F938F939F93AF93BF938091130390911A
:1024C0001403A0911503B09116033091120323E079
:1024D000230F2D3758F50196A11DB11D209312032E
:1024E0008093130390931403A0931503B0931603E2
:1024F0008091170390911803A0911903B0911A03CA
:102500000196A11DB11D8093170390931803A0930A
:102510001903B0931A03BF91AF919F918F913F918F
:102520002F910F900FBE0F901F90189526E8230F44
:102530000296A11DB11DD2CF1F920F920FB60F921E
:1025400011242F933F934F935F936F937F938F93B8
:102550009F93AF93BF93EF93FF938091B900887FD0
:10256000803609F44AC0F0F5883209F4A5C018F5A0
:10257000803109F499C0B8F4882309F4F5C0883093
:1025800009F492C0FF91EF91BF91AF919F918F910C
:102590007F916F915F914F913F912F910F900FBE5F
:1025A0000F901F901895883109F486C0803251F73A
:1025B00080939D0314C0803409F49BC040F48033A1
:1025C000B9F38833F9F680939D0385ECAEC080356E
:1025D00009F483C0883509F494C0883499F60E94C0
:1025E000C211D0CF883909F48AC038F5883729F06C
:1025F00050F4883611F0803729F683E080939F03EA
:102600001092110355C0883809F479C0803919F047
:10261000803809F0B7CF80911103803208F06FC085
:10262000E091110381E08E0F809311038091BB0034
:10263000F0E0EF50FD4F80833BC0803B39F0D0F499
:10264000803A09F477C0883A09F09CCF84E08093FF
:102650009F031092F0021092EF02F0E0E0E0099583
:102660008091EF0281110FC081E08093EF02109200
:10267000CF0209C0803C09F4A8CF883C09F4A5CF5B
:10268000883B09F07FCFE091F00281E08E0F8093CC
:10269000F002F0E0E153FD4F80818093BB00909108
:1026A000F0028091EF0229C080917A038093BB00F1
:1026B00085EC8093BC0066CF90919C0380919B0336
:1026C000981758F5E0919C0381E08E0F80939C034E
:1026D000F0E0E558FC4F8081E9CFE0919C0381E078
:1026E0008E0F80939C038091BB00F0E0E558FC4F77
:1026F000808390919C0380919B039817C8F285E892
:10270000D8CFE0919C0381E08E0F80939C03809151
:10271000BB00F0E0E558FC4F808380919E0381115F
:102720005ECF81E08093790384EA8093BC001092AD
:102730009F0328CF85EC8093BC0010929F0380916B
:102740001103803230F4E0911103F0E0EF50FD4FBF
:1027500010826091110370E081EF92E0F0E0E0E020
:102760000995109211030ECF10929D0338CF1F923E
:102770000F920FB60F9211248F939F938091200395
:10278000811114C0809186009091870090931E0360
:1027900080931D0381E08093200310921F039F917B
:1027A0008F910F900FBE0F901F90189580911D0371
:1027B00090911E0390931C0380931B0380918600CD
:1027C0009091870090931E0380931D0381E0809376
:1027D0001F03E5CFE9ECF3E01382128288EE93E069
:1027E000A0E0B0E084839583A683B7832FE131E036
:1027F0003183208325EC30E03587248724EC30E0DA
:102800003787268720EC30E0318B208B21EC30E0BD
:10281000338B228B22EC30E0358B248B26EC30E09E
:10282000378B268B118E128E138E148EE6E6F4E013
:102830001382128284839583A683B78381E391E018
:10284000918380830895CF93DF93CDB7DEB7A297AE
:102850000FB6F894DEBF0FBECDBF789484B582600A
:1028600084BD84B5816084BD85B5826085BD85B534
:10287000816085BD80916E00816080936E001092B2
:10288000810080918100826080938100809181002D
:1028900081608093810080918000816080938000BE
:1028A0008091B10084608093B1008091B00081601C
:1028B0008093B00080917A00846080937A00809148
:1028C0007A00826080937A0080917A0081608093A0
:1028D0007A0080917A00806880937A001092C1001B
:1028E00060E082E00E942C0660E083E00E942C06FB
:1028F00060E084E00E942C0661E08DE00E942C06DE
:1029000061E089E00E942C0661E08AE00E942C06CA
:1029100061E08BE00E942C0661E08CE00E942C06B6
:1029200061E088E00E942C0660E087E00E942C06AF
:1029300060E08DE00E94FE0560E089E00E94FE05F7
:1029400060E08AE00E94FE0560E08BE00E94FE05E8
:1029500060E08CE00E94FE0560E088E00E94FE05D9
:10296000E091D903F091DA0382E08083E091D5030E
:10297000F091D6031082E091D703F091D80380E163
:1029800080831092E103E091DD03F091DE0386E0A5
:102990008083E091DB03F091DC03808180618083A0
:1029A000E091DB03F091DC03808188608083E0911B
:1029B000DB03F091DC03808180688083E091DB039E
:1029C000F091DC0380818F7D80838AE00E94D80AA9
:1029D00087E891E00E94BF0A86E991E00E94BF0A61
:1029E00082EA91E00E94BF0A82E00E94D505892B0D
:1029F00009F43CC283EB91E00E94BF0A82E00E948E
:102A0000D505892BD9F364E170E080E090E00E9465
:102A100082060E9440098AE090E00E94441E809352
:102A200002018BE090E00E94441E809303018CE041
:102A300090E00E94441E809304018DE090E00E948B
:102A4000441E8093050161E071E084E190E00E9402
:102A5000380B60E071E08EE190E00E94380B6FE28D
:102A600073E088E290E00E94380B8091020190911F
:102A70000301A0910401B091050184569109A109B7
:102A8000B1098D339648A140B10570F080E09AEF0E
:102A9000A0E0B0E08093020190930301A0930401B1
:102AA000B09305010E94FF0A809101018150883096
:102AB00048F088E08093010161E071E084E190E0FA
:102AC0000E94E80A8091000181508B3048F081E03B
:102AD0008093000160E071E08EE190E00E94E80ADE
:102AE0000E94CD0A0E94A90C80E498E7ADE7B1E00E
:102AF0008093680390936903A0936A03B0936B0378
:102B000010926603109267031092780362E987EBD4
:102B10000E94B80860E088E10E94B8086FEF89E081
:102B20000E94B80860E880E10E94B80860E881E18E
:102B30000E94B80860E882E10E94B8086CE080E179
:102B40000E94B8086CE081E10E94B8086CE082E164
:102B50000E94B8086FEF83E00E94B80800E020E010
:102B600030E24FE550EA62E170E080E090E00E94E0
:102B7000EA1001E020E030E24FE550EA62E170E067
:102B800080E090E00E94EA1053E5E52E53E0F52E38
:102B900000E1D7011D927D01802F0E94420B682F1A
:102BA0006F7D802F0E94B808F701319710820F5F68
:102BB000033179F760E082EA0E94B80860E083EAB6
:102BC0000E94B80860E084EA0E94B80860E281EBE5
:102BD0000E94B80860E881EB0E94B8086091020189
:102BE0007091030180910401909105010E949F1151
:102BF00000E020E030E24FE550EA62E170E080E082
:102C000090E00E94EA1063E080E00E94700C60E0B7
:102C100081E00E94700C0E94CF0E83E00E94D505D7
:102C2000892B09F040C010922F038FE00E940F09FA
:102C30000E94260A89E00E940F0960E082E00E945B
:102C4000700C02E020E031EE45EF55E060E070E00E
:102C500080E090E00E94BC0C81E00E94610C61E089
:102C600082E00E94270C84E00E94D505892B09F0A0
:102C700000C10E94400984E00E94D505892BD9F348
:102C800064E170E080E090E00E94820660E082E013
:102C90000E94270C80E00E94610C0E94FF0A0E94A3
:102CA0000D0A0E94A10E1092800081E8809381009D
:102CB00080B7846080BF80E286BB80936F000E94F3
:102CC00090090E94260A6090BA027090BB02809020
:102CD000BC02FE013396F98FE88F4BE0942E5E0123
:102CE000F4E0AF0EB11C80911F03882309F472C079
:102CF0000091300310921F03E0901D03F0901E031B
:102D000080911B0390911C03E81AF90A0E94B406F3
:102D100060932103709322038093230390932403F1
:102D2000E1141AEFF10608F055C0011117C00E9416
:102D3000400961E08DE00E94FE0501E00093290357
:102D400060E088E00E94FE0560E081E00E94270CC0
:102D500061E080E00E94270C00933003209125035E
:102D6000309126034091270350912803A4E6B0E058
:102D70000E94821E1B012C01970150E040E060E0A0
:102D800070E18EE59FE50E945A1E220E331E441EFE
:102D9000551E8201710120E030E0A9012A8EFB8ED0
:102DA0004C8E1D8F2E8F3F8F48A359A300E09101B9
:102DB0004C8D512F60E070E080E090E00E94BC0CF0
:102DC0000E94B4066093210370932203809323032F
:102DD00090932403809130038823D9F00E94B40695
:102DE000C0902103D0902203E0902303F0902403AD
:102DF0006C197D098E099F09603171058105910566
:102E000040F010923003109220030E94A10E0E9405
:102E1000340980912F03882309F445C589EC93E098
:102E20000E94F804892B09F46CC06D8A7E8A8F8A0F
:102E30001A82198282E1A88DB98D1D928A95E9F7CF
:102E4000F12CE12C89EC93E00E94F804892B09F421
:102E500050C089EC93E00E94D604082F8F7D8154E6
:102E60008A3108F4DAC0C7017C01ECCF0E94200B44
:102E70003BCE83E00E94D505892B41F5609102018C
:102E800070910301809104019091050164567109CC
:102E900081099109609302017093030180930401F9
:102EA000909305010E949F1102E020E031EE45EF72
:102EB00055E060E070E080E090E00E94BC0C64E1CE
:102EC00070E080E090E00E948206CDCE82E00E9419
:102ED000D505892B09F0C7CE6091020170910301DD
:102EE00080910401909105016C597F4F8F4F9F4F46
:102EF000D1CFC7010196B1E0EB16B4E0FB0608F4B0
:102F0000B3CF83E00E94D505892B09F040C00E9411
:102F1000B4066B017C01C0922B03D0922C03E0928B
:102F20002D03F0922E0381E080932A0383E00E9418
:102F3000D505892B79F40E94B4066C197D098E0998
:102F40009F096D3271408105910508F4A3C482E0A8
:102F500080932A0380912A03823009F09EC4109244
:102F60002F030E94CD0A80E00E949A096FE273E06D
:102F700088E290E00E94E80A83E00E94D505892B50
:102F8000D9F364E170E080E090E00E94820682E084
:102F90000E94D505892BA1F50E94B4066B017C0126
:102FA000C0922B03D0922C03E0922D03F0922E03BB
:102FB00081E080932A0382E00E94D505892B79F471
:102FC0000E94B4066C197D098E099F096D3271400B
:102FD0008105910508F464C482E080932A038091FE
:102FE0002A03823011F00E94340982E00E94D50544
:102FF000892BD9F364E170E080E090E00E948206C2
:1030000020E030E0232B09F46ECE0E9404058823D3
:1030100009F463CE0E94000060CE0A3709F471CF34
:103020000D8B0E94630A8E8B9FE9900F9A3110F4EA
:1030300000520D8B9FE9980F9A3110F480528E8BBD
:1030400060ED71E0CE0145960E94490A8823D1F0D7
:103050000E94560A80ED91E00E94E60A0E94800CD0
:1030600083ED91E00E94E60A80912903882341F0D4
:1030700081E30E94870583EE91E00E94E60A41CF3A
:1030800080E3F7CF6DEE71E0CE0145960E94490ACC
:10309000882329F00E94560A80EF91E0EECF67EF77
:1030A00071E0CE0145960E94490A882309F478C24E
:1030B0000E94630A90ED980F9A3008F085C0682F3F
:1030C000CE0101960E943B0A0AE00E94630A682F23
:1030D000CE0101960E943B0A0150B9F7FE013C96D1
:1030E000C12CD12C7601212C312C21012394A291C9
:1030F000A0530A2E000CBB0BA20191010E948D1E51
:10310000C60ED71EE81EF91EAAE0B0E00E94821E7D
:103110001B012C01AE16BF0651F7C0922503D092B9
:103120002603E0922703F0922803109200011092E8
:103130000101D701C6018158904FAA4FB2408F3F7D
:103140009840AD43B10508F048C081E0809300018C
:10315000F0EFCF16F4E1DF06F7EDEF06F10491F1A1
:1031600008F05EC11CE4C11619E8D1061BE6E106B1
:10317000F10409F442C108F0FCC038EDC31633E78E
:10318000D30636E3E306F104E9F008F0AAC050E8FC
:10319000C51653E1D5065CE1E506F10409F405C165
:1031A00060E5C6166BE1D6066CE1E606F10409F4AB
:1031B00080C170EEC71673E0D7067CE1E706F10424
:1031C00009F0A2C088E0F2C087EF91E00E94E60A11
:1031D0000E94800C8BEE91E050CFD701C601815048
:1031E0009F43AB4AB1408F39904FA941B10510F4CC
:1031F00082E0ACCFD701C60181599A4CAB47B140B0
:103200008F399648A140B10510F483E09FCFD701D4
:10321000C60181549F46A044B1408F3C9D4DA640BD
:10322000B10510F484E092CFD701C601815F994BBC
:10323000A341B1408F399648A140B10510F485E013
:1032400085CFD701C60181589F49A54DB1098F325D
:103250009745A540B10510F486E078CFD701C601A7
:1032600081529D41AA49B1098F34934CA105B10502
:1032700010F487E06BCFD701C601815C9F4CAA4652
:10328000B1098F3D9349A440B10510F488E05ECFA9
:10329000D701C60181529F4DA045B1098F339D4092
:1032A000A340B10510F489E051CFD701C601815E7A
:1032B0009746A543B1098F31914AA740B10510F453
:1032C0008AE044CFD701C60181549747AB41B10989
:1032D0008F339D40A340B10508F03ACF9092000192
:1032E00037CF88EDC8168CE8D80686E3E806F104E7
:1032F00009F483C058F5A8E0CA16A5E8DA06A6E3E3
:10330000EA06F10409F451C0A4E6B0E0A701960171
:103310000E94821E7B018C0120E030E0A9016A8FAF
:10332000FB8E8C8F1D8F2E8F3F8F48A359A301E0FA
:103330009B014C8D512F60E070E080E090E00E9496
:10334000BC0C0E9438090E94560ADBCDB0E9CB16AE
:10335000B8E9DB06B6E3EB06F10409F4AAC0E8E835
:10336000CE16E6E6DE06EBE6EE06F10409F42ACF19
:10337000CBCFFCE4CF16F4EBDF06FAE9EF06F1045D
:1033800009F420CF40F510E7C116D1041CE6E10690
:10339000F10409F48EC068F430EDC31630EFD306A3
:1033A0003BE6E306F10409F0AFCF81E08093010131
:1033B000ABCF40E5C41642E9D4064AE9E406F1047D
:1033C00009F477C050ECC51659EAD5065AE9E50666
:1033D000F10459F399CF60E9C61660ECD60666EDA4
:1033E000E606F10411F358F480E6C81689EBD80616
:1033F0008AE9E806F10409F087CF82E0D7CF90E3AD
:10340000C91690EDD90696EDE906F10409F451C00C
:10341000C114A8EDDA06A6EDEA06F10471F374CF43
:10342000B8EDCB16BBE3DB06BCE7EB06B1E0FB0671
:1034300021F308F055C0F0E5CF16F0E9DF06F1E41E
:10344000EF06F1E0FF0609F4B0CFF0F410ECC1167E
:103450001EE3D10614E1E10611E0F10671F228E164
:10346000C21621E4D20624E1E20621E0F20609F4C4
:10347000A9CE30E2C3163FE2D30634E1E30631E0E1
:10348000F30609F041CF91CF48ECC41640EED406C4
:1034900041E4E40641E0F40609F494CE60F460EF00
:1034A000C6166FE9D60661E4E60661E0F60609F0A5
:1034B0002BCF84E07BCF70E2C71672E9D70672E4A7
:1034C000E70671E0F70609F498CF88E3C8168CE2A6
:1034D000D8068CE7E80681E0F80609F466CF14CF39
:1034E00098EBC91695E2D9069DEAE90691E0F9063E
:1034F00009F468CE50F5B8EBCB16B1E5DB06BCE7B6
:10350000EB06B1E0FB0609F45DCE50F4F0E9CF160E
:10351000F7E4DF06FCE7EF06F1E0FF0651F2F4CE38
:1035200000E1C01600E6D0060CEAE00601E0F00675
:1035300009F43BCF10EBC1161FE6D1061CEAE106E9
:1035400011E0F10609F4B5CFDFCE28E0C21629E676
:10355000D2062FEFE20622E0F20609F433CE58F449
:1035600040E2C4164EEFD4064DEAE40641E0F4060C
:1035700009F443CFC9CE58E2C51657EBD5065FEF25
:10358000E50652E0F50609F410CF60EBC6166AECCA
:10359000D6066FEFE60662E0F60609F42ECFB4CE4B
:1035A0006AEF71E0CE0145960E94490A882349F0EE
:1035B0000E94630A80538A3008F4C5CE8DEF91E0F3
:1035C0005CCD62E072E0CE0145960E94490A8823F4
:1035D00049F00E94630A80538A3008F4B4CE85E033
:1035E00092E04BCD6AE072E0CE0145960E94490A16
:1035F000882349F00E94630A80538A3008F4A3CEDE
:103600008DE092E03ACD62E172E0CE0145960E94F3
:10361000490A882349F00E94630A80538A3008F4DB
:1036200092CE85E192E029CD6AE172E0CE01459625
:103630000E94490A882331F00E94560A81E0809353
:1036400029035FCC6DE172E0CE0145960E94490AE4
:10365000882329F00E94560A1092290352CC60E276
:1036600072E0CE0145960E94490A882329F100E0C4
:103670001AEF20E030E00093020110930301209341
:1036800004013093050186E08093000181E080937E
:10369000010180932F0383E292E00E94BF0A0E94FF
:1036A000CD0A0E94A90C0E94CF0E0E9490090E9490
:1036B000200B0E94A10E25CC61E372E0CE0145965D
:1036C0000E94490A882309F41CCC8FE00E940F094C
:1036D00064EF71E080E090E00E94820689E00E9441
:1036E0000F098AE00E94D80A89EA92E00E94BF0A84
:1036F00084E392E00E94BF0A86E592E00E94BF0A3E
:1037000088E792E00E94BF0A88E892E00E94BF0A20
:1037100060E082E00E94700C02E020E031EE45EFB4
:1037200055E060E070E080E090E00E94BC0C81E039
:103730000E94610C61E082E00E94270CD12CC12C18
:10374000512CF12CE12C89EC93E00E94F804892B98
:10375000E1F089EC93E00E94D6048B3209F47CC03E
:103760008D3209F47CC08D3329F08E3209F47FC08C
:10377000C70106C0D12CC12C1DE31AA390E080E044
:103780007C01E1CFD12CC12CF9CFC701019621E0FA
:10379000E21624E0F206A0F31AA11D3209F45AC081
:1037A0000CF04DC01B3209F050C0D12C80910201A9
:1037B00090910301A0910401B09105010A97A1091C
:1037C000B1098093020190930301A0930401B09387
:1037D0000501CC24C394DD20B1F0809102019091C9
:1037E0000301A0910401B09105010A96A11DB11D2C
:1037F0008093020190930301A0930401B09305010B
:10380000CD2CDD24D394609102017091030180914D
:103810000401909105010E949F1102E020E031EE29
:1038200045EF55E060E070E080E090E00E94BC0C65
:10383000511018C08AA10E94870553949FCF1AA1E6
:103840001E32A9F01D3309F49DCFC110AFCFDD208A
:1038500009F499CFD12CC1CF1BE21AA3A6CF1DE248
:103860001AA3F8CF24E65212E8CF512C87CF60E09C
:1038700082E00E94270C80E00E94610C0E94FF0AF7
:1038800080E20E94D80A81EA92E00E94BF0A0E9468
:103890000D0A0FCF0E94C00649CB0E9438096CCB9D
:1038A0000E94C00688CB82E00E94D505892B09F0D2
:1038B000FBC00E94B4066B017C01C0922B03D09226
:1038C0002C03E0922D03F0922E0381E080932A03D3
:1038D00082E00E94D505892B79F40E94B4066C1908
:1038E0007D098E099F096D3271408105910508F4AB
:1038F00057C182E080932A0380912A03823009F025
:103900008FC10E94700982E00E94D505892BD9F3EE
:1039100083E00E94D505892BB1F364E170E080E07B
:1039200090E00E948206FF24F39482E00E94D50575
:1039300000E0892BD9F50E94B4061B012C012092CE
:103940002B0330922C0340922D0350922E03F092C1
:103950002A0382E00E94D505892B79F40E94B406DF
:1039600062197309840995096D32714081059105C9
:1039700008F419C182E080932A0364E170E080E0DA
:1039800090E00E94820680912A03823009F00EC1E5
:103990000E94500901E082E00E94D505892BD9F3ED
:1039A00064E170E080E090E00E94820683E00E9483
:1039B000D505892BD9F50E94B4061B012C01209254
:1039C0002B0330922C0340922D0350922E03F09241
:1039D0002A0383E00E94D505892B79F40E94B4065E
:1039E00062197309840995096D3271408105910549
:1039F00008F4EBC082E080932A0364E170E080E089
:103A000090E00E94820680912A03823009F0E0C093
:103A10000E94500901E083E00E94D505892BD9F36B
:103A200064E170E080E090E00E94820684E00E9401
:103A3000D505892B59F50E94B4061B012C01209253
:103A40002B0330922C0340922D0350922E03F092C0
:103A50002A0384E00E94D505892B79F40E94B406DC
:103A600062197309840995096D32714081059105C8
:103A700008F4BDC082E080932A0380912A0382303B
:103A800009F0B8C00E94AF100E943809002309F461
:103A90004CCF82E00E94D505892BD9F364E170E018
:103AA00080E090E00E94820683E00E94D505892B89
:103AB00009F041C00E94B4066B017C01C0922B0347
:103AC000D0922C03E0922D03F0922E0381E080939C
:103AD0002A0383E00E94D505892B79F40E94B4065D
:103AE0006C197D098E099F096D3271408105910520
:103AF00008F4A4C082E080932A0380912A038230D4
:103B000009F09FC081E080932F030E94CD0A81E0DD
:103B10000E949A096FE273E088E290E00E94E80A4E
:103B200083E00E94D505892BD9F364E170E080E041
:103B300090E00E94820684E00E94D505892B09F05E
:103B40005FCA0E94B4066B017C01C0922B03D09225
:103B50002C03E0922D03F0922E0381E080932A0340
:103B600084E00E94D505892B79F40E94B4066C1973
:103B70007D098E099F096D3271408105910508F418
:103B800070C082E080932A0380912A03823009F07A
:103B90006BC00E9440090E94AF100E94340930CAD5
:103BA0000E94C00695CE0E94C006D3CE809100012F
:103BB000815041F0809300010E9438090E94CF0E8D
:103BC00000E0E9CE90920001F7CF0E94C00601CF3D
:103BD000809100018F5F8C3038F4809300010E9447
:103BE00038090E94CF0E17CFF0920001F8CF0E9443
:103BF000C0062FCF0E940D0A60E071E08EE190E0D8
:103C00000E94E80A84E00E94D505892BD9F364E17B
:103C100070E080E090E00E9482060E94500939CF57
:103C200080910101880F893038F4809301010E944E
:103C3000CF0E0E9434092DCF81E0F7CF0E94C0063D
:103C400048CF8091010190E095958795009739F0D4
:103C5000809301010E94CF0E0E94340961CF88E059
:103C6000F7CF0E94C0067CCF0E940D0A0E94340943
:103C700061E071E084E190E00E94E80A84E00E9443
:103C8000D505892BD9F3B6C9F999FECF92BD81BD6F
:103C9000F89A992780B50895262FF999FECF1FBA73
:103CA00092BD81BD20BD0FB6F894FA9AF99A0FBE65
:103CB00001960895A1E21A2EAA1BBB1BFD010DC09F
:103CC000AA1FBB1FEE1FFF1FA217B307E407F507CC
:103CD00020F0A21BB30BE40BF50B661F771F881FA8
:103CE000991F1A9469F760957095809590959B013E
:103CF000AC01BD01CF010895EE0FFF1F0590F491B7
:103D0000E02D09940E943A20A59F900DB49F900D3C
:103D1000A49F800D911D11240895B7FF0C94821E5D
:103D20000E94821E821B930B0895DF93CF931F93F3
:103D30000F939A9DF02D219FF00D8B9DF00D8A9D84
:103D4000E02DF10D039FF00D029FE00DF11D4E9D42
:103D5000E00DF11D5E9DF00D4F9DF00D7F936F9373
:103D6000BF92AF925F934F93D5010E943A208B018F
:103D7000AC01D7010E943A20EB01E80FF91FD601F0
:103D80000E94E41E2F913F91D6010E943A20C60F57
:103D9000D71FE81FF91FAF91BF910E94E41E2F911A
:103DA0003F910E943A20C60FD71FE81FF91FD60186
:103DB0000E943A20E60FF71F9801BE01CF010F9134
:103DC0001F91CF91DF9108950E943A20460F571F0F
:103DD000C81FD91F08F431960895E894DF93CF9354
:103DE000FC01DB010E943A207F936F93E9019A0165
:103DF000AC01BF93AF933F932F93DF010E943A2012
:103E000026F46C1B7D0B820B930B9E01EB01FC01D6
:103E10000E94E41EAF91BF912F913F910E94E41E3A
:103E2000BE01CF01F9012F913F91CF91DF9108950C
:103E3000689401C0E894F92FF12B12F00C944C1FF8
:103E4000A0E0B0E0E6E2FFE10C94BE1F092E05946D
:103E500022F40E94A81F112392F4F0E80F26FFEF2E
:103E6000E094F09400951095B094C094D094A194EF
:103E7000BF0ACF0ADF0AEF0AFF0A0F0B1F0B0E94CF
:103E8000571F07FC0E94A81FCDB7DEB7ECE00C94CB
:103E9000DA1F689401C0E8948F929F92CF93DF93CA
:103EA0000E94571FDF91CF919F908F900895882493
:103EB0009924F401E401B0E49F93AA279A158B0496
:103EC0009C04ED05FE05CF05D007A10798F4AD2FA2
:103ED000DC2FCF2FFE2FE92D982C892E982F872F9E
:103EE000762F652F542F432F322F2227B85031F7CA
:103EF000BF9127C01B2EBF91BB27220F331F441F2A
:103F0000551F661F771F881F991F881C991CEE1F5D
:103F1000FF1FCC1FDD1FAA1FBB1F8A149B04EC05CB
:103F2000FD05CE05DF05A007B10748F08A189B08FC
:103F3000EC09FD09CE09DF09A00BB10B21601A9431
:103F4000E1F62EF49401AF01BE01CD01000C0895FD
:103F500060957095809590953095409550952195F8
:103F60003F4F4F4F5F4F6F4F7F4F8F4F9F4F089582
:103F70002F923F924F925F926F927F928F929F9279
:103F8000AF92BF92CF92DF92EF92FF920F931F9367
:103F9000CF93DF93CDB7DEB7CA1BDB0B0FB6F89418
:103FA000DEBF0FBECDBF09942A88398848885F8458
:103FB0006E847D848C849B84AA84B984C884DF80C9
:103FC000EE80FD800C811B81AA81B981CE0FD11DAD
:103FD0000FB6F894DEBF0FBECDBFED010895002EE1
:103FE000083090F0982F872F762F652F542F432F6E
:103FF000322F22270850F4CF220F331F441F551FA2
:10400000661F771F881F991F0A95B2F7002D089524
:1040100097FD1094002E083098F00850232F342F6D
:10402000452F562F672F782F892F912DF4CF159478
:1040300097958795779567955795479537952795E0
:104040000A95AAF71124002D08952A0D3B1D4C1D39
:104050005D1D6E1D7F1D801F911F08950024A7FD0B
:1040600000942A173005400550056005700580054D
:1040700090050895A29FB001B39FC001A39F700D4A
:10408000811D1124911DB29F700D811D1124911D60
:1040900008950F931F93CF93DF938230910510F40F
:1040A00082E090E0E0917404F091750430E020E04B
:1040B000B0E0A0E0309799F42115310509F44AC029
:1040C000281B390B24303105D8F58A819B81611575
:1040D000710589F1FB0193838283FE0111C0408148
:1040E00051810281138148175907E0F04817590799
:1040F00099F4109761F012960C93129713961C93F3
:104100003296CF01DF91CF911F910F9108950093C7
:10411000740410937504F4CF2115310551F0421742
:10412000530738F0A901DB019A01BD01DF01F80155
:10413000C1CFEF01F9CF9093750480937404CDCF74
:10414000FE01E20FF31F81939193225031093983CD
:104150002883D7CF2091720430917304232B41F42C
:104160002091080130910901309373042093720467
:1041700020910601309107012115310541F42DB739
:104180003EB740910A0150910B01241B350BE09181
:104190007204F0917304E217F307A0F42E1B3F0B97
:1041A0002817390778F0AC014E5F5F4F24173507A9
:1041B00048F04E0F5F1F5093730440937204819335
:1041C00091939FCFF0E0E0E09CCFCF93DF930097F7
:1041D000E9F0FC01329713821282A0917404B0912D
:1041E0007504ED0130E020E01097A1F420813181C9
:1041F000820F931F2091720430917304281739079E
:1042000009F061C0F0937304E0937204DF91CF91E1
:104210000895EA01CE17DF07E8F54A815B819E0128
:1042200041155105B1F7E901FB83EA8349915991A1
:10423000C40FD51FEC17FD0761F4808191810296B0
:10424000840F951FE90199838883828193819B83E1
:104250008A83F0E0E0E012968D919C91139700978D
:10426000B9F52D913C911197CD010296820F931FC4
:1042700020917204309173042817390739F630976A
:1042800051F51092750410927404B0937304A093C6
:104290007204BCCFD383C28340815181840F951FA8
:1042A000C817D90761F44E5F5F4F88819981480F25
:1042B000591F518340838A819B8193838283211577
:1042C000310509F0B0CFF0937504E09374049ECFEC
:1042D000FD01DC01C0CF13821282D7CFF894FFCF4B
:1042E000060100FA000000007604800000030506C5
:1042F00007090A0B0C0D0E0F2C343C000000003A8D
:10430000059A04C7048C05F804D604EA04000000EA
:104310000089085C08F80839088C0049083A080D3B
:104320000A00434154206D6F6465206973204F4E2D
:1043300000434154206D6F6465206973204F4646E9
:1043400000536176696E672073657474696E677374
:1043500020746F20454550524F4D0063616C5F647F
:10436000617461203D20004144582D4D494E492043
:10437000312E303464004A756C20323920323032AC
:104380003300776974682043415420737570706FEF
:1043900072740052656164696E6720736574746934
:1043A0006E67732066726F6D20454550524F4D0009
:1043B00049460030303030302B3030303030303003
:1043C00030300032303030303030303B0049440043
:1043D00049443031393B004641004D44004D4432A0
:1043E0003B004149004149303B005053005053319C
:1043F0003B005854005854303B0054580052580069
:10440000465200666163746F7279207265736574D9
:1044100000434D007072657373202B20746F206908
:104420006E6372656173652063616C20667265718D
:1044300075656E6379007072657373202D20746FDB
:104440002064656372656173652063616C206672C8
:10445000657175656E6379007072657373203D20B8
:10446000746F2073746F70007072657373202E20E8
:10447000746F207361766520616E6420657869745D
:104480000065786974696E672063616C6962726146
:0E44900074696F6E206D6F6465007A7A0000AB
:00000001FF
