:100000000C9462000C948A000C948A000C948A0070
:100010000C948A000C948A000C948A000C948A0038
:100020000C948A000C948A000C949D130C948A0002
:100030000C948A000C948A000C948A000C948A0018
:100040000C9438120C948A000C9406120C94E01153
:100050000C948A000C948A000C948A000C948A00F8
:100060000C9482120C948A000000000024002700E7
:100070002A0000000000250028002B0000000000DE
:1000800023002600290004040404040404040202DA
:100090000202020203030303030301020408102007
:1000A0004080010204081020010204081020000012
:1000B0000008000201000003040700000000000027
:1000C0000000D01311241FBECFEFD8E0DEBFCDBF9C
:1000D00012E0A0E0B1E0E0E5F2E402C005900D928C
:1000E000AE3BB107D9F724E0AEEBB2E001C01D9200
:1000F000AA37B207E1F710E0C2E6D0E004C02197CA
:10010000FE010E94341EC136D107C9F70E940914AE
:100110000C9426210C9400008091350390913603B5
:10012000891B990B08952F923F924F925F926F9285
:100130007F928F929F92AF92BF92CF92DF92EF9277
:10014000FF920F931F93CF93DF93CDB7DEB76C97DA
:100150000FB6F894DEBF0FBECDBF322E3D87242EE2
:100160005E872B013C01A982BF86C88AD98AEA8AA8
:10017000FB8A0C8B1D8B988E8F8A211501EC300722
:100180000AE140070DE3500705E0600771058105AE
:10019000910509F0A0F52F3710EF31071AEF41074D
:1001A00012E05107610571058105910509F008F418
:1001B000B4C12F3F354D41415E4763407105810514
:1001C000910509F008F48FC029813F854889598934
:1001D0006A897B898C899D89A0E0992493940E94E7
:1001E000E61F09F08EC011E01E8B94E0892E912C41
:1001F000A12CB12C89869A86AB86BC862FC0312C67
:10020000B1ECBD872AE1222EEDE3EE8735E0432EE7
:10021000512C612C712CD8CFA32CBD84C22CDE8430
:100220007201830120E034E04BE654EF64E170E0BA
:1002300080E090E00E94031F122FB32FF42FE52FD0
:10024000A7E00E94E61F21F416E0B0E0F0E0E0E055
:10025000CF011987BA879B87EC871E8A89849A8485
:10026000AB84BC84A501940160E070E0CB01A32CB9
:10027000BD84C22CDE847201830129833A834B83BF
:100280005C836D837E838F83988760E070E080E07D
:1002900090E00E944D1E29833F87488B598B6A8BC3
:1002A0007B8B8C8B9D8B0E89C12CD12C7601C394BA
:1002B00040E050E0BA01013009F0A9C0AF89B88D23
:1002C0001D921D921D921C921397FD01148215829E
:1002D0001682178281E090E0A0E0B0E080879187ED
:1002E000A287B387DEC029813F85488959896A89F9
:1002F0007B898C899D89A0E00E94E61F09F48CCF40
:10030000912CA32CBD84C22CDE847201830129812F
:100310003F85488959896A897B898C899D890E9492
:10032000031F29873A874B875C8729853A854B8548
:100330005C8506E0A02EB12C263031054105510523
:1003400068F089859A85AB85BC8589309740A10581
:10035000B105D0F0B8E0AB2E17E0B12EC12CD12CF6
:10036000E12CF12C00E010E029813F854889598972
:100370006A897B898C899D890E94031F322E3D8763
:10038000242E5E872B013C01A32CBD84C22CDE846D
:100390007201830129813F85488959896A897B894E
:1003A0008C899D890E94011FE0E4AE2EF2E4BF2EED
:1003B000AFE0CA2ED12CE12CF12C00E010E00E941D
:1003C0004D1EA32CBD84C22CDE84720183010E94C9
:1003D000031FA32FF42FE52F422F5A2F6F2F7E2FAD
:1003E000A0E4CA2EA2E4DA2EAFE0EA2EF12C4115E9
:1003F00051056105710521F4C12CD12C7601C394FE
:10040000AA24A3949A1409F46DC001E00E8BCB01C9
:10041000BA0117E0660F771F881F991F1A95D1F749
:10042000A70196010E94121E298F3A8F4B8F5C8F75
:1004300089849A84AB84BC8407E0880C991CAA1C2C
:10044000BB1C0A95D1F7950184011250210931098D
:1004500048015901298D3A8D4B8D5C8D280D391D30
:100460004A1D5B1DAF89B88D2D933D934D935C93D1
:100470001397FD0164837583868397831896CD92C5
:10048000DD92ED92FC921B978E88882051F0398284
:100490009D849F86288AAE84A98A4A8A5B8A6C8A50
:1004A0007D8A29813F85488959896A897B898C8918
:1004B0009D896C960FB6F894DEBF0FBECDBFDF915D
:1004C000CF911F910F91FF90EF90DF90CF90BF9051
:1004D000AF909F908F907F906F905F904F903F90E4
:1004E0002F900895AF89B88D1D921D921D921C9278
:1004F0001397FD01148215821682178281E090E025
:10050000A0E0B0E080879187A287B3873982FD851C
:10051000FF87288A8E84898AC0CF29813F854889B0
:1005200059896A897B898C899D89A0E0E0E83E2E03
:10053000F0EFFD87FAEF2F2E02E00E87412C512CB1
:10054000612C712C0E94E61F09F0DACE18E0B7E0AA
:100550007DCE2F923F924F925F926F927F928F92B9
:100560009F92AF92BF92CF92DF92EF92FF920F9342
:100570001F93CF93DF93CDB7DEB7AA970FB6F8944A
:10058000DEBF0FBECDBF0D871D8B298F3A8F4B8FDE
:100590005C8F6F8F7BA3FE8EED8E8111C4C1E091C5
:1005A0006A0324E0E29FF0011124E95AFC4F6589B7
:1005B00076898789908D24E630E040E050E00E9403
:1005C000A51E522E632E742E852E962E7A8B898B25
:1005D000492E86017501110FEE08FE2C8701950149
:1005E000A6016E2D7E2D8E2D9E2D0FE10E94A71F40
:1005F000A12CEAECBE2EFAE9CF2EABE3DA2EE12CE9
:10060000F12C00E010E00E94D21EA52CB62CC72CC5
:10061000D82CE92CFA880989142D0E944D1E0FE16F
:100620000E94C21F29833A834B835C836D837E8340
:100630008F83988789819A81AB81BC81BB0F880B9E
:10064000982FDC0189879A87AB87BC87252D362DAB
:10065000472D582D692D7F2D8989942DA980BA8029
:10066000CB80DC80E984FE2C0E2D1E2D0E94DD1F28
:1006700029833987498B5A8B6B8B7C8B1C016D844A
:100680007D88898C9A8C9C8D9D8B4F8C5BA093016F
:10069000A4016B8D792FC201211534404B46544F74
:1006A000644171058105910569F060F0612C24E0D9
:1006B000722E3BE6832E44EF942EB4E1BB8F1D8A4D
:1006C000412C512CEB8DEF8F9301A4016E2F7D896E
:1006D000C201211538454744584F6D4071058105C9
:1006E000910560F4612C08E5702E87E4882E98EF60
:1006F000992E2DE02F8F1D8A412C512CA980B98471
:10070000C988DA88EB88FC8881019301A4016F8D88
:100710007D89C2010E94031F298F3A8F4B8F5C8F06
:100720002D873E874F87588B8D859E85AF85B889ED
:100730001FE0A12E0F97A105B10558F02D853E852C
:100740004F8558892B35310541055105B8F0BAE57B
:10075000AB2EB12CC12CD12CE12CF12C00E010E0FF
:100760002981398549895A896B897C89C1010E940F
:100770004D1E39014A016F8F7D8B2C01A980B984F0
:10078000C988DA88EB88FC8881019301A4016F8D08
:100790007D89C2010E94011FE0E4AE2EF2E4BF2E6B
:1007A000AFE0CA2ED12CE12CF12C00E010E00E9429
:1007B0004D1EA980B984C988DA88EB88FC8881013C
:1007C0000E94031F49014CA35BA3C901DA0121E088
:1007D00030E040E050E00097A105B10521F020E4B1
:1007E00032E44FE050E02D8B3E8B4F8B588FBC0195
:1007F000CD0127E0660F771F881F991F2A95D1F733
:100800002D893E894F89588D0E94121E29013A0177
:100810006F8F78A389A39AA3A980B984C988DA883D
:10082000EB88FC88810194014CA15BA160E070E041
:1008300080E090E00E944D1E2BA33CA34DA35EA33D
:100840006FA378A789A79AA78D859E85AF85B8895C
:1008500037E0880F991FAA1FBB1F3A95D1F7925016
:10086000A109B109840D951DA61DB71DED8DFE8D45
:1008700080839183A283B3832F8D38A149A15AA18C
:1008800024833583468357832D893E894F89588D2C
:100890002087318742875387298D3A8D4B8D5C8D18
:1008A00060E070E080E090E00E944D1E29013A0176
:1008B0004B01898799838D899E89AF89B88D5C01A9
:1008C0006D01E12CF12C00E010E02BA13CA14DA129
:1008D0005EA16FA178A589A59AA50E94031F590161
:1008E0006A017B018C019201A301B4018985998180
:1008F0000E94DD1FAA960FB6F894DEBF0FBECDBFD3
:10090000DF91CF911F910F91FF90EF90DF90CF90EB
:10091000BF90AF909F908F907F906F905F904F901F
:100920003F902F900895E0916B0334E0E39FF00136
:1009300011243BCEAF92BF92CF92DF92EF92FF9203
:100940000F931F93CF93DF936C017B018B01040FF7
:10095000151FEB015E01AE18BF08C017D10759F093
:100960006991D601ED91FC910190F081E02DC601D5
:100970000995892B79F7C501DF91CF911F910F91CF
:10098000FF90EF90DF90CF90BF90AF900895FC0163
:10099000538D448D252F30E0842F90E0821B930BE4
:1009A000541710F0CF96089501970895FC01918D8A
:1009B000828D981761F0A28DAE0FBF2FB11D5D968D
:1009C0008C91928D9F5F9F73928F90E008958FEF2F
:1009D0009FEF0895FC01918D828D981731F0828DE3
:1009E000E80FF11D858D90E008958FEF9FEF08953A
:1009F000FC01918D228D892F90E0805C9F4F821B9E
:100A000091098F73992708958DEC93E00E94F80463
:100A100021E0892B09F420E0822F089580E090E006
:100A2000892B29F00E94040581110C94000008957F
:100A3000FC01A48DA80FB92FB11DA35ABF4F2C9153
:100A4000848D90E001968F739927848FA689B7894A
:100A50002C93A089B1898C91837080648C93938D41
:100A6000848D981306C00288F389E02D80818F7DE4
:100A700080830895EF92FF920F931F93CF93DF939C
:100A8000EC0181E0888F9B8D8C8D98131AC0E889CA
:100A9000F989808185FF15C09FB7F894EE89FF8999
:100AA0006083E889F98980818370806480839FBF37
:100AB00081E090E0DF91CF911F910F91FF90EF9037
:100AC0000895F62E0B8D10E00F5F1F4F0F73112747
:100AD000E02E8C8D8E110CC00FB607FCFACFE88982
:100AE000F989808185FFF5CFCE010E941805F1CFED
:100AF000EB8DEC0FFD2FF11DE35AFF4FF0829FB7F6
:100B0000F8940B8FEA89FB8980818062CFCF682FB0
:100B10008DEC93E00C943A05CF93DF93EC01888D34
:100B20008823B9F0AA89BB89E889F9898C9185FD68
:100B300003C0808186FD0DC00FB607FCF7CF8C91F6
:100B400085FFF2CF808185FFEDCFCE010E94180591
:100B5000E9CFDF91CF910895833081F028F481307F
:100B600099F08230A9F008958730A9F08830C9F053
:100B70008430B1F4809180008F7D03C0809180002B
:100B80008F7780938000089584B58F7784BD089512
:100B900084B58F7DFBCF8091B0008F778093B000BC
:100BA00008958091B0008F7DF9CFCF93DF93282FE8
:100BB00030E0F901E255FF4F8491F901E656FF4F0D
:100BC000D491F901EA57FF4FC491CC23A1F08111D0
:100BD0000E94AC05EC2FF0E0EE0FFF1FE458FF4F32
:100BE000A591B491EC91ED2381E090E009F480E0CF
:100BF000DF91CF91089580E090E0FACF1F93CF93DB
:100C0000DF93282F30E0F901E255FF4F8491F9017D
:100C1000E656FF4FD491F901EA57FF4FC491CC2318
:100C2000A9F0162F81110E94AC05EC2FF0E0EE0F19
:100C3000FF1FEE58FF4FA591B4918FB7F894EC9138
:100C4000111108C0D095DE23DC938FBFDF91CF91C7
:100C50001F910895DE2BF8CFCF93DF9390E0FC0136
:100C6000E656FF4F24918A579F4FFC0184918823B9
:100C7000D1F090E0880F991FFC01E859FF4FA59132
:100C8000B491FC01EE58FF4FC591D49161110EC093
:100C90009FB7F8948C91E22FE0958E238C93288156
:100CA000E223E8839FBFDF91CF9108958FB7F89437
:100CB000EC91E22BEC938FBFF6CF3FB7F894809185
:100CC000170390911803A0911903B0911A0326B548
:100CD000A89B05C02F3F19F00196A11DB11D3FBF74
:100CE000BA2FA92F982F8827BC01CD01620F711D43
:100CF000811D911D42E0660F771F881F991F4A953D
:100D0000D1F708958F929F92AF92BF92CF92DF92C8
:100D1000EF92FF924B015C010E945D066B017C012A
:100D20000E945D066C197D098E099F09683E73401B
:100D300081059105A8F321E0821A9108A108B10864
:100D400088EEC80E83E0D81EE11CF11C81149104CA
:100D5000A104B10429F7FF90EF90DF90CF90BF90EE
:100D6000AF909F908F9008952FB7F89460911303E0
:100D70007091140380911503909116032FBF08956D
:100D8000CF92DF92EF92FF92CF93DF930E94B4064F
:100D90006B017C012FEFC21AD20AE20AF20ACBE8F9
:100DA000D1E06C157D058E059F0530F4CE010197CD
:100DB000F1F70E94B406F5CFDF91CF91FF90EF904D
:100DC000DF90CF9008951F93CF93DF93C1E0C0933E
:100DD000CE02882399F1D091B8001091BA00809189
:100DE000BC008A7B8093BC0060E082E10E94FE052B
:100DF00060E083E10E94FE051092A303C093A2036A
:100E000010927D0361E082E10E94FE0561E083E1D2
:100E10000E94FE058091B9008E7F8093B900809179
:100E2000B9008D7F8093B90088E48093B80085E491
:100E30008093BC001093BA00D093B800DF91CF919B
:100E40001F9108958F929F92AF92BF92CF92DF929F
:100E5000EF92FF920F931F93CF93DF93D091CC0328
:100E6000D13208F0D7C0182FC091CB030E945D0685
:100E70006B017C018091A30381116BC082E08093A0
:100E8000A3031093A2038FEF8093A1031092A003FA
:100E9000D0939F03ABEAB3E0EFE7F3E080E0D81331
:100EA00091C010927E0380917E03CC0FC82BC0931B
:100EB0007E0380917D03813009F088C010927D030C
:100EC0000E945D066B017C0180917E038093BB00D4
:100ED0008091A5039091A603A091A703B091A803C8
:100EE000892B8A2B8B2BA1F00E945D060091A50314
:100EF0001091A6032091A7033091A8036C197D09D6
:100F00008E099F09061717072807390708F442C0FA
:100F10008091BC0083FDD8CF85EC8093BC000E94FB
:100F20005D066B017C018091A303823009F450C0FF
:100F30008091A1038F3F09F46FC08091A10380329B
:100F400009F46CC08091A103803309F469C084E086
:100F500026C08091A5039091A603A091A703B0910C
:100F6000A803892B8A2B8B2B09F484CF0E945D0662
:100F70008090A5039090A603A090A703B090A8032B
:100F80006C197D098E099F0986169706A806B90671
:100F900008F070CF8091A4030E94E30685E01092D0
:100FA000AA031092CC031092A903DF91CF911F9155
:100FB0000F91FF90EF90DF90CF90BF90AF909F90F8
:100FC0008F9008959D9191938F5F69CF85EEA5CF06
:100FD0008091A5039091A603A091A703B091A803C7
:100FE000892B8A2B8B2B09F49ECF0E945D060091E2
:100FF000A5031091A6032091A7033091A8036C19B3
:101000007D098E099F09061717072807390708F079
:101010008ACFC0CF81E0C3CF80E0C1CF82E0BFCF15
:1010200083E0BDCF2091EF02260F3327331F2132FB
:101030003105ECF42091A303FC0190E080E0243022
:1010400069F082E00895A091EF022191AC01415333
:101050005D4FA40FB52FB11D2C930196861798F301
:101060008091EF02680F6093EF0280E0089581E0C5
:1010700008950895E091360380913503E81730F420
:10108000F0E0E95CFC4F808190E008958FEF9FEFE6
:10109000089590913603809135032FEF3FEF981715
:1010A00048F4E92FF0E0E95CFC4F208130E09F5FDD
:1010B00090933603C9010895CF92DF92EF92FF9289
:1010C0000F931F93CF93DF937C01CB018A01209173
:1010D000A903222389F0EB016B01C40ED51ECC15A8
:1010E000DD0569F06991D701ED91FC910190F081E6
:1010F000E02DC7010995F3CF642F0E941208C801A3
:10110000DF91CF911F910F91FF90EF90DF90CF90E3
:101110000895CF93DF931F92CDB7DEB769832091F7
:10112000A9032223F9F02091CC03203258F021E0CA
:1011300030E0FC013383228390E080E00F90DF9168
:10114000CF9108958091AA03E82FF0E0E555FC4F78
:10115000998190838F5F8093AA038093CC0381E071
:1011600090E0ECCF61E0CE0101960E941208F7CF2B
:10117000CF93C62F91E09093A90390E69093CB0371
:101180001092AA031092CC03682F8AE694E00E9482
:1011900089086C2F8AE694E00E94890881E0CF914B
:1011A0000C9422070F931F93CF93DF938B0191E051
:1011B0009093A90390E69093CB031092AA03109208
:1011C000CC03682F8AE694E00E948908E801085F52
:1011D0001F4F69918AE694E00E948908C017D107E1
:1011E000C1F781E0DF91CF911F910F910C942207FD
:1011F00090E080E0089560E08CE00E94FE0560E0F1
:101200008BE00E94FE0560E08AE00E94FE0560E03F
:1012100089E00E94FE0560E08DE00C94FE05CF930E
:10122000DF93C82F662329F0E62FF0E0ED5DFE4F37
:10123000C0816C2F61708CE00E94FE05D0E0BE0181
:101240007595679561708BE00E94FE05BE017595EE
:1012500067957595679561708AE00E94FE0523E0A9
:10126000D595C7952A95E1F76C2F617089E0DF91DC
:10127000CF910C94FE0560E08CE00E94FE0560E0DA
:101280008BE00E94FE0560E08AE00E94FE0560E0BF
:1012900089E00C94FE050E943B096AEF70E080E053
:1012A00090E00E94820660E0809101010E940F0997
:1012B0006AEF70E080E090E00E9482060E943B09A5
:1012C0006AEF70E080E090E00E94820660E080912A
:1012D00001010E940F096AEF70E080E090E00C9439
:1012E00082060E943B096AEF70E080E090E00E9475
:1012F00082066091000180E00E940F096AEF70E0B1
:1013000080E090E00E9482060E943B096AEF70E054
:1013100080E090E00E9482066091000180E00E94DF
:101320000F096AEF70E080E090E00C9482060E9462
:10133000710964EF71E080E090E00E9482060C94F5
:101340004B09CF93C82F0E94FB0864EF71E080E047
:1013500090E00E94820661E0CC23E1F18CE00E94E3
:10136000FE0564E670E080E090E00E94820661E0A5
:101370008BE00E94FE0564E670E080E090E00E9451
:10138000820661E08DE00E94FE0564E670E080E088
:1013900090E00E94820661E08AE00E94FE0564E619
:1013A00070E080E090E00E94820661E089E00E94A7
:1013B000FE0564EF71E080E090E00E9482060E94EA
:1013C000FB0864EF71E080E090E00E948206CF911C
:1013D0000C94970989E00E94FE0564E670E080E0C5
:1013E00090E00E94820661E08AE00E94FE0564E6C9
:1013F00070E080E090E00E94820661E08DE00E9453
:10140000FE0564E670E080E090E00E94820661E004
:101410008BE00E94FE0564E670E080E090E00E94B0
:10142000820661E08CE0C3CF1F93CF93DF930E94CD
:101430003B09C4E0D1E011E06D2F8DE00E94FE0574
:10144000D1276AEF70E080E090E00E948206C150F0
:1014500099F7DF91CF911F91089583E00E94D50500
:10146000892BD9F382E00E94D505892BB1F384E062
:101470000E94D505892B89F364E170E080E090E05B
:101480000C948206E0E0DC01AE0FB11DEF5F2C9101
:101490002111F9CF6C93E80FF92FF11D10820895F7
:1014A000FC019081DB018C91981305C081E02181C2
:1014B00011969C91291380E008958DEC93E00E9491
:1014C000F804892BD1F38DEC93E00E94D6048B3382
:1014D000A1F708958DEC93E00E94F804892BD1F3D5
:1014E0008DEC93E00E94D6040895FC010190002049
:1014F000E9F73197AF01481B590BBC018DEC93E024
:101500000C949A04CF93DF930E948705EC0186E543
:1015100091E00E94750A8C0F9D1FDF91CF91089575
:10152000CF93DF93D0E0C0E0009719F00E94750AD6
:10153000EC0186E591E00E94750A8C0F9D1FDF91FA
:10154000CF9108950C94750AFF920F931F93CF9338
:10155000DF938C01EB01F8800E94FC1DF81621F04E
:101560006F2DC8010E94041ECE01DF91CF911F9103
:101570000F91FF900895FF920F931F93CF93DF93E6
:1015800002E011E0CAE0D0E0F801F1908F01CE0155
:101590000E94FC1DF81621F06F2DCE010E94041E42
:1015A0002196CE30D10581F782E091E0DF91CF9195
:1015B0001F910F91FF9008950E94BB0A61E071E0B6
:1015C00088E290E00E94A40A60E071E082E390E08B
:1015D0000C94A40ACF93DF93EB010E94FC1D888337
:1015E000CE01DF91CF910895CF92DF92EF92FF92DB
:1015F0000F931F93CF9391E09093A90390E690935C
:10160000CB031092AA031092CC03682F8AE694E0D1
:101610000E94890881E00E9422070E945D066B01FA
:101620007C018091A303811164C081E08093A303B6
:101630001092A2039FEF9093A1031092A003109227
:101640009F0380937E0380917E03806C80937E0352
:1016500080917D03813009F080C010927D030E944B
:101660005D066B017C0180917E038093BB008091BD
:10167000A5039091A603A091A703B091A803892B7D
:101680008A2B8B2BA1F00E945D060091A50310917F
:10169000A6032091A7033091A8036C197D098E0938
:1016A0009F09061717072807390708F443C08091D8
:1016B000BC0083FDD8CF85EC8093BC000E945D0602
:1016C0006B017C018091A303813009F448C08091B3
:1016D000A003C1E0811102C0C091A003EFE7F3E0D5
:1016E000A7E3B3E080E08C1751F191919D938F5F58
:1016F000FACF8091A5039091A603A091A703B09182
:10170000A803892B8A2B8B2B09F48BCF0E945D06B3
:101710000091A5031091A6032091A7033091A8037F
:101720006C197D098E099F090617170728073907C5
:1017300008F077CF8091A4030E94E306C0E01092E6
:101740003603C093350380E090913603C91749F101
:101750008AE694E00E944908F7CF85EEADCF8091EC
:10176000A5039091A603A091A703B091A803892B8C
:101770008A2B8B2B09F4A6CF0E945D060091A5034E
:101780001091A6032091A7033091A8036C197D093D
:101790008E099F09061717072807390708F092CF07
:1017A000C9CFCF911F910F91FF90EF90DF90CF9015
:1017B0000895CF93DF93D82FC62F83E00E94F40AB9
:1017C00061E070E001C0660FDA95EAF7C13039F4E4
:1017D0006095682383E0DF91CF910C94B808682B63
:1017E000F9CFCF93DF93C62FE82FF0E0E15DFE4FF6
:1017F000D0818D2F0E94F40A90E1C99FB00111247D
:101800008378682B8D2FDF91CF910C94B808CF93FC
:10181000C0E1C80F8C2F0E94F40A682F6F7B8C2FB9
:10182000CF910C94B808CF93C82F82E10E94F40A9C
:10183000682FC13029F46F7782E1CF910C94B808FA
:101840006068FACFCF93DF93D62FC0E1C80F8C2FFB
:101850000E94F40A8C7F682F6D2B8C2FDF91CF9123
:101860000C94B808CF92DF92EF92FF920F931F93E0
:10187000CF93DF93CDB7DEB7A1970FB6F894DEBF55
:101880000FBECDBF8091290390912A03A0912B0315
:10189000B0912C03803826E9920728E9A207B10508
:1018A000C0F184E991E00E94A20A209129033091BD
:1018B0002A0340912B0350912C0319A28E010F5D36
:1018C0001F4F8AE0C82ED12CE12CF12CCA01B9019E
:1018D000A70196010E94121E605DF80162938F01BC
:1018E000211531054105510589F7309719F0CF01D0
:1018F0000E94750AA1960FB6F894DEBF0FBECDBF49
:10190000DF91CF911F910F91FF90EF90DF90CF90DB
:10191000089580349244AF40B10518F083E991E016
:10192000C2CF82E991E0BFCF2F923F924F925F9258
:101930006F927F928F929F92AF92BF92CF92DF92DF
:10194000EF92FF920F931F93CF93DF93CDB7DEB744
:101950002E970FB6F894DEBF0FBECDBF2901B42F6E
:10196000A52F6D877E871C01602E20583A41464086
:10197000510961097109810991092F373A4146409E
:101980005105610571058105910511F008F092C0BE
:1019900092014B2F5A2F6D857E85C10107E00E9471
:1019A000A71F2901B42FA52F6D877E871C0167E033
:1019B000762E862D90E0895A9C4FFC018081811102
:1019C00071C1A0905A03B0905B03C0905C03D090AB
:1019D0005D03E0905E03F0905F030091600310915F
:1019E0006103CE0101964C0192014B2F5A2F6D8558
:1019F0007E85C1010E949300B980AA800B813D8041
:101A00002E801F81C984DA84EB84FC8484E190E019
:101A10000E9401202C01FC01D082C182862D880FFA
:101A2000880F880F845D0E94F40A03708C7F082B56
:101A3000F2010283A382B4828CE0F694E794D794F7
:101A4000C7948A95D1F7FC2DF07FCF2E1F70C12A45
:101A5000F201C58226823782F1E06F1609F436C1A1
:101A600012E0B201611609F43BC18AE20E94D20879
:101A700080E00E94070C672D80E00E94F10BC201FC
:101A80002E960FB6F894DEBF0FBECDBFDF91CF917B
:101A90001F910F91FF90EF90DF90CF90BF90AF908C
:101AA0009F908F907F906F905F904F903F902F907E
:101AB0000C949D2092014B2F5A2F6D857E85C1017C
:101AC00035534C40510961097109810991092F3F32
:101AD00034434C405105610571058105910509F0BC
:101AE00090F492014B2F5A2F6D857E85C10106E03F
:101AF0000E94A71F2901B42FA52F6D877E871C0187
:101B000056E0752E56CF92014B2F5A2F6D857E854C
:101B1000C1013A5648415109610971098109910988
:101B20002F3F3946484151056105710581059105F1
:101B300009F090F492014B2F5A2F6D857E85C101DB
:101B400005E00E94A71F2901B42FA52F6D877E876E
:101B50001C0145E0742E2DCF92014B2F5A2F6D851D
:101B60007E85C101345D40435109610971098109D4
:101B700091092F3F334D40435105610571058105A2
:101B8000910509F090F492014B2F5A2F6D857E85B7
:101B9000C10104E00E94A71F2901B42FA52F6D8762
:101BA0007E871C0134E0732E04CF92014B2F5A2FF5
:101BB0006D857E85C101385A414651096109710917
:101BC000810991092F3F374A414651056105710549
:101BD0008105910509F090F492014B2F5A2F6D85E4
:101BE0007E85C10103E00E94A71F2901B42FA52F04
:101BF0006D877E871C0123E0722EDBCE92014B2F76
:101C00005A2F6D857E85C1013055434C51096109BC
:101C10007109810991092F3F3F44434C51056105EA
:101C200071058105910509F090F492014B2F5A2F0F
:101C30006D857E85C10102E00E94A71F2901B42F96
:101C4000A52F6D877E871C0192E0792EB2CE92017E
:101C50004B2F5A2F6D857E85C101305A4648514021
:101C60006109710981099109712C2F3F3F4946484B
:101C70005140610571058105910511F008F099CE7B
:101C800092014B2F5A2F6D857E85C10101E00E9484
:101C9000A71F2901B42FA52F6D877E871C017724EC
:101CA000739487CEA0906203B0906303C0906403E6
:101CB000D0906503E0906603F0906703009168039D
:101CC00010916903FE0131964F018ECEB20182E37D
:101CD0000E94D20881E00E94070C672D81E0CDCEE2
:101CE0008AE30E94D20882E00E94070C672D82E0FE
:101CF000C4CE0F93CF93DF9360E08DE00E94FE058A
:101D000010922D0360E080E00E94D90B2091250302
:101D1000309126034091270350912803A4E6B0E0B8
:101D20000E943A1EDC0101E09B01AD0160E070E021
:101D300080E090E00E94940C61E081E00E94D90B69
:101D400061E088E0DF91CF910F910C94FE058091C6
:101D50000101823099F1A0F48130C9F1809125030D
:101D600090912603A0912703B09128038093290323
:101D700090932A03A0932B03B0932C030C94790E19
:101D8000843099F0883051F78091BE029091BF0263
:101D9000A091C002B091C1028093250390932603C5
:101DA000A0932703B0932803D9CF8091C2029091CA
:101DB000C302A091C402B091C502EECF8091C602C9
:101DC0009091C702A091C802B091C902E5CF80915D
:101DD000CA029091CB02A091CC02B091CD02DCCF8F
:101DE000E0910001E150EB3008F034C0F0E0E55044
:101DF000F14F0C94341E701047101E10F50FD00FC9
:101E0000A70F7E0F550F2A0F2C0F060F80E59BE1C1
:101E1000ACE1B0E08093CA029093CB02A093CC02D5
:101E2000B093CD028093C6029093C702A093C802DC
:101E3000B093C9028093C2029093C302A093C402DC
:101E4000B093C5028093BE029093BF02A093C002DC
:101E5000B093C1020C94A70E88E095E8A6E3B0E029
:101E60008093CA029093CB02A093CC02B093CD0290
:101E700088ED9CE8A6E3B0E08093C6029093C70289
:101E8000A093C802B093C90280E998E9A6E3B0E044
:101E90008093C2029093C302A093C402B093C50280
:101EA00088ED93E7A6E3B0E0CDCF80ED90EFABE611
:101EB000B0E08093CA029093CB02A093CC02B0937F
:101EC000CD028CE499E8ABE6B0E08093C602909333
:101ED000C702A093C802B093C90280E790E0ACE6C5
:101EE000B0E08093C2029093C302A093C402B09367
:101EF000C50288E896E6ABE6B0E0A4CF80EC99EAAC
:101F0000AAE9B0E08093CA029093CB02A093CC02DE
:101F1000B093CD0280E699EBAAE9B0E08093C602C7
:101F20009093C702A093C802B093C90280E592E9DA
:101F3000AAE9B0E08093C2029093C302A093C402C6
:101F4000B093C5028CE494EBAAE9B0E07BCF80E9C2
:101F500090ECA6EDB0E08093CA029093CB02A093E0
:101F6000CC02B093CD0280E098EDA6EDB0E0809376
:101F7000C6029093C702A093C802B093C90280E33F
:101F800090EDA6EDB0E08093C2029093C302A093BF
:101F9000C402B093C50280EF94E1A7EDB0E052CF48
:101FA00080E29FE2A4E1B1E08093CA029093CB0269
:101FB000A093CC02B093CD0280EC9EE3A4E1B1E00B
:101FC0008093C6029093C702A093C802B093C9023F
:101FD0008093C2029093C302A093C402B093C5023F
:101FE00088E191E4A4E1B1E02DCF80E590E9A1E49E
:101FF000B1E08093CA029093CB02A093CC02B0933D
:10200000CD0280E292E9A2E4B1E08093C60290930F
:10201000C702A093C802B093C90280EF9FE9A1E470
:10202000B1E08093C2029093C302A093C402B09324
:10203000C50288EC90EEA1E4B1E004CF88E39CE215
:10204000ACE7B1E08093CA029093CB02A093CC029C
:10205000B093CD0288ED9BE3ACE7B1E08093C6027C
:102060009093C702A093C802B093C90280E997E495
:10207000ACE7B1E08093C2029093C302A093C40284
:10208000B093C50288EB91E5ACE7B1E0DBCE80E12F
:1020900090E6ACEAB1E08093CA029093CB02A093A1
:1020A000CC02B093CD0280E29EEFADEAB1E0809326
:1020B000C6029093C702A093C802B093C90280EBF6
:1020C0009FE6ACEAB1E08093C2029093C302A09372
:1020D000C402B093C50288EB95E2ADEAB1E0B2CE9E
:1020E00088E297EBAFEFB2E08093CA029093CB0205
:1020F000A093CC02B093CD0280EB9AECAFEFB2E0AC
:102100008093C6029093C702A093C802B093C902FD
:102110008093C2029093C302A093C402B093C502FD
:1021200088E099E6AFEFB2E08DCE0F93CF93DF93C7
:1021300060E088E00E94FE0560E081E00E94D90B2B
:102140000E943B0961E08DE00E94FE05209125037D
:10215000309126034091270350912803A4E6B0E074
:102160000E943A1EDC0100E09B01AD0160E070E0DE
:1021700080E090E00E94940C61E080E00E94D90B26
:1021800084E00E94D505892BD9F364E170E080E0FA
:1021900090E00E948206DF91CF910F910C94790E0E
:1021A0002F923F924F925F926F927F928F929F9267
:1021B000AF92BF92CF92DF92EF92FF920F931F9355
:1021C000CF93DF93CDB7DEB72D970FB6F894DEBF70
:1021D0000FBECDBF19012A013B014C010D87011132
:1021E0006BC0E0916A0384E0E89FF0011124E95A92
:1021F000FC4FA58CB68CC78CD0A0FE0131967F0118
:1022000089019A01AB01B40180E00E94A90284E136
:1022100090E00E9401208C0189859A85AB85BC8560
:10222000F8019083818339814A812B812370228335
:10223000438334832CE0B695A795979587952A9587
:10224000D1F7807F2D813E819F819F70892B85836F
:1022500036832783FD85B801F11143C08AE10E94CE
:10226000D20820925A0330925B0340925C03509252
:102270005D0360925E0370925F03809260039092B0
:102280006103C8012D960FB6F894DEBF0FBECDBF17
:10229000DF91CF911F910F91FF90EF90DF90CF9042
:1022A000BF90AF909F908F907F906F905F904F9076
:1022B0003F902F900C949D20E0916B0384E0E89F69
:1022C000F0011124E95AFC4FA58CB68CC78CD0A024
:1022D000FE0131967F0189019A01AB01B40181E0D1
:1022E00094CF82E20E94D20820926203309263036C
:1022F0004092640350926503609266037092670394
:102300008092680390926903BCCF0F93CF93DF93C1
:10231000C7E5D3E06D8F7E8F8F8F98A32B813C8193
:102320004D815E816F81788500E089859A850E9464
:10233000D0102B853C854D855E856F85788901E0C1
:1023400089899A890E94D010DF91CF910F910895C9
:1023500085ED8093BC008091A5039091A603A09188
:10236000A703B091A8030796A11DB11D23E0B69560
:10237000A795979587952A95D1F72091BC0024FDC4
:1023800003C01092A30308954091A5035091A603A2
:102390006091A7037091A803452B462B472B69F347
:1023A0000097A105B10541F025E32A95F1F700005A
:1023B0000197A109B109E1CF8091A4030C94E30630
:1023C0001F920F920FB60F9211242F933F934F93AA
:1023D0005F936F937F938F939F93AF93BF93EF938D
:1023E000FF938DEC93E00E941805FF91EF91BF9150
:1023F000AF919F918F917F916F915F914F913F919D
:102400002F910F900FBE0F901F9018951F920F9253
:102410000FB60F9211242F938F939F93EF93FF93F7
:10242000E091DD03F091DE038081E091E303F09120
:10243000E40382FD1BC090818091E6038F5F8F7360
:102440002091E703821741F0E091E603F0E0E353C7
:10245000FC4F958F8093E603FF91EF919F918F91B1
:102460002F910F900FBE0F901F9018958081F4CF81
:102470001F920F920FB60F9211242F933F938F93B9
:102480009F93AF93BF938091130390911403A091F6
:102490001503B09116033091120323E0230F2D375B
:1024A00058F50196A11DB11D2093120380931303CB
:1024B00090931403A0931503B09316038091170310
:1024C00090911803A0911903B0911A030196A11DD0
:1024D000B11D8093170390931803A0931903B09331
:1024E0001A03BF91AF919F918F913F912F910F90C0
:1024F0000FBE0F901F90189526E8230F0296A11D7E
:10250000B11DD2CF1F920F920FB60F9211242F93AD
:102510003F934F935F936F937F938F939F93AF936B
:10252000BF93EF93FF938091B900887F803609F4C1
:102530004AC0F0F5883209F4A5C018F5803109F4D5
:1025400099C0B8F4882309F4F5C0883009F492C022
:10255000FF91EF91BF91AF919F918F917F916F917B
:102560005F914F913F912F910F900FBE0F901F9051
:102570001895883109F486C0803251F78093A10301
:1025800014C0803409F49BC040F48033B9F388331D
:10259000F9F68093A10385ECAEC0803509F483C0C1
:1025A000883509F494C0883499F60E94A811D0CFD8
:1025B000883909F48AC038F5883729F050F488360C
:1025C00011F0803729F683E08093A3031092110362
:1025D00055C0883809F479C0803919F0803809F07D
:1025E000B7CF80911103803208F06FC0E0911103E2
:1025F00081E08E0F809311038091BB00F0E0EF50DB
:10260000FD4F80833BC0803B39F0D0F4803A09F421
:1026100077C0883A09F09CCF84E08093A30310929E
:10262000F0021092EF02F0E0E0E009958091EF02F5
:1026300081110FC081E08093EF021092CF0209C098
:10264000803C09F4A8CF883C09F4A5CF883B09F069
:102650007FCFE091F00281E08E0F8093F002F0E0F6
:10266000E153FD4F80818093BB009091F0028091F7
:10267000EF0229C080917E038093BB0085EC80939C
:10268000BC0066CF9091A00380919F03981758F5E6
:10269000E091A00381E08E0F8093A003F0E0E15869
:1026A000FC4F8081E9CFE091A00381E08E0F809301
:1026B000A0038091BB00F0E0E158FC4F8083909133
:1026C000A00380919F039817C8F285E8D8CFE091C6
:1026D000A00381E08E0F8093A0038091BB00F0E007
:1026E000E158FC4F80838091A20381115ECF81E08D
:1026F00080937D0384EA8093BC001092A30328CFCB
:1027000085EC8093BC001092A3038091110380326A
:1027100030F4E0911103F0E0EF50FD4F1082609132
:10272000110370E081EF92E0F0E0E0E00995109293
:1027300011030ECF1092A10338CF1F920F920FB644
:102740000F9211248F939F9380912003811114C0C5
:10275000809186009091870090931E0380931D03C3
:1027600081E08093200310921F039F918F910F901F
:102770000FBE0F901F90189580911D0390911E031E
:1027800090931C0380931B03809186009091870097
:1027900090931E0380931D0381E080931F03E5CF78
:1027A000EDECF3E01382128288EE93E0A0E0B0E05B
:1027B00084839583A683B78326E331E03183208326
:1027C00025EC30E03587248724EC30E037872687F6
:1027D00020EC30E0318B208B21EC30E0338B228BEE
:1027E00022EC30E0358B248B26EC30E0378B268BC7
:1027F000118E128E138E148EEAE6F4E0138212828A
:1028000084839583A683B78388E491E09183808352
:102810000895CF93DF93CDB7DEB7EE970FB6F89458
:10282000DEBF0FBECDBF789484B5826084BD84B511
:10283000816084BD85B5826085BD85B5816085BDBB
:1028400080916E00816080936E0010928100809173
:1028500081008260809381008091810081608093FB
:102860008100809180008160809380008091B10020
:1028700084608093B1008091B00081608093B0004B
:1028800080917A00846080937A0080917A008260DF
:1028900080937A0080917A00816080937A008091A1
:1028A0007A00806880937A001092C10060E082E034
:1028B0000E942C0660E083E00E942C0660E084E029
:1028C0000E942C0661E08DE00E942C0661E089E008
:1028D0000E942C0661E08AE00E942C0661E08BE0F9
:1028E0000E942C0661E08CE00E942C0661E088E0EA
:1028F0000E942C0660E087E00E942C0660E08DE0DC
:102900000E94FE0560E089E00E94FE0560E08AE02A
:102910000E94FE0560E08BE00E94FE0560E08CE016
:102920000E94FE0560E088E00E94FE05E091DD0364
:10293000F091DE0382E08083E091D903F091DA0325
:102940001082E091DB03F091DC0380E18083109240
:10295000E503E091E103F091E20386E08083E091FA
:10296000DF03F091E003808180618083E091DF03E9
:10297000F091E003808188608083E091DF03F09133
:10298000E003808180688083E091DF03F091E003C1
:1029900080818F7D80838AE00E94820A89E591E0B0
:1029A0000E94900A88E691E00E94900A84E791E0F4
:1029B0000E94900A82E00E94D505892B09F42AC260
:1029C00082E00E94D505892BD9F364E170E080E0B4
:1029D00090E00E9482060E943B098AE090E00E94FB
:1029E000FC1D809302018BE090E00E94FC1D80930F
:1029F00003018CE090E00E94FC1D809304018DE0B7
:102A000090E00E94FC1D8093050161E071E088E286
:102A100090E00E94EA0A60E071E082E390E00E94A8
:102A2000EA0A8091020190910301A0910401B09102
:102A3000050184569109A109B1098D339648A14039
:102A4000B10570F080E09AEFA0E0B0E08093020161
:102A500090930301A0930401B09305010E94BB0A67
:102A6000809101018150883048F088E08093010115
:102A700061E071E088E290E00E94A40A8091000188
:102A800081508B3048F081E08093000160E071E07C
:102A900082E390E00E94A40A80E498E7ADE7B1E009
:102AA00080936C0390936D03A0936E03B0936F03B8
:102AB00010926A0310926B0310927C0362E987EB19
:102AC0000E94B80860E088E10E94B8086FEF89E0D2
:102AD0000E94B80860E880E10E94B80860E881E1DF
:102AE0000E94B80860E882E10E94B8086CE080E1CA
:102AF0000E94B8086CE081E10E94B8086CE082E1B5
:102B00000E94B8086FEF83E00E94B80800E020E060
:102B100030E24FE550EA62E170E080E090E00E9430
:102B2000D01001E020E030E24FE550EA62E170E0D1
:102B300080E090E00E94D01077E5E72E73E0F72E5A
:102B400000E1D7011D927D01802F0E94F40A682FB9
:102B50006F7D802F0E94B808F701319710820F5FB8
:102B6000033179F760E082EA0E94B80860E083EA06
:102B70000E94B80860E084EA0E94B80860E281EB35
:102B80000E94B80860E881EB0E94B80860910201D9
:102B90007091030180910401909105010E948511BB
:102BA00000E020E030E24FE550EA62E170E080E0D2
:102BB00090E00E94D01063E080E00E94220C60E070
:102BC00081E00E94220C0E94F00E83E00E94D50555
:102BD000892B09F040C060E08FE00E940F090E943D
:102BE0002D0A60E089E00E940F0960E082E00E9407
:102BF000220C02E020E031EE45EF55E060E070E0AD
:102C000080E090E00E94940C81E00E94130C61E04F
:102C100082E00E94D90B84E00E94D505892B09F03F
:102C2000FCC00E943B0984E00E94D505892BD9F3A2
:102C300064E170E080E090E00E94820660E082E063
:102C40000E94D90B80E00E94130C0E94BB0A0E94D4
:102C5000140A0E94790E1092800081E8809381000E
:102C600080B7846080BF80E286BB80936F000E9443
:102C700097090E942D0A4090900250909102609016
:102C800092024CAE5DAE6EAE9E01255E3F4F39ABFB
:102C900028ABAE01445E5F4F5BAB4AAB80911F0334
:102CA000882309F465C00091340310921F03E0905B
:102CB0001D03F0901E0380911B0390911C03E81AE2
:102CC000F90A0E94B4066093210370932203809353
:102CD000230390932403E1145AEFF50608F048C04B
:102CE000011117C00E943B0961E08DE00E94FE05C2
:102CF00001E000932D0360E088E00E94FE0560E0A3
:102D000081E00E94D90B61E080E00E94D90B009322
:102D100034032091290330912A0340912B035091D1
:102D20002C03A4E6B0E00E943A1E5B016C019701FF
:102D300050E040E060E070E18EE59FE50E94121EE9
:102D4000A20EB31EC41ED51E450100E09401A601CB
:102D500060E070E080E090E00E94940C0E94B40675
:102D600060932103709322038093230390932403A1
:102D7000809134038823F1F00E94B406C0902103AF
:102D8000D0902203E0902303F09024036C197D0976
:102D90008E099F09603171058105910558F01092E7
:102DA0003403109220030E94790E60E080910101AB
:102DB0000E940F0980913303882309F420C58DEC0C
:102DC00093E00E94F804892B09F46FC04CAC5DAC11
:102DD0006EAC4DA65EA66FA61A8E198E82E1A8A9CA
:102DE000B9A91D928A95E9F7F12CE12C8DEC93E0BD
:102DF0000E94F804892B09F450C08DEC93E00E94E6
:102E0000D604082F8F7D81548A3108F4D4C0C701BD
:102E10007C01ECCF0E94DC0A3FCE83E00E94D50506
:102E2000892B41F5609102017091030180910401A9
:102E3000909105016456710981099109609302011D
:102E40007093030180930401909305010E94851102
:102E500002E020E031EE45EF55E060E070E080E018
:102E600090E00E94940C64E170E080E090E00E94A9
:102E70008206D1CE82E00E94D505892B09F0CBCE07
:102E8000609102017091030180910401909105010C
:102E90006C597F4F8F4F9F4FD1CFC7010196B1E043
:102EA000EB16B4E0FB0608F4B3CF83E00E94D5052F
:102EB000892BC1F50E94B4066B017C01C0922F03DF
:102EC000D0923003E0923103F092320381E080939C
:102ED0002E0383E00E94D505892B79F40E94B40665
:102EE0006C197D098E099F096D327140810591052C
:102EF00008F479C482E080932E0380912E038230FF
:102F000009F074C41092330380E00E94A10983E0A9
:102F10000E94D505892BD9F364E170E080E090E050
:102F20000E94820682E00E94D505892BB9F50E9495
:102F3000B4066B017C01C0922F03D0923003E09263
:102F40003103F092320381E080932E0382E00E94ED
:102F5000D505892B79F40E94B4066C197D098E0978
:102F60009F096D3271408105910508F445C482E0E6
:102F700080932E0380912E03823029F060E08091AF
:102F800001010E940F0982E00E94D505892BD9F327
:102F900064E170E080E090E00E94820680E090E0D2
:102FA000892B09F47BCE0E940405882309F471CE95
:102FB0000E9400006ECE0A3709F477CF0DA70E9459
:102FC0006A0A8EA79FE9900F9A3110F400520DA75C
:102FD0009FE9980F9A3110F480528EA765E871E04E
:102FE000CE018D960E94500A8823D1F00E945D0A7E
:102FF00085E891E00E94A20A0E94320C88E891E0E4
:103000000E94A20A80912D03882341F081E30E944F
:10301000870588E991E00E94A20A47CF80E3F7CFB5
:1030200062EA71E0CE018D960E94500A882329F051
:103030000E945D0A85EA91E0EECF6CEA71E0CE0174
:103040008D960E94500A882309F41DC20E946A0AC4
:1030500090ED980F9A3008F074C0682FCE01499611
:103060000E94420A0AE00E946A0A682FCE0149962D
:103070000E94420A0150B9F7FE01B496C12CD12C2E
:103080007601212C312C21012394A291A0530A2EE8
:10309000000CBB0BA20191010E94451EC60ED71E5B
:1030A000E81EF91EAAE0B0E00E943A1E1B012C01A6
:1030B0006AA87BA86E167F0641F7C0922903D092BA
:1030C0002A03E0922B03F0922C0320E2C2162FE297
:1030D000D20624E1E20621E0F20609F4BCC108F0C0
:1030E000E1C040E7C416D1044CE6E406F10409F45B
:1030F000A4C108F085C068EDC6166CE8D60666E384
:10310000E606F10409F493C128F588EDC81683E7B3
:10311000D80686E3E806F10409F48BC198E0C916E5
:1031200095E8D90696E3E906F10409F47EC1A0E525
:10313000CA16ABE1DA06ACE1EA06F104E9F48AE08A
:1031400070C18CEA91E00E94A20A0E94320C80EACF
:1031500091E061CFB8E8CB16B6E6DB06BBE6EB063E
:10316000F10409F46CC1A0F5F0E9CF16F8E9DF0627
:10317000F6E3EF06F10419F3A4E6B0E0A701960127
:103180000E943A1E2B013C01812C912C54016CAB06
:103190005DAA8EAB7FAA88AE99AEAAAEBBAE01E0A7
:1031A0009B01AC0160E070E080E090E00E94940C34
:1031B000C0922503D0922603E0922703F0922803C1
:1031C0006091000180E00E940F090E945D0A6DCEAF
:1031D0002CE4C21629E8D2062BE6E206F10409F433
:1031E0002AC188E030EDC31630EFD3063BE6E30694
:1031F000F10411F68093000181E080930101BCCFBE
:1032000040E6C41649EBD4064AE9E406F10409F4A1
:103210001AC1E8F460ECC61669EAD6066AE9E60661
:10322000F10409F40EC17CE4C71674EBD7067AE901
:10323000E706F10409F409C180E5C81682E9D80659
:103240008AE9E806F10409F097CF87E0EAC090E345
:10325000C91690EDD90696EDE906F10409F4F9C016
:1032600058F486E0B0E9CB16B0ECDB06B6EDEB0621
:10327000F10409F4BFCF80CFC114E8EDDE06E6ED1E
:10328000EE06F10409F4E3C086E0F0EFCF16F4E1B6
:10329000DF06F7EDEF06F10409F06ECF8093000131
:1032A00088E0ABCF20E9C21627E4D2062CE7E2067D
:1032B00021E0F20609F4DBC008F05BC040EFC41661
:1032C0004FE9D40641E4E40641E0F40609F4CBC03A
:1032D00000F568E1C61661E4D60664E1E60661E041
:1032E000F60609F4BAC070E5C71670E9D70671E4AE
:1032F000E70671E0F70609F4B2C080ECC8168EE369
:10330000D80684E1E80681E0F80609F035CF85E0CB
:1033100088C090E2C91692E9D90692E4E90691E0E4
:10332000F90609F49EC060F484E0B8ECCB16B0EE68
:10333000DB06B1E4EB06B1E0FB0609F4AFCF1CCF2E
:10334000E8E3CE16ECE2DE06ECE7EE06E1E0FE0690
:1033500009F48BC083E0F8EDCF16FBE3DF06FCE752
:10336000EF06F1E0FF0609F007CF8093000182E04D
:1033700044CF28EBC21625E2D2062DEAE20621E070
:10338000F20609F47AC000F540E1C41640E6D4061E
:103390004CEAE40641E0F40609F46BC050EBC516B4
:1033A0005FE6D5065CEAE50651E0F50609F463C080
:1033B00068EBC61661E5D6066CE7E60661E0F60640
:1033C00009F0DACE83E06ACF78E0C71679E6D7064F
:1033D0007FEFE70672E0F70609F453C070F482E06D
:1033E00090E2C9169EEFD9069DEAE90691E0F9063A
:1033F00009F0C2CE8093000100CFA8E2CA16A7EB65
:10340000DA06AFEFEA06A2E0FA06C9F181E0B0EB16
:10341000CB16BAECDB06BFEFEB06B2E0FB0609F019
:10342000ABCE8093000184E0E8CE8AE0E3CE8AE070
:103430009CCF8AE033CF88E098CF88E0F2CF88E055
:10344000D9CF87E0D7CE87E090CF87E027CF86E03F
:103450008CCF86E0E6CF85E0CDCE85E01FCF84E03F
:10346000C9CE84E082CF84E0C5CF83E0C3CE83E0C1
:10347000D8CF82E0BFCE82E0D4CF82E00FCF81E010
:10348000B9CF81E00BCF6FEA71E0CE018D960E943B
:10349000500A882349F00E946A0A80538A3008F44F
:1034A00094CE82EB91E0B7CD67EB71E0CE018D96C3
:1034B0000E94500A882349F00E946A0A80538A3089
:1034C00008F483CE8AEB91E0A6CD6FEB71E0CE01DC
:1034D0008D960E94500A882349F00E946A0A805300
:1034E0008A3008F472CE82EC91E095CD67EC71E001
:1034F000CE018D960E94500A882349F00E946A0AE4
:1035000080538A3008F461CE8AEC91E084CD6FEC70
:1035100071E0CE018D960E94500A882331F00E94FE
:103520005D0A81E080932D03C0CC62ED71E0CE0195
:103530008D960E94500A882329F00E945D0A1092FD
:103540002D03B3CC65ED71E0CE018D960E94500A3B
:10355000882309F45BC0612C3AEF732E812C912CE7
:103560006092020170920301809204019092050121
:1035700086E08093000181E0809301010E94DC0AD3
:103580008AE00E94820A88ED91E00E94900A88E118
:10359000ECE0F1E0DE01119601900D928A95E1F7E1
:1035A00086EE91E00E94A20AE0910001F0E0EE0FA9
:1035B000FF1F88248394912C8C0E9D1EE80DF91D0D
:1035C000808191810E94900A8EEE91E00E94A20A71
:1035D000809101018230A1F038F48130A1F00E9485
:1035E000F00E0E94970961CC843039F08830B9F729
:1035F00086EF91E00E94900AF2CF8BEF91E0FACF34
:103600008FEF91E0F7CF83E092E0F4CF67E072E0D4
:10361000CE018D960E94500A882309F446CC60E0C2
:103620008FE00E940F0964EF71E080E090E00E945B
:10363000820660E089E00E940F098AE00E94820A07
:103640008FE792E00E94900A8AE092E00E94900A3E
:103650008CE292E00E94900A8EE492E00E94900A2E
:103660008EE592E00E94900A60E082E00E94220CC7
:1036700002E020E031EE45EF55E060E070E080E0F0
:1036800090E00E94940C81E00E94130C61E082E0C3
:103690000E94D90BD12CC12CB12CF12CE12C8DEC3A
:1036A00093E00E94F804892BD9F08DEC93E00E94FE
:1036B000D6048B3209F479C08D3209F478C08D3389
:1036C00029F08E3209F47AC0C70105C0D12CC12C73
:1036D0001DE390E080E07C01E2CFD12CC12CF9CF3A
:1036E000C701019621E0E21624E0F206A0F31D32A4
:1036F00009F459C00CF04DC01B3209F04FC0D12C59
:103700008091020190910301A0910401B091050103
:103710000A97A109B1098093020190930301A09334
:103720000401B0930501CC24C394DD20B1F0809155
:10373000020190910301A0910401B09105010A9644
:10374000A11DB11D8093020190930301A093040178
:10375000B0930501CD2CDD24D394609102017091CA
:10376000030180910401909105010E94851102E0FE
:1037700020E031EE45EF55E060E070E080E090E061
:103780000E94940CB11015C0812F0E948705B3943C
:10379000A0CF1E3299F01D3309F49FCFC110B0CFD6
:1037A000DD2009F49BCFD12CC2CF1BE2A8CF1DE2B4
:1037B000FACF34E6B312EBCFB12C8BCF60E082E0CE
:1037C0000E94D90B80E00E94130C0E94BB0A80E289
:1037D0000E94820A87E792E00E94900A0E94140ADF
:1037E0000E94790E62CB0E94C00673CB60910001EB
:1037F00080E00E940F098BCB0E94C006A7CB82E01D
:103800000E94D505892B09F0FEC00E94B4066B0109
:103810007C01C0922F03D0923003E0923103F092EA
:10382000320381E080932E0382E00E94D505892B2C
:1038300079F40E94B4066C197D098E099F096D32D6
:1038400071408105910508F453C182E080932E03F5
:1038500080912E03823009F092C10E94710982E0AA
:103860000E94D505892BD9F383E00E94D505892BC9
:10387000B1F364E170E080E090E00E948206FF24F2
:10388000F39482E00E94D50500E0892BD9F50E94CF
:10389000B4065B016C01A0922F03B0923003C0927A
:1038A0003103D0923203F0922E0382E00E94D505BC
:1038B000892B79F40E94B4066A197B098C099D0949
:1038C0006D3271408105910508F415C182E0809345
:1038D0002E0364E170E080E090E00E948206809117
:1038E0002E03823009F00AC10E944B0901E082E0F8
:1038F0000E94D505892BD9F364E170E080E090E067
:103900000E94820683E00E94D505892BD9F50E948A
:10391000B4065B016C01A0922F03B0923003C092F9
:103920003103D0923203F0922E0383E00E94D5053A
:10393000892B79F40E94B4066A197B098C099D09C8
:103940006D3271408105910508F4EBC082E08093EF
:103950002E0364E170E080E090E00E948206809196
:103960002E03823009F0E0C00E944B0901E083E0A1
:103970000E94D505892BD9F364E170E080E090E0E6
:103980000E94820684E00E94D505892B71F50E9471
:10399000B4065B016C01A0922F03B0923003C09279
:1039A0003103D0923203F0922E0384E00E94D505B9
:1039B000892B79F40E94B4066A197B098C099D0948
:1039C0006D3271408105910508F4C0C082E080939A
:1039D0002E0380912E03823009F0BBC00E94951007
:1039E0006091000180E00E940F09002309F449CF93
:1039F00082E00E94D505892BD9F364E170E080E074
:103A000090E00E94820683E00E94D505892BC1F5D3
:103A10000E94B4066B017C01C0922F03D092300348
:103A2000E0923103F092320381E080932E0383E031
:103A30000E94D505892B79F40E94B4066C197D0982
:103A40008E099F096D3271408105910508F4A8C067
:103A500082E080932E0380912E03823009F0A3C070
:103A600081E0809333030E94A10983E00E94D50581
:103A7000892BD9F364E170E080E090E00E94820637
:103A800084E00E94D505892B09F088CA0E94B406FB
:103A90006B017C01C0922F03D0923003E09231037E
:103AA000F092320381E080932E0384E00E94D505DA
:103AB000892B79F40E94B4066C197D098E099F093F
:103AC0006D3271408105910508F480C082E08093D9
:103AD0002E0380912E03823009F07BC00E943B09A7
:103AE0000E94951060E0809101010E940F0956CA62
:103AF0000E94C00699CE0E94C006D7CE80910001D8
:103B0000815059F0809300016091000180E00E9493
:103B10000F090E94F00E00E0EACEEBE0E093000116
:103B2000F3CF0E94C00601CF809100018F5F8C30DF
:103B300050F4809300016091000180E00E940F0921
:103B40000E94F00E14CFF0920001F5CF0E94C00643
:103B50002CCF0E94140A60E071E082E390E00E94A2
:103B6000A40A84E00E94D505892BD9F364E170E0B2
:103B700080E090E00E9482060E944B0939CF80913C
:103B80000101880F893050F4809301010E94A70E33
:103B900060E0809101010E940F092ACF81E0F4CFFB
:103BA0000E94C00644CF8091010190E095958795D1
:103BB000009751F0809301010E94A70E60E0809170
:103BC00001010E940F0951CF88E0F4CF0E94C00686
:103BD0006CCF0E94140A60E0809101010E940F09DD
:103BE00061E071E088E290E00E94A40A84E00E9413
:103BF000D505892BD9F3CCC9F999FECF92BD81BDEA
:103C0000F89A992780B50895262FF999FECF1FBA03
:103C100092BD81BD20BD0FB6F894FA9AF99A0FBEF5
:103C200001960895A1E21A2EAA1BBB1BFD010DC02F
:103C3000AA1FBB1FEE1FFF1FA217B307E407F5075C
:103C400020F0A21BB30BE40BF50B661F771F881F38
:103C5000991F1A9469F760957095809590959B01CE
:103C6000AC01BD01CF010895EE0FFF1F0590F49147
:103C7000E02D09940E94F21FA59F900DB49F900D16
:103C8000A49F800D911D11240895B7FF0C943A1E36
:103C90000E943A1E821B930B0895DF93CF931F93CC
:103CA0000F939A9DF02D219FF00D8B9DF00D8A9D15
:103CB000E02DF10D039FF00D029FE00DF11D4E9DD3
:103CC000E00DF11D5E9DF00D4F9DF00D7F936F9304
:103CD000BF92AF925F934F93D5010E94F21F8B0169
:103CE000AC01D7010E94F21FEB01E80FF91FD601CA
:103CF0000E949C1E2F913F91D6010E94F21FC60F79
:103D0000D71FE81FF91FAF91BF910E949C1E2F91F2
:103D10003F910E94F21FC60FD71FE81FF91FD6015F
:103D20000E94F21FE60FF71F9801BE01CF010F910D
:103D30001F91CF91DF9108950E94F21F460F571FE8
:103D4000C81FD91F08F431960895E894DF93CF93E4
:103D5000FC01DB010E94F21F7F936F93E9019A013E
:103D6000AC01BF93AF933F932F93DF010E94F21FEB
:103D700026F46C1B7D0B820B930B9E01EB01FC0167
:103D80000E949C1EAF91BF912F913F910E949C1E5B
:103D9000BE01CF01F9012F913F91CF91DF9108959D
:103DA000689401C0E894F92FF12B12F00C94041FD1
:103DB000A0E0B0E0EEEDFEE10C94761F092E059434
:103DC00022F40E94601F112392F4F0E80F26FFEF07
:103DD000E094F09400951095B094C094D094A19480
:103DE000BF0ACF0ADF0AEF0AFF0A0F0B1F0B0E9460
:103DF0000F1F07FC0E94601FCDB7DEB7ECE00C94EC
:103E0000921F689401C0E8948F929F92CF93DF93A2
:103E10000E940F1FDF91CF919F908F90089588246B
:103E20009924F401E401B0E49F93AA279A158B0426
:103E30009C04ED05FE05CF05D007A10798F4AD2F32
:103E4000DC2FCF2FFE2FE92D982C892E982F872F2E
:103E5000762F652F542F432F322F2227B85031F75A
:103E6000BF9127C01B2EBF91BB27220F331F441FBA
:103E7000551F661F771F881F991F881C991CEE1FEE
:103E8000FF1FCC1FDD1FAA1FBB1F8A149B04EC055C
:103E9000FD05CE05DF05A007B10748F08A189B088D
:103EA000EC09FD09CE09DF09A00BB10B21601A94C2
:103EB000E1F62EF49401AF01BE01CD01000C08958E
:103EC0006095709580959095309540955095219589
:103ED0003F4F4F4F5F4F6F4F7F4F8F4F9F4F089513
:103EE0002F923F924F925F926F927F928F929F920A
:103EF000AF92BF92CF92DF92EF92FF920F931F93F8
:103F0000CF93DF93CDB7DEB7CA1BDB0B0FB6F894A8
:103F1000DEBF0FBECDBF09942A88398848885F84E8
:103F20006E847D848C849B84AA84B984C884DF8059
:103F3000EE80FD800C811B81AA81B981CE0FD11D3D
:103F40000FB6F894DEBF0FBECDBFED010895002E71
:103F5000083090F0982F872F762F652F542F432FFE
:103F6000322F22270850F4CF220F331F441F551F32
:103F7000661F771F881F991F0A95B2F7002D0895B5
:103F800097FD1094002E083098F00850232F342FFE
:103F9000452F562F672F782F892F912DF4CF159409
:103FA0009795879577956795579547953795279571
:103FB0000A95AAF71124002D08952A0D3B1D4C1DCA
:103FC0005D1D6E1D7F1D801F911F08950024A7FD9C
:103FD00000942A17300540055005600570058005DE
:103FE00090050895A29FB001B39FC001A39F700DDB
:103FF000811D1124911DB29F700D811D1124911DF1
:1040000008950F931F93CF93DF938230910510F49F
:1040100082E090E0E0917804F091790430E020E0D3
:10402000B0E0A0E0309799F42115310509F44AC0B9
:10403000281B390B24303105D8F58A819B81611505
:10404000710589F1FB0193838283FE0111C04081D8
:1040500051810281138148175907E0F04817590729
:1040600099F4109761F012960C93129713961C9383
:104070003296CF01DF91CF911F910F910895009358
:10408000780410937904F4CF2115310551F04217CB
:10409000530738F0A901DB019A01BD01DF01F801E6
:1040A000C1CFEF01F9CF9093790480937804CDCFFD
:1040B000FE01E20FF31F819391932250310939835E
:1040C0002883D7CF2091760430917704232B41F4B5
:1040D00020910801309109013093770420937604F0
:1040E00020910601309107012115310541F42DB7CA
:1040F0003EB740910A0150910B01241B350BE09112
:104100007604F0917704E217F307A0F42E1B3F0B1F
:104110002817390778F0AC014E5F5F4F2417350739
:1041200048F04E0F5F1F50937704409376048193BD
:1041300091939FCFF0E0E0E09CCFCF93DF93009787
:10414000E9F0FC01329713821282A0917804B091B9
:104150007904ED0130E020E01097A1F42081318155
:10416000820F931F20917604309177042817390726
:1041700009F061C0F0937704E0937604DF91CF916A
:104180000895EA01CE17DF07E8F54A815B819E01B9
:1041900041155105B1F7E901FB83EA834991599132
:1041A000C40FD51FEC17FD0761F480819181029641
:1041B000840F951FE90199838883828193819B8372
:1041C0008A83F0E0E0E012968D919C91139700971E
:1041D000B9F52D913C911197CD010296820F931F55
:1041E00020917604309177042817390739F63097F3
:1041F00051F51092790410927804B0937704A0934B
:104200007604BCCFD383C28340815181840F951F34
:10421000C817D90761F44E5F5F4F88819981480FB5
:10422000591F518340838A819B8193838283211507
:10423000310509F0B0CFF0937904E09378049ECF74
:10424000FD01DC01C0CF13821282D7CFF894FFCFDB
:10425000060100FA000000007A0480009302960232
:1042600099029D02A102A502A902AD02B102BA0201
:10427000B502B90203050607090A0B0C0D0E0F2C37
:10428000343C000000003A059A04C7048C05F80489
:10429000D604EA040000000089085C08F808390820
:1042A0008C0049083A080D0A004144582D4D494EEA
:1042B0004920312E30346300417072203231203277
:1042C000303233007769746820434154207375702D
:1042D000706F72740049460030303030302B30300F
:1042E00030303030303030003230303030303030FC
:1042F0003B0049440049443031393B004641004DC0
:1043000044004D44323B004149004149303B00509C
:1043100053005053313B005854005854303B005424
:104320005800525800465200666163746F727920DB
:1043300072657365740062616E64203D20006D6F6C
:104340006465203D200057535052004A53380046C0
:1043500054340046543800434D0070726573732026
:104360002B20746F20696E637265617365206361D1
:104370006C206672657175656E6379007072657325
:1043800073202D20746F20646563726561736520EE
:1043900063616C206672657175656E637900707219
:1043A000657373203D20746F2073746F700070729A
:1043B000657373202E20746F207361766520616EA3
:1043C0006420657869740065786974696E67206334
:1043D000616C6962726174696F6E206D6F646500F3
:1043E0007A7A003F3F00364D0031304D0031324D7A
:1043F0000031354D0031374D0032304D0033304DF6
:0E4400000034304D0038304D003136304D0064
:00000001FF
